{"contracts/Election.sol":{"Election":{"abi":[{"inputs":[{"internalType":"string[][5]","name":"_candidateNames","type":"string[][5]"},{"internalType":"uint256","name":"_endTime","type":"uint256"}],"stateMutability":"nonpayable","type":"constructor"},{"inputs":[{"internalType":"uint256","name":"","type":"uint256"},{"internalType":"uint256","name":"","type":"uint256"}],"name":"candidates","outputs":[{"internalType":"string","name":"name","type":"string"},{"internalType":"uint16","name":"votes","type":"uint16"}],"stateMutability":"view","type":"function"},{"inputs":[{"internalType":"uint8","name":"position","type":"uint8"},{"internalType":"uint8","name":"preference1","type":"uint8"},{"internalType":"uint8","name":"preference2","type":"uint8"},{"internalType":"uint8","name":"preference3","type":"uint8"}],"name":"castVote","outputs":[],"stateMutability":"nonpayable","type":"function"},{"inputs":[],"name":"endTime","outputs":[{"internalType":"uint256","name":"","type":"uint256"}],"stateMutability":"view","type":"function"},{"inputs":[],"name":"leader","outputs":[{"internalType":"address","name":"","type":"address"}],"stateMutability":"view","type":"function"},{"inputs":[{"internalType":"address","name":"voter","type":"address"}],"name":"registerVoter","outputs":[],"stateMutability":"nonpayable","type":"function"},{"inputs":[{"internalType":"address","name":"","type":"address"}],"name":"voters","outputs":[{"internalType":"bool","name":"registered","type":"bool"}],"stateMutability":"view","type":"function"},{"inputs":[],"name":"winningCandidatesName","outputs":[{"internalType":"string[5]","name":"winnersName_","type":"string[5]"}],"stateMutability":"view","type":"function"}],"evm":{"bytecode":{"linkReferences":{},"object":"60806040526040518060600160405280600560ff168152602001600360ff168152602001600160ff1681525060009060036200003d9291906200035d565b503480156200004b57600080fd5b506040516200261c3803806200261c8339818101604052810190620000719190620006a5565b804210620000b6576040517f08c379a0000000000000000000000000000000000000000000000000000000008152600401620000ad9062000726565b60405180910390fd5b33600260006101000a81548173ffffffffffffffffffffffffffffffffffffffff021916908373ffffffffffffffffffffffffffffffffffffffff160217905550600160036000600260009054906101000a900473ffffffffffffffffffffffffffffffffffffffff1673ffffffffffffffffffffffffffffffffffffffff1673ffffffffffffffffffffffffffffffffffffffff16815260200190815260200160002060000160006101000a81548160ff02191690831515021790555060005b60058160ff1610156200034d5760005b838260ff1660058110620001c4577f4e487b7100000000000000000000000000000000000000000000000000000000600052603260045260246000fd5b6020020151518160ff161015620003365760048260ff166005811062000213577f4e487b7100000000000000000000000000000000000000000000000000000000600052603260045260246000fd5b016040518060400160405280868560ff16600581106200025c577f4e487b7100000000000000000000000000000000000000000000000000000000600052603260045260246000fd5b60200201518460ff16815181106200029d577f4e487b7100000000000000000000000000000000000000000000000000000000600052603260045260246000fd5b60200260200101518152602001600061ffff1681525090806001815401808255809150506001900390600052602060002090600202016000909190919091506000820151816000019080519060200190620002fa929190620003fe565b5060208201518160010160006101000a81548161ffff021916908361ffff160217905550505080806200032d90620008c9565b91505062000187565b5080806200034490620008c9565b91505062000177565b50806001819055505050620009d9565b826003601f01602090048101928215620003eb5791602002820160005b83821115620003ba57835183826101000a81548160ff021916908360ff16021790555092602001926001016020816000010492830192600103026200037a565b8015620003e95782816101000a81549060ff0219169055600101602081600001049283019260010302620003ba565b505b509050620003fa91906200048f565b5090565b8280546200040c906200085d565b90600052602060002090601f0160209004810192826200043057600085556200047c565b82601f106200044b57805160ff19168380011785556200047c565b828001600101855582156200047c579182015b828111156200047b5782518255916020019190600101906200045e565b5b5090506200048b91906200048f565b5090565b5b80821115620004aa57600081600090555060010162000490565b5090565b6000620004c5620004bf8462000771565b62000748565b90508082856020860282011115620004dc57600080fd5b60005b858110156200052b57815167ffffffffffffffff8111156200050057600080fd5b8086016200050f898262000634565b85526020850194506020840193505050600181019050620004df565b5050509392505050565b60006200054c62000546846200079a565b62000748565b905080838252602082019050828560208602820111156200056c57600080fd5b60005b85811015620005bb57815167ffffffffffffffff8111156200059057600080fd5b8086016200059f898262000661565b855260208501945060208401935050506001810190506200056f565b5050509392505050565b6000620005dc620005d684620007c9565b62000748565b905082815260208101848484011115620005f557600080fd5b6200060284828562000827565b509392505050565b600082601f8301126200061c57600080fd5b60056200062b848285620004ae565b91505092915050565b600082601f8301126200064657600080fd5b81516200065884826020860162000535565b91505092915050565b600082601f8301126200067357600080fd5b815162000685848260208601620005c5565b91505092915050565b6000815190506200069f81620009bf565b92915050565b60008060408385031215620006b957600080fd5b600083015167ffffffffffffffff811115620006d457600080fd5b620006e2858286016200060a565b9250506020620006f5858286016200068e565b9150509250929050565b60006200070e601f83620007ff565b91506200071b8262000996565b602082019050919050565b600060208201905081810360008301526200074181620006ff565b9050919050565b60006200075462000767565b905062000762828262000893565b919050565b6000604051905090565b600067ffffffffffffffff8211156200078f576200078e62000956565b5b602082029050919050565b600067ffffffffffffffff821115620007b857620007b762000956565b5b602082029050602081019050919050565b600067ffffffffffffffff821115620007e757620007e662000956565b5b620007f28262000985565b9050602081019050919050565b600082825260208201905092915050565b6000819050919050565b600060ff82169050919050565b60005b83811015620008475780820151818401526020810190506200082a565b8381111562000857576000848401525b50505050565b600060028204905060018216806200087657607f821691505b602082108114156200088d576200088c62000927565b5b50919050565b6200089e8262000985565b810181811067ffffffffffffffff82111715620008c057620008bf62000956565b5b80604052505050565b6000620008d6826200081a565b915060ff821415620008ed57620008ec620008f8565b5b600182019050919050565b7f4e487b7100000000000000000000000000000000000000000000000000000000600052601160045260246000fd5b7f4e487b7100000000000000000000000000000000000000000000000000000000600052602260045260246000fd5b7f4e487b7100000000000000000000000000000000000000000000000000000000600052604160045260246000fd5b6000601f19601f8301169050919050565b7f456e642074696d65206d75737420626520696e20746865206675747572652e00600082015250565b620009ca8162000810565b8114620009d657600080fd5b50565b611c3380620009e96000396000f3fe608060405234801561001057600080fd5b506004361061007d5760003560e01c8063510d96451161005b578063510d9645146100da5780637de14242146100f857806385c56e1914610129578063a3ec138d146101455761007d565b80633197cbb61461008257806338db6dd3146100a057806340eedabb146100bc575b600080fd5b61008a610175565b6040516100979190611868565b60405180910390f35b6100ba60048036038101906100b5919061144f565b61017b565b005b6100c461033d565b6040516100d19190611720565b60405180910390f35b6100e2610363565b6040516100ef919061173b565b60405180910390f35b610112600480360381019061010d9190611478565b61076d565b604051610120929190611778565b60405180910390f35b610143600480360381019061013e91906114b4565b610847565b005b61015f600480360381019061015a919061144f565b61139c565b60405161016c919061175d565b60405180910390f35b60015481565b60015442106101bf576040517f08c379a00000000000000000000000000000000000000000000000000000000081526004016101b690611808565b60405180910390fd5b600260009054906101000a900473ffffffffffffffffffffffffffffffffffffffff1673ffffffffffffffffffffffffffffffffffffffff163373ffffffffffffffffffffffffffffffffffffffff161461024f576040517f08c379a0000000000000000000000000000000000000000000000000000000008152600401610246906117e8565b60405180910390fd5b600360008273ffffffffffffffffffffffffffffffffffffffff1673ffffffffffffffffffffffffffffffffffffffff16815260200190815260200160002060000160009054906101000a900460ff16156102df576040517f08c379a00000000000000000000000000000000000000000000000000000000081526004016102d690611828565b60405180910390fd5b6001600360008373ffffffffffffffffffffffffffffffffffffffff1673ffffffffffffffffffffffffffffffffffffffff16815260200190815260200160002060000160006101000a81548160ff02191690831515021790555050565b600260009054906101000a900473ffffffffffffffffffffffffffffffffffffffff1681565b61036b6113c7565b6103736113ee565b60005b60058160ff1610156105ae5760007fffffffffffffffffffffffffffffffffffffffffffffffffffffffffffffffff905060005b60048360ff16600581106103e7577f4e487b7100000000000000000000000000000000000000000000000000000000600052603260045260246000fd5b01805490508160ff161015610599578160010b60048460ff1660058110610437577f4e487b7100000000000000000000000000000000000000000000000000000000600052603260045260246000fd5b018260ff1681548110610473577f4e487b7100000000000000000000000000000000000000000000000000000000600052603260045260246000fd5b906000526020600020906002020160010160009054906101000a900461ffff1660010b13156105865760048360ff16600581106104d9577f4e487b7100000000000000000000000000000000000000000000000000000000600052603260045260246000fd5b018160ff1681548110610515577f4e487b7100000000000000000000000000000000000000000000000000000000600052603260045260246000fd5b906000526020600020906002020160010160009054906101000a900461ffff16915080848460ff1660058110610574577f4e487b7100000000000000000000000000000000000000000000000000000000600052603260045260246000fd5b602002019060ff16908160ff16815250505b8080610591906119dd565b9150506103aa565b505080806105a6906119dd565b915050610376565b5060005b60058160ff1610156107685760048160ff16600581106105fb577f4e487b7100000000000000000000000000000000000000000000000000000000600052603260045260246000fd5b01828260ff1660058110610638577f4e487b7100000000000000000000000000000000000000000000000000000000600052603260045260246000fd5b602002015160ff1681548110610677577f4e487b7100000000000000000000000000000000000000000000000000000000600052603260045260246000fd5b90600052602060002090600202016000018054610693906119ab565b80601f01602080910402602001604051908101604052809291908181526020018280546106bf906119ab565b801561070c5780601f106106e15761010080835404028352916020019161070c565b820191906000526020600020905b8154815290600101906020018083116106ef57829003601f168201915b5050505050838260ff166005811061074d577f4e487b7100000000000000000000000000000000000000000000000000000000600052603260045260246000fd5b60200201819052508080610760906119dd565b9150506105b2565b505090565b6004826005811061077d57600080fd5b01818154811061078c57600080fd5b9060005260206000209060020201600091509150508060000180546107b0906119ab565b80601f01602080910402602001604051908101604052809291908181526020018280546107dc906119ab565b80156108295780601f106107fe57610100808354040283529160200191610829565b820191906000526020600020905b81548152906001019060200180831161080c57829003601f168201915b5050505050908060010160009054906101000a900461ffff16905082565b600154421061088b576040517f08c379a000000000000000000000000000000000000000000000000000000000815260040161088290611808565b60405180910390fd5b600360003373ffffffffffffffffffffffffffffffffffffffff1673ffffffffffffffffffffffffffffffffffffffff16815260200190815260200160002060000160009054906101000a900460ff1661091a576040517f08c379a0000000000000000000000000000000000000000000000000000000008152600401610911906117c8565b60405180910390fd5b600360003373ffffffffffffffffffffffffffffffffffffffff1673ffffffffffffffffffffffffffffffffffffffff1681526020019081526020016000206001018460ff1660058110610997577f4e487b7100000000000000000000000000000000000000000000000000000000600052603260045260246000fd5b016000600381106109d1577f4e487b7100000000000000000000000000000000000000000000000000000000600052603260045260246000fd5b602091828204019190069054906101000a900460ff1615610a27576040517f08c379a0000000000000000000000000000000000000000000000000000000008152600401610a1e906117a8565b60405180910390fd5b60048460ff1660058110610a64577f4e487b7100000000000000000000000000000000000000000000000000000000600052603260045260246000fd5b01805490508360ff16108015610abd575060048460ff1660058110610ab2577f4e487b7100000000000000000000000000000000000000000000000000000000600052603260045260246000fd5b01805490508260ff16105b8015610b0c575060048460ff1660058110610b01577f4e487b7100000000000000000000000000000000000000000000000000000000600052603260045260246000fd5b01805490508160ff16105b610b4b576040517f08c379a0000000000000000000000000000000000000000000000000000000008152600401610b4290611848565b60405180910390fd5b6001600360003373ffffffffffffffffffffffffffffffffffffffff1673ffffffffffffffffffffffffffffffffffffffff1681526020019081526020016000206001018560ff1660058110610bca577f4e487b7100000000000000000000000000000000000000000000000000000000600052603260045260246000fd5b01600060038110610c04577f4e487b7100000000000000000000000000000000000000000000000000000000600052603260045260246000fd5b602091828204019190066101000a81548160ff02191690831515021790555082600360003373ffffffffffffffffffffffffffffffffffffffff1673ffffffffffffffffffffffffffffffffffffffff1681526020019081526020016000206006018560ff1660058110610ca1577f4e487b7100000000000000000000000000000000000000000000000000000000600052603260045260246000fd5b01600060038110610cdb577f4e487b7100000000000000000000000000000000000000000000000000000000600052603260045260246000fd5b602091828204019190066101000a81548160ff021916908360ff16021790555060008060038110610d35577f4e487b7100000000000000000000000000000000000000000000000000000000600052603260045260246000fd5b602091828204019190069054906101000a900460ff1660ff1660048560ff1660058110610d8b577f4e487b7100000000000000000000000000000000000000000000000000000000600052603260045260246000fd5b018460ff1681548110610dc7577f4e487b7100000000000000000000000000000000000000000000000000000000600052603260045260246000fd5b906000526020600020906002020160010160008282829054906101000a900461ffff16610df491906118dd565b92506101000a81548161ffff021916908361ffff1602179055506001600360003373ffffffffffffffffffffffffffffffffffffffff1673ffffffffffffffffffffffffffffffffffffffff1681526020019081526020016000206001018560ff1660058110610e8d577f4e487b7100000000000000000000000000000000000000000000000000000000600052603260045260246000fd5b01600160038110610ec7577f4e487b7100000000000000000000000000000000000000000000000000000000600052603260045260246000fd5b602091828204019190066101000a81548160ff02191690831515021790555081600360003373ffffffffffffffffffffffffffffffffffffffff1673ffffffffffffffffffffffffffffffffffffffff1681526020019081526020016000206006018560ff1660058110610f64577f4e487b7100000000000000000000000000000000000000000000000000000000600052603260045260246000fd5b01600160038110610f9e577f4e487b7100000000000000000000000000000000000000000000000000000000600052603260045260246000fd5b602091828204019190066101000a81548160ff021916908360ff1602179055506000600160038110610ff9577f4e487b7100000000000000000000000000000000000000000000000000000000600052603260045260246000fd5b602091828204019190069054906101000a900460ff1660ff1660048560ff166005811061104f577f4e487b7100000000000000000000000000000000000000000000000000000000600052603260045260246000fd5b018360ff168154811061108b577f4e487b7100000000000000000000000000000000000000000000000000000000600052603260045260246000fd5b906000526020600020906002020160010160008282829054906101000a900461ffff166110b891906118dd565b92506101000a81548161ffff021916908361ffff1602179055506001600360003373ffffffffffffffffffffffffffffffffffffffff1673ffffffffffffffffffffffffffffffffffffffff1681526020019081526020016000206001018560ff1660058110611151577f4e487b7100000000000000000000000000000000000000000000000000000000600052603260045260246000fd5b0160026003811061118b577f4e487b7100000000000000000000000000000000000000000000000000000000600052603260045260246000fd5b602091828204019190066101000a81548160ff02191690831515021790555080600360003373ffffffffffffffffffffffffffffffffffffffff1673ffffffffffffffffffffffffffffffffffffffff1681526020019081526020016000206006018560ff1660058110611228577f4e487b7100000000000000000000000000000000000000000000000000000000600052603260045260246000fd5b01600260038110611262577f4e487b7100000000000000000000000000000000000000000000000000000000600052603260045260246000fd5b602091828204019190066101000a81548160ff021916908360ff16021790555060006002600381106112bd577f4e487b7100000000000000000000000000000000000000000000000000000000600052603260045260246000fd5b602091828204019190069054906101000a900460ff1660ff1660048560ff1660058110611313577f4e487b7100000000000000000000000000000000000000000000000000000000600052603260045260246000fd5b018260ff168154811061134f577f4e487b7100000000000000000000000000000000000000000000000000000000600052603260045260246000fd5b906000526020600020906002020160010160008282829054906101000a900461ffff1661137c91906118dd565b92506101000a81548161ffff021916908361ffff16021790555050505050565b60036020528060005260406000206000915090508060000160009054906101000a900460ff16905081565b6040518060a001604052806005905b60608152602001906001900390816113d65790505090565b6040518060a00160405280600590602082028036833780820191505090505090565b60008135905061141f81611bb8565b92915050565b60008135905061143481611bcf565b92915050565b60008135905061144981611be6565b92915050565b60006020828403121561146157600080fd5b600061146f84828501611410565b91505092915050565b6000806040838503121561148b57600080fd5b600061149985828601611425565b92505060206114aa85828601611425565b9150509250929050565b600080600080608085870312156114ca57600080fd5b60006114d88782880161143a565b94505060206114e98782880161143a565b93505060406114fa8782880161143a565b925050606061150b8782880161143a565b91505092959194509250565b600061152383836115be565b905092915050565b61153481611915565b82525050565b60006115458261188d565b61154f81856118b0565b93508360208202850161156185611883565b8060005b8581101561159d578484038952815161157e8582611517565b9450611589836118a3565b925060208a01995050600181019050611565565b50829750879550505050505092915050565b6115b881611927565b82525050565b60006115c982611898565b6115d381856118bb565b93506115e3818560208601611978565b6115ec81611a65565b840191505092915050565b600061160282611898565b61160c81856118cc565b935061161c818560208601611978565b61162581611a65565b840191505092915050565b600061163d6029836118cc565b915061164882611a76565b604082019050919050565b60006116606020836118cc565b915061166b82611ac5565b602082019050919050565b60006116836031836118cc565b915061168e82611aee565b604082019050919050565b60006116a66013836118cc565b91506116b182611b3d565b602082019050919050565b60006116c9601c836118cc565b91506116d482611b66565b602082019050919050565b60006116ec6019836118cc565b91506116f782611b8f565b602082019050919050565b61170b81611933565b82525050565b61171a81611961565b82525050565b6000602082019050611735600083018461152b565b92915050565b60006020820190508181036000830152611755818461153a565b905092915050565b600060208201905061177260008301846115af565b92915050565b6000604082019050818103600083015261179281856115f7565b90506117a16020830184611702565b9392505050565b600060208201905081810360008301526117c181611630565b9050919050565b600060208201905081810360008301526117e181611653565b9050919050565b6000602082019050818103600083015261180181611676565b9050919050565b6000602082019050818103600083015261182181611699565b9050919050565b60006020820190508181036000830152611841816116bc565b9050919050565b60006020820190508181036000830152611861816116df565b9050919050565b600060208201905061187d6000830184611711565b92915050565b6000819050919050565b600060059050919050565b600081519050919050565b6000602082019050919050565b600081905092915050565b600082825260208201905092915050565b600082825260208201905092915050565b60006118e882611933565b91506118f383611933565b92508261ffff0382111561190a57611909611a07565b5b828201905092915050565b600061192082611941565b9050919050565b60008115159050919050565b600061ffff82169050919050565b600073ffffffffffffffffffffffffffffffffffffffff82169050919050565b6000819050919050565b600060ff82169050919050565b60005b8381101561199657808201518184015260208101905061197b565b838111156119a5576000848401525b50505050565b600060028204905060018216806119c357607f821691505b602082108114156119d7576119d6611a36565b5b50919050565b60006119e88261196b565b915060ff8214156119fc576119fb611a07565b5b600182019050919050565b7f4e487b7100000000000000000000000000000000000000000000000000000000600052601160045260246000fd5b7f4e487b7100000000000000000000000000000000000000000000000000000000600052602260045260246000fd5b6000601f19601f8301169050919050565b7f596f75206861766520616c726561647920766f74656420666f7220746869732060008201527f706f736974696f6e2e0000000000000000000000000000000000000000000000602082015250565b7f4f6e6c79207265676973746572656420766f746572732063616e20766f74652e600082015250565b7f4f6e6c792074686520656c656374696f6e206c65616465722063616e2067726160008201527f6e7420766f74696e67207269676874732e000000000000000000000000000000602082015250565b7f456c656374696f6e2068617320656e6465642e00000000000000000000000000600082015250565b7f566f74657220697320616c726561647920726567697374657265642e00000000600082015250565b7f43616e64696461746520646f6573206e6f742065786973742e00000000000000600082015250565b611bc181611915565b8114611bcc57600080fd5b50565b611bd881611961565b8114611be357600080fd5b50565b611bef8161196b565b8114611bfa57600080fd5b5056fea264697066735822122065f21dd77431fa813de536a694ee7915a8e643585bec3a7343e35f0da9df3c9064736f6c63430008040033","opcodes":"PUSH1 0x80 PUSH1 0x40 MSTORE PUSH1 0x40 MLOAD DUP1 PUSH1 0x60 ADD PUSH1 0x40 MSTORE DUP1 PUSH1 0x5 PUSH1 0xFF AND DUP2 MSTORE PUSH1 0x20 ADD PUSH1 0x3 PUSH1 0xFF AND DUP2 MSTORE PUSH1 0x20 ADD PUSH1 0x1 PUSH1 0xFF AND DUP2 MSTORE POP PUSH1 0x0 SWAP1 PUSH1 0x3 PUSH3 0x3D SWAP3 SWAP2 SWAP1 PUSH3 0x35D JUMP JUMPDEST POP CALLVALUE DUP1 ISZERO PUSH3 0x4B JUMPI PUSH1 0x0 DUP1 REVERT JUMPDEST POP PUSH1 0x40 MLOAD PUSH3 0x261C CODESIZE SUB DUP1 PUSH3 0x261C DUP4 CODECOPY DUP2 DUP2 ADD PUSH1 0x40 MSTORE DUP2 ADD SWAP1 PUSH3 0x71 SWAP2 SWAP1 PUSH3 0x6A5 JUMP JUMPDEST DUP1 TIMESTAMP LT PUSH3 0xB6 JUMPI PUSH1 0x40 MLOAD PUSH32 0x8C379A000000000000000000000000000000000000000000000000000000000 DUP2 MSTORE PUSH1 0x4 ADD PUSH3 0xAD SWAP1 PUSH3 0x726 JUMP JUMPDEST PUSH1 0x40 MLOAD DUP1 SWAP2 SUB SWAP1 REVERT JUMPDEST CALLER PUSH1 0x2 PUSH1 0x0 PUSH2 0x100 EXP DUP2 SLOAD DUP2 PUSH20 0xFFFFFFFFFFFFFFFFFFFFFFFFFFFFFFFFFFFFFFFF MUL NOT AND SWAP1 DUP4 PUSH20 0xFFFFFFFFFFFFFFFFFFFFFFFFFFFFFFFFFFFFFFFF AND MUL OR SWAP1 SSTORE POP PUSH1 0x1 PUSH1 0x3 PUSH1 0x0 PUSH1 0x2 PUSH1 0x0 SWAP1 SLOAD SWAP1 PUSH2 0x100 EXP SWAP1 DIV PUSH20 0xFFFFFFFFFFFFFFFFFFFFFFFFFFFFFFFFFFFFFFFF AND PUSH20 0xFFFFFFFFFFFFFFFFFFFFFFFFFFFFFFFFFFFFFFFF AND PUSH20 0xFFFFFFFFFFFFFFFFFFFFFFFFFFFFFFFFFFFFFFFF AND DUP2 MSTORE PUSH1 0x20 ADD SWAP1 DUP2 MSTORE PUSH1 0x20 ADD PUSH1 0x0 KECCAK256 PUSH1 0x0 ADD PUSH1 0x0 PUSH2 0x100 EXP DUP2 SLOAD DUP2 PUSH1 0xFF MUL NOT AND SWAP1 DUP4 ISZERO ISZERO MUL OR SWAP1 SSTORE POP PUSH1 0x0 JUMPDEST PUSH1 0x5 DUP2 PUSH1 0xFF AND LT ISZERO PUSH3 0x34D JUMPI PUSH1 0x0 JUMPDEST DUP4 DUP3 PUSH1 0xFF AND PUSH1 0x5 DUP2 LT PUSH3 0x1C4 JUMPI PUSH32 0x4E487B7100000000000000000000000000000000000000000000000000000000 PUSH1 0x0 MSTORE PUSH1 0x32 PUSH1 0x4 MSTORE PUSH1 0x24 PUSH1 0x0 REVERT JUMPDEST PUSH1 0x20 MUL ADD MLOAD MLOAD DUP2 PUSH1 0xFF AND LT ISZERO PUSH3 0x336 JUMPI PUSH1 0x4 DUP3 PUSH1 0xFF AND PUSH1 0x5 DUP2 LT PUSH3 0x213 JUMPI PUSH32 0x4E487B7100000000000000000000000000000000000000000000000000000000 PUSH1 0x0 MSTORE PUSH1 0x32 PUSH1 0x4 MSTORE PUSH1 0x24 PUSH1 0x0 REVERT JUMPDEST ADD PUSH1 0x40 MLOAD DUP1 PUSH1 0x40 ADD PUSH1 0x40 MSTORE DUP1 DUP7 DUP6 PUSH1 0xFF AND PUSH1 0x5 DUP2 LT PUSH3 0x25C JUMPI PUSH32 0x4E487B7100000000000000000000000000000000000000000000000000000000 PUSH1 0x0 MSTORE PUSH1 0x32 PUSH1 0x4 MSTORE PUSH1 0x24 PUSH1 0x0 REVERT JUMPDEST PUSH1 0x20 MUL ADD MLOAD DUP5 PUSH1 0xFF AND DUP2 MLOAD DUP2 LT PUSH3 0x29D JUMPI PUSH32 0x4E487B7100000000000000000000000000000000000000000000000000000000 PUSH1 0x0 MSTORE PUSH1 0x32 PUSH1 0x4 MSTORE PUSH1 0x24 PUSH1 0x0 REVERT JUMPDEST PUSH1 0x20 MUL PUSH1 0x20 ADD ADD MLOAD DUP2 MSTORE PUSH1 0x20 ADD PUSH1 0x0 PUSH2 0xFFFF AND DUP2 MSTORE POP SWAP1 DUP1 PUSH1 0x1 DUP2 SLOAD ADD DUP1 DUP3 SSTORE DUP1 SWAP2 POP POP PUSH1 0x1 SWAP1 SUB SWAP1 PUSH1 0x0 MSTORE PUSH1 0x20 PUSH1 0x0 KECCAK256 SWAP1 PUSH1 0x2 MUL ADD PUSH1 0x0 SWAP1 SWAP2 SWAP1 SWAP2 SWAP1 SWAP2 POP PUSH1 0x0 DUP3 ADD MLOAD DUP2 PUSH1 0x0 ADD SWAP1 DUP1 MLOAD SWAP1 PUSH1 0x20 ADD SWAP1 PUSH3 0x2FA SWAP3 SWAP2 SWAP1 PUSH3 0x3FE JUMP JUMPDEST POP PUSH1 0x20 DUP3 ADD MLOAD DUP2 PUSH1 0x1 ADD PUSH1 0x0 PUSH2 0x100 EXP DUP2 SLOAD DUP2 PUSH2 0xFFFF MUL NOT AND SWAP1 DUP4 PUSH2 0xFFFF AND MUL OR SWAP1 SSTORE POP POP POP DUP1 DUP1 PUSH3 0x32D SWAP1 PUSH3 0x8C9 JUMP JUMPDEST SWAP2 POP POP PUSH3 0x187 JUMP JUMPDEST POP DUP1 DUP1 PUSH3 0x344 SWAP1 PUSH3 0x8C9 JUMP JUMPDEST SWAP2 POP POP PUSH3 0x177 JUMP JUMPDEST POP DUP1 PUSH1 0x1 DUP2 SWAP1 SSTORE POP POP POP PUSH3 0x9D9 JUMP JUMPDEST DUP3 PUSH1 0x3 PUSH1 0x1F ADD PUSH1 0x20 SWAP1 DIV DUP2 ADD SWAP3 DUP3 ISZERO PUSH3 0x3EB JUMPI SWAP2 PUSH1 0x20 MUL DUP3 ADD PUSH1 0x0 JUMPDEST DUP4 DUP3 GT ISZERO PUSH3 0x3BA JUMPI DUP4 MLOAD DUP4 DUP3 PUSH2 0x100 EXP DUP2 SLOAD DUP2 PUSH1 0xFF MUL NOT AND SWAP1 DUP4 PUSH1 0xFF AND MUL OR SWAP1 SSTORE POP SWAP3 PUSH1 0x20 ADD SWAP3 PUSH1 0x1 ADD PUSH1 0x20 DUP2 PUSH1 0x0 ADD DIV SWAP3 DUP4 ADD SWAP3 PUSH1 0x1 SUB MUL PUSH3 0x37A JUMP JUMPDEST DUP1 ISZERO PUSH3 0x3E9 JUMPI DUP3 DUP2 PUSH2 0x100 EXP DUP2 SLOAD SWAP1 PUSH1 0xFF MUL NOT AND SWAP1 SSTORE PUSH1 0x1 ADD PUSH1 0x20 DUP2 PUSH1 0x0 ADD DIV SWAP3 DUP4 ADD SWAP3 PUSH1 0x1 SUB MUL PUSH3 0x3BA JUMP JUMPDEST POP JUMPDEST POP SWAP1 POP PUSH3 0x3FA SWAP2 SWAP1 PUSH3 0x48F JUMP JUMPDEST POP SWAP1 JUMP JUMPDEST DUP3 DUP1 SLOAD PUSH3 0x40C SWAP1 PUSH3 0x85D JUMP JUMPDEST SWAP1 PUSH1 0x0 MSTORE PUSH1 0x20 PUSH1 0x0 KECCAK256 SWAP1 PUSH1 0x1F ADD PUSH1 0x20 SWAP1 DIV DUP2 ADD SWAP3 DUP3 PUSH3 0x430 JUMPI PUSH1 0x0 DUP6 SSTORE PUSH3 0x47C JUMP JUMPDEST DUP3 PUSH1 0x1F LT PUSH3 0x44B JUMPI DUP1 MLOAD PUSH1 0xFF NOT AND DUP4 DUP1 ADD OR DUP6 SSTORE PUSH3 0x47C JUMP JUMPDEST DUP3 DUP1 ADD PUSH1 0x1 ADD DUP6 SSTORE DUP3 ISZERO PUSH3 0x47C JUMPI SWAP2 DUP3 ADD JUMPDEST DUP3 DUP2 GT ISZERO PUSH3 0x47B JUMPI DUP3 MLOAD DUP3 SSTORE SWAP2 PUSH1 0x20 ADD SWAP2 SWAP1 PUSH1 0x1 ADD SWAP1 PUSH3 0x45E JUMP JUMPDEST JUMPDEST POP SWAP1 POP PUSH3 0x48B SWAP2 SWAP1 PUSH3 0x48F JUMP JUMPDEST POP SWAP1 JUMP JUMPDEST JUMPDEST DUP1 DUP3 GT ISZERO PUSH3 0x4AA JUMPI PUSH1 0x0 DUP2 PUSH1 0x0 SWAP1 SSTORE POP PUSH1 0x1 ADD PUSH3 0x490 JUMP JUMPDEST POP SWAP1 JUMP JUMPDEST PUSH1 0x0 PUSH3 0x4C5 PUSH3 0x4BF DUP5 PUSH3 0x771 JUMP JUMPDEST PUSH3 0x748 JUMP JUMPDEST SWAP1 POP DUP1 DUP3 DUP6 PUSH1 0x20 DUP7 MUL DUP3 ADD GT ISZERO PUSH3 0x4DC JUMPI PUSH1 0x0 DUP1 REVERT JUMPDEST PUSH1 0x0 JUMPDEST DUP6 DUP2 LT ISZERO PUSH3 0x52B JUMPI DUP2 MLOAD PUSH8 0xFFFFFFFFFFFFFFFF DUP2 GT ISZERO PUSH3 0x500 JUMPI PUSH1 0x0 DUP1 REVERT JUMPDEST DUP1 DUP7 ADD PUSH3 0x50F DUP10 DUP3 PUSH3 0x634 JUMP JUMPDEST DUP6 MSTORE PUSH1 0x20 DUP6 ADD SWAP5 POP PUSH1 0x20 DUP5 ADD SWAP4 POP POP POP PUSH1 0x1 DUP2 ADD SWAP1 POP PUSH3 0x4DF JUMP JUMPDEST POP POP POP SWAP4 SWAP3 POP POP POP JUMP JUMPDEST PUSH1 0x0 PUSH3 0x54C PUSH3 0x546 DUP5 PUSH3 0x79A JUMP JUMPDEST PUSH3 0x748 JUMP JUMPDEST SWAP1 POP DUP1 DUP4 DUP3 MSTORE PUSH1 0x20 DUP3 ADD SWAP1 POP DUP3 DUP6 PUSH1 0x20 DUP7 MUL DUP3 ADD GT ISZERO PUSH3 0x56C JUMPI PUSH1 0x0 DUP1 REVERT JUMPDEST PUSH1 0x0 JUMPDEST DUP6 DUP2 LT ISZERO PUSH3 0x5BB JUMPI DUP2 MLOAD PUSH8 0xFFFFFFFFFFFFFFFF DUP2 GT ISZERO PUSH3 0x590 JUMPI PUSH1 0x0 DUP1 REVERT JUMPDEST DUP1 DUP7 ADD PUSH3 0x59F DUP10 DUP3 PUSH3 0x661 JUMP JUMPDEST DUP6 MSTORE PUSH1 0x20 DUP6 ADD SWAP5 POP PUSH1 0x20 DUP5 ADD SWAP4 POP POP POP PUSH1 0x1 DUP2 ADD SWAP1 POP PUSH3 0x56F JUMP JUMPDEST POP POP POP SWAP4 SWAP3 POP POP POP JUMP JUMPDEST PUSH1 0x0 PUSH3 0x5DC PUSH3 0x5D6 DUP5 PUSH3 0x7C9 JUMP JUMPDEST PUSH3 0x748 JUMP JUMPDEST SWAP1 POP DUP3 DUP2 MSTORE PUSH1 0x20 DUP2 ADD DUP5 DUP5 DUP5 ADD GT ISZERO PUSH3 0x5F5 JUMPI PUSH1 0x0 DUP1 REVERT JUMPDEST PUSH3 0x602 DUP5 DUP3 DUP6 PUSH3 0x827 JUMP JUMPDEST POP SWAP4 SWAP3 POP POP POP JUMP JUMPDEST PUSH1 0x0 DUP3 PUSH1 0x1F DUP4 ADD SLT PUSH3 0x61C JUMPI PUSH1 0x0 DUP1 REVERT JUMPDEST PUSH1 0x5 PUSH3 0x62B DUP5 DUP3 DUP6 PUSH3 0x4AE JUMP JUMPDEST SWAP2 POP POP SWAP3 SWAP2 POP POP JUMP JUMPDEST PUSH1 0x0 DUP3 PUSH1 0x1F DUP4 ADD SLT PUSH3 0x646 JUMPI PUSH1 0x0 DUP1 REVERT JUMPDEST DUP2 MLOAD PUSH3 0x658 DUP5 DUP3 PUSH1 0x20 DUP7 ADD PUSH3 0x535 JUMP JUMPDEST SWAP2 POP POP SWAP3 SWAP2 POP POP JUMP JUMPDEST PUSH1 0x0 DUP3 PUSH1 0x1F DUP4 ADD SLT PUSH3 0x673 JUMPI PUSH1 0x0 DUP1 REVERT JUMPDEST DUP2 MLOAD PUSH3 0x685 DUP5 DUP3 PUSH1 0x20 DUP7 ADD PUSH3 0x5C5 JUMP JUMPDEST SWAP2 POP POP SWAP3 SWAP2 POP POP JUMP JUMPDEST PUSH1 0x0 DUP2 MLOAD SWAP1 POP PUSH3 0x69F DUP2 PUSH3 0x9BF JUMP JUMPDEST SWAP3 SWAP2 POP POP JUMP JUMPDEST PUSH1 0x0 DUP1 PUSH1 0x40 DUP4 DUP6 SUB SLT ISZERO PUSH3 0x6B9 JUMPI PUSH1 0x0 DUP1 REVERT JUMPDEST PUSH1 0x0 DUP4 ADD MLOAD PUSH8 0xFFFFFFFFFFFFFFFF DUP2 GT ISZERO PUSH3 0x6D4 JUMPI PUSH1 0x0 DUP1 REVERT JUMPDEST PUSH3 0x6E2 DUP6 DUP3 DUP7 ADD PUSH3 0x60A JUMP JUMPDEST SWAP3 POP POP PUSH1 0x20 PUSH3 0x6F5 DUP6 DUP3 DUP7 ADD PUSH3 0x68E JUMP JUMPDEST SWAP2 POP POP SWAP3 POP SWAP3 SWAP1 POP JUMP JUMPDEST PUSH1 0x0 PUSH3 0x70E PUSH1 0x1F DUP4 PUSH3 0x7FF JUMP JUMPDEST SWAP2 POP PUSH3 0x71B DUP3 PUSH3 0x996 JUMP JUMPDEST PUSH1 0x20 DUP3 ADD SWAP1 POP SWAP2 SWAP1 POP JUMP JUMPDEST PUSH1 0x0 PUSH1 0x20 DUP3 ADD SWAP1 POP DUP2 DUP2 SUB PUSH1 0x0 DUP4 ADD MSTORE PUSH3 0x741 DUP2 PUSH3 0x6FF JUMP JUMPDEST SWAP1 POP SWAP2 SWAP1 POP JUMP JUMPDEST PUSH1 0x0 PUSH3 0x754 PUSH3 0x767 JUMP JUMPDEST SWAP1 POP PUSH3 0x762 DUP3 DUP3 PUSH3 0x893 JUMP JUMPDEST SWAP2 SWAP1 POP JUMP JUMPDEST PUSH1 0x0 PUSH1 0x40 MLOAD SWAP1 POP SWAP1 JUMP JUMPDEST PUSH1 0x0 PUSH8 0xFFFFFFFFFFFFFFFF DUP3 GT ISZERO PUSH3 0x78F JUMPI PUSH3 0x78E PUSH3 0x956 JUMP JUMPDEST JUMPDEST PUSH1 0x20 DUP3 MUL SWAP1 POP SWAP2 SWAP1 POP JUMP JUMPDEST PUSH1 0x0 PUSH8 0xFFFFFFFFFFFFFFFF DUP3 GT ISZERO PUSH3 0x7B8 JUMPI PUSH3 0x7B7 PUSH3 0x956 JUMP JUMPDEST JUMPDEST PUSH1 0x20 DUP3 MUL SWAP1 POP PUSH1 0x20 DUP2 ADD SWAP1 POP SWAP2 SWAP1 POP JUMP JUMPDEST PUSH1 0x0 PUSH8 0xFFFFFFFFFFFFFFFF DUP3 GT ISZERO PUSH3 0x7E7 JUMPI PUSH3 0x7E6 PUSH3 0x956 JUMP JUMPDEST JUMPDEST PUSH3 0x7F2 DUP3 PUSH3 0x985 JUMP JUMPDEST SWAP1 POP PUSH1 0x20 DUP2 ADD SWAP1 POP SWAP2 SWAP1 POP JUMP JUMPDEST PUSH1 0x0 DUP3 DUP3 MSTORE PUSH1 0x20 DUP3 ADD SWAP1 POP SWAP3 SWAP2 POP POP JUMP JUMPDEST PUSH1 0x0 DUP2 SWAP1 POP SWAP2 SWAP1 POP JUMP JUMPDEST PUSH1 0x0 PUSH1 0xFF DUP3 AND SWAP1 POP SWAP2 SWAP1 POP JUMP JUMPDEST PUSH1 0x0 JUMPDEST DUP4 DUP2 LT ISZERO PUSH3 0x847 JUMPI DUP1 DUP3 ADD MLOAD DUP2 DUP5 ADD MSTORE PUSH1 0x20 DUP2 ADD SWAP1 POP PUSH3 0x82A JUMP JUMPDEST DUP4 DUP2 GT ISZERO PUSH3 0x857 JUMPI PUSH1 0x0 DUP5 DUP5 ADD MSTORE JUMPDEST POP POP POP POP JUMP JUMPDEST PUSH1 0x0 PUSH1 0x2 DUP3 DIV SWAP1 POP PUSH1 0x1 DUP3 AND DUP1 PUSH3 0x876 JUMPI PUSH1 0x7F DUP3 AND SWAP2 POP JUMPDEST PUSH1 0x20 DUP3 LT DUP2 EQ ISZERO PUSH3 0x88D JUMPI PUSH3 0x88C PUSH3 0x927 JUMP JUMPDEST JUMPDEST POP SWAP2 SWAP1 POP JUMP JUMPDEST PUSH3 0x89E DUP3 PUSH3 0x985 JUMP JUMPDEST DUP2 ADD DUP2 DUP2 LT PUSH8 0xFFFFFFFFFFFFFFFF DUP3 GT OR ISZERO PUSH3 0x8C0 JUMPI PUSH3 0x8BF PUSH3 0x956 JUMP JUMPDEST JUMPDEST DUP1 PUSH1 0x40 MSTORE POP POP POP JUMP JUMPDEST PUSH1 0x0 PUSH3 0x8D6 DUP3 PUSH3 0x81A JUMP JUMPDEST SWAP2 POP PUSH1 0xFF DUP3 EQ ISZERO PUSH3 0x8ED JUMPI PUSH3 0x8EC PUSH3 0x8F8 JUMP JUMPDEST JUMPDEST PUSH1 0x1 DUP3 ADD SWAP1 POP SWAP2 SWAP1 POP JUMP JUMPDEST PUSH32 0x4E487B7100000000000000000000000000000000000000000000000000000000 PUSH1 0x0 MSTORE PUSH1 0x11 PUSH1 0x4 MSTORE PUSH1 0x24 PUSH1 0x0 REVERT JUMPDEST PUSH32 0x4E487B7100000000000000000000000000000000000000000000000000000000 PUSH1 0x0 MSTORE PUSH1 0x22 PUSH1 0x4 MSTORE PUSH1 0x24 PUSH1 0x0 REVERT JUMPDEST PUSH32 0x4E487B7100000000000000000000000000000000000000000000000000000000 PUSH1 0x0 MSTORE PUSH1 0x41 PUSH1 0x4 MSTORE PUSH1 0x24 PUSH1 0x0 REVERT JUMPDEST PUSH1 0x0 PUSH1 0x1F NOT PUSH1 0x1F DUP4 ADD AND SWAP1 POP SWAP2 SWAP1 POP JUMP JUMPDEST PUSH32 0x456E642074696D65206D75737420626520696E20746865206675747572652E00 PUSH1 0x0 DUP3 ADD MSTORE POP JUMP JUMPDEST PUSH3 0x9CA DUP2 PUSH3 0x810 JUMP JUMPDEST DUP2 EQ PUSH3 0x9D6 JUMPI PUSH1 0x0 DUP1 REVERT JUMPDEST POP JUMP JUMPDEST PUSH2 0x1C33 DUP1 PUSH3 0x9E9 PUSH1 0x0 CODECOPY PUSH1 0x0 RETURN INVALID PUSH1 0x80 PUSH1 0x40 MSTORE CALLVALUE DUP1 ISZERO PUSH2 0x10 JUMPI PUSH1 0x0 DUP1 REVERT JUMPDEST POP PUSH1 0x4 CALLDATASIZE LT PUSH2 0x7D JUMPI PUSH1 0x0 CALLDATALOAD PUSH1 0xE0 SHR DUP1 PUSH4 0x510D9645 GT PUSH2 0x5B JUMPI DUP1 PUSH4 0x510D9645 EQ PUSH2 0xDA JUMPI DUP1 PUSH4 0x7DE14242 EQ PUSH2 0xF8 JUMPI DUP1 PUSH4 0x85C56E19 EQ PUSH2 0x129 JUMPI DUP1 PUSH4 0xA3EC138D EQ PUSH2 0x145 JUMPI PUSH2 0x7D JUMP JUMPDEST DUP1 PUSH4 0x3197CBB6 EQ PUSH2 0x82 JUMPI DUP1 PUSH4 0x38DB6DD3 EQ PUSH2 0xA0 JUMPI DUP1 PUSH4 0x40EEDABB EQ PUSH2 0xBC JUMPI JUMPDEST PUSH1 0x0 DUP1 REVERT JUMPDEST PUSH2 0x8A PUSH2 0x175 JUMP JUMPDEST PUSH1 0x40 MLOAD PUSH2 0x97 SWAP2 SWAP1 PUSH2 0x1868 JUMP JUMPDEST PUSH1 0x40 MLOAD DUP1 SWAP2 SUB SWAP1 RETURN JUMPDEST PUSH2 0xBA PUSH1 0x4 DUP1 CALLDATASIZE SUB DUP2 ADD SWAP1 PUSH2 0xB5 SWAP2 SWAP1 PUSH2 0x144F JUMP JUMPDEST PUSH2 0x17B JUMP JUMPDEST STOP JUMPDEST PUSH2 0xC4 PUSH2 0x33D JUMP JUMPDEST PUSH1 0x40 MLOAD PUSH2 0xD1 SWAP2 SWAP1 PUSH2 0x1720 JUMP JUMPDEST PUSH1 0x40 MLOAD DUP1 SWAP2 SUB SWAP1 RETURN JUMPDEST PUSH2 0xE2 PUSH2 0x363 JUMP JUMPDEST PUSH1 0x40 MLOAD PUSH2 0xEF SWAP2 SWAP1 PUSH2 0x173B JUMP JUMPDEST PUSH1 0x40 MLOAD DUP1 SWAP2 SUB SWAP1 RETURN JUMPDEST PUSH2 0x112 PUSH1 0x4 DUP1 CALLDATASIZE SUB DUP2 ADD SWAP1 PUSH2 0x10D SWAP2 SWAP1 PUSH2 0x1478 JUMP JUMPDEST PUSH2 0x76D JUMP JUMPDEST PUSH1 0x40 MLOAD PUSH2 0x120 SWAP3 SWAP2 SWAP1 PUSH2 0x1778 JUMP JUMPDEST PUSH1 0x40 MLOAD DUP1 SWAP2 SUB SWAP1 RETURN JUMPDEST PUSH2 0x143 PUSH1 0x4 DUP1 CALLDATASIZE SUB DUP2 ADD SWAP1 PUSH2 0x13E SWAP2 SWAP1 PUSH2 0x14B4 JUMP JUMPDEST PUSH2 0x847 JUMP JUMPDEST STOP JUMPDEST PUSH2 0x15F PUSH1 0x4 DUP1 CALLDATASIZE SUB DUP2 ADD SWAP1 PUSH2 0x15A SWAP2 SWAP1 PUSH2 0x144F JUMP JUMPDEST PUSH2 0x139C JUMP JUMPDEST PUSH1 0x40 MLOAD PUSH2 0x16C SWAP2 SWAP1 PUSH2 0x175D JUMP JUMPDEST PUSH1 0x40 MLOAD DUP1 SWAP2 SUB SWAP1 RETURN JUMPDEST PUSH1 0x1 SLOAD DUP2 JUMP JUMPDEST PUSH1 0x1 SLOAD TIMESTAMP LT PUSH2 0x1BF JUMPI PUSH1 0x40 MLOAD PUSH32 0x8C379A000000000000000000000000000000000000000000000000000000000 DUP2 MSTORE PUSH1 0x4 ADD PUSH2 0x1B6 SWAP1 PUSH2 0x1808 JUMP JUMPDEST PUSH1 0x40 MLOAD DUP1 SWAP2 SUB SWAP1 REVERT JUMPDEST PUSH1 0x2 PUSH1 0x0 SWAP1 SLOAD SWAP1 PUSH2 0x100 EXP SWAP1 DIV PUSH20 0xFFFFFFFFFFFFFFFFFFFFFFFFFFFFFFFFFFFFFFFF AND PUSH20 0xFFFFFFFFFFFFFFFFFFFFFFFFFFFFFFFFFFFFFFFF AND CALLER PUSH20 0xFFFFFFFFFFFFFFFFFFFFFFFFFFFFFFFFFFFFFFFF AND EQ PUSH2 0x24F JUMPI PUSH1 0x40 MLOAD PUSH32 0x8C379A000000000000000000000000000000000000000000000000000000000 DUP2 MSTORE PUSH1 0x4 ADD PUSH2 0x246 SWAP1 PUSH2 0x17E8 JUMP JUMPDEST PUSH1 0x40 MLOAD DUP1 SWAP2 SUB SWAP1 REVERT JUMPDEST PUSH1 0x3 PUSH1 0x0 DUP3 PUSH20 0xFFFFFFFFFFFFFFFFFFFFFFFFFFFFFFFFFFFFFFFF AND PUSH20 0xFFFFFFFFFFFFFFFFFFFFFFFFFFFFFFFFFFFFFFFF AND DUP2 MSTORE PUSH1 0x20 ADD SWAP1 DUP2 MSTORE PUSH1 0x20 ADD PUSH1 0x0 KECCAK256 PUSH1 0x0 ADD PUSH1 0x0 SWAP1 SLOAD SWAP1 PUSH2 0x100 EXP SWAP1 DIV PUSH1 0xFF AND ISZERO PUSH2 0x2DF JUMPI PUSH1 0x40 MLOAD PUSH32 0x8C379A000000000000000000000000000000000000000000000000000000000 DUP2 MSTORE PUSH1 0x4 ADD PUSH2 0x2D6 SWAP1 PUSH2 0x1828 JUMP JUMPDEST PUSH1 0x40 MLOAD DUP1 SWAP2 SUB SWAP1 REVERT JUMPDEST PUSH1 0x1 PUSH1 0x3 PUSH1 0x0 DUP4 PUSH20 0xFFFFFFFFFFFFFFFFFFFFFFFFFFFFFFFFFFFFFFFF AND PUSH20 0xFFFFFFFFFFFFFFFFFFFFFFFFFFFFFFFFFFFFFFFF AND DUP2 MSTORE PUSH1 0x20 ADD SWAP1 DUP2 MSTORE PUSH1 0x20 ADD PUSH1 0x0 KECCAK256 PUSH1 0x0 ADD PUSH1 0x0 PUSH2 0x100 EXP DUP2 SLOAD DUP2 PUSH1 0xFF MUL NOT AND SWAP1 DUP4 ISZERO ISZERO MUL OR SWAP1 SSTORE POP POP JUMP JUMPDEST PUSH1 0x2 PUSH1 0x0 SWAP1 SLOAD SWAP1 PUSH2 0x100 EXP SWAP1 DIV PUSH20 0xFFFFFFFFFFFFFFFFFFFFFFFFFFFFFFFFFFFFFFFF AND DUP2 JUMP JUMPDEST PUSH2 0x36B PUSH2 0x13C7 JUMP JUMPDEST PUSH2 0x373 PUSH2 0x13EE JUMP JUMPDEST PUSH1 0x0 JUMPDEST PUSH1 0x5 DUP2 PUSH1 0xFF AND LT ISZERO PUSH2 0x5AE JUMPI PUSH1 0x0 PUSH32 0xFFFFFFFFFFFFFFFFFFFFFFFFFFFFFFFFFFFFFFFFFFFFFFFFFFFFFFFFFFFFFFFF SWAP1 POP PUSH1 0x0 JUMPDEST PUSH1 0x4 DUP4 PUSH1 0xFF AND PUSH1 0x5 DUP2 LT PUSH2 0x3E7 JUMPI PUSH32 0x4E487B7100000000000000000000000000000000000000000000000000000000 PUSH1 0x0 MSTORE PUSH1 0x32 PUSH1 0x4 MSTORE PUSH1 0x24 PUSH1 0x0 REVERT JUMPDEST ADD DUP1 SLOAD SWAP1 POP DUP2 PUSH1 0xFF AND LT ISZERO PUSH2 0x599 JUMPI DUP2 PUSH1 0x1 SIGNEXTEND PUSH1 0x4 DUP5 PUSH1 0xFF AND PUSH1 0x5 DUP2 LT PUSH2 0x437 JUMPI PUSH32 0x4E487B7100000000000000000000000000000000000000000000000000000000 PUSH1 0x0 MSTORE PUSH1 0x32 PUSH1 0x4 MSTORE PUSH1 0x24 PUSH1 0x0 REVERT JUMPDEST ADD DUP3 PUSH1 0xFF AND DUP2 SLOAD DUP2 LT PUSH2 0x473 JUMPI PUSH32 0x4E487B7100000000000000000000000000000000000000000000000000000000 PUSH1 0x0 MSTORE PUSH1 0x32 PUSH1 0x4 MSTORE PUSH1 0x24 PUSH1 0x0 REVERT JUMPDEST SWAP1 PUSH1 0x0 MSTORE PUSH1 0x20 PUSH1 0x0 KECCAK256 SWAP1 PUSH1 0x2 MUL ADD PUSH1 0x1 ADD PUSH1 0x0 SWAP1 SLOAD SWAP1 PUSH2 0x100 EXP SWAP1 DIV PUSH2 0xFFFF AND PUSH1 0x1 SIGNEXTEND SGT ISZERO PUSH2 0x586 JUMPI PUSH1 0x4 DUP4 PUSH1 0xFF AND PUSH1 0x5 DUP2 LT PUSH2 0x4D9 JUMPI PUSH32 0x4E487B7100000000000000000000000000000000000000000000000000000000 PUSH1 0x0 MSTORE PUSH1 0x32 PUSH1 0x4 MSTORE PUSH1 0x24 PUSH1 0x0 REVERT JUMPDEST ADD DUP2 PUSH1 0xFF AND DUP2 SLOAD DUP2 LT PUSH2 0x515 JUMPI PUSH32 0x4E487B7100000000000000000000000000000000000000000000000000000000 PUSH1 0x0 MSTORE PUSH1 0x32 PUSH1 0x4 MSTORE PUSH1 0x24 PUSH1 0x0 REVERT JUMPDEST SWAP1 PUSH1 0x0 MSTORE PUSH1 0x20 PUSH1 0x0 KECCAK256 SWAP1 PUSH1 0x2 MUL ADD PUSH1 0x1 ADD PUSH1 0x0 SWAP1 SLOAD SWAP1 PUSH2 0x100 EXP SWAP1 DIV PUSH2 0xFFFF AND SWAP2 POP DUP1 DUP5 DUP5 PUSH1 0xFF AND PUSH1 0x5 DUP2 LT PUSH2 0x574 JUMPI PUSH32 0x4E487B7100000000000000000000000000000000000000000000000000000000 PUSH1 0x0 MSTORE PUSH1 0x32 PUSH1 0x4 MSTORE PUSH1 0x24 PUSH1 0x0 REVERT JUMPDEST PUSH1 0x20 MUL ADD SWAP1 PUSH1 0xFF AND SWAP1 DUP2 PUSH1 0xFF AND DUP2 MSTORE POP POP JUMPDEST DUP1 DUP1 PUSH2 0x591 SWAP1 PUSH2 0x19DD JUMP JUMPDEST SWAP2 POP POP PUSH2 0x3AA JUMP JUMPDEST POP POP DUP1 DUP1 PUSH2 0x5A6 SWAP1 PUSH2 0x19DD JUMP JUMPDEST SWAP2 POP POP PUSH2 0x376 JUMP JUMPDEST POP PUSH1 0x0 JUMPDEST PUSH1 0x5 DUP2 PUSH1 0xFF AND LT ISZERO PUSH2 0x768 JUMPI PUSH1 0x4 DUP2 PUSH1 0xFF AND PUSH1 0x5 DUP2 LT PUSH2 0x5FB JUMPI PUSH32 0x4E487B7100000000000000000000000000000000000000000000000000000000 PUSH1 0x0 MSTORE PUSH1 0x32 PUSH1 0x4 MSTORE PUSH1 0x24 PUSH1 0x0 REVERT JUMPDEST ADD DUP3 DUP3 PUSH1 0xFF AND PUSH1 0x5 DUP2 LT PUSH2 0x638 JUMPI PUSH32 0x4E487B7100000000000000000000000000000000000000000000000000000000 PUSH1 0x0 MSTORE PUSH1 0x32 PUSH1 0x4 MSTORE PUSH1 0x24 PUSH1 0x0 REVERT JUMPDEST PUSH1 0x20 MUL ADD MLOAD PUSH1 0xFF AND DUP2 SLOAD DUP2 LT PUSH2 0x677 JUMPI PUSH32 0x4E487B7100000000000000000000000000000000000000000000000000000000 PUSH1 0x0 MSTORE PUSH1 0x32 PUSH1 0x4 MSTORE PUSH1 0x24 PUSH1 0x0 REVERT JUMPDEST SWAP1 PUSH1 0x0 MSTORE PUSH1 0x20 PUSH1 0x0 KECCAK256 SWAP1 PUSH1 0x2 MUL ADD PUSH1 0x0 ADD DUP1 SLOAD PUSH2 0x693 SWAP1 PUSH2 0x19AB JUMP JUMPDEST DUP1 PUSH1 0x1F ADD PUSH1 0x20 DUP1 SWAP2 DIV MUL PUSH1 0x20 ADD PUSH1 0x40 MLOAD SWAP1 DUP2 ADD PUSH1 0x40 MSTORE DUP1 SWAP3 SWAP2 SWAP1 DUP2 DUP2 MSTORE PUSH1 0x20 ADD DUP3 DUP1 SLOAD PUSH2 0x6BF SWAP1 PUSH2 0x19AB JUMP JUMPDEST DUP1 ISZERO PUSH2 0x70C JUMPI DUP1 PUSH1 0x1F LT PUSH2 0x6E1 JUMPI PUSH2 0x100 DUP1 DUP4 SLOAD DIV MUL DUP4 MSTORE SWAP2 PUSH1 0x20 ADD SWAP2 PUSH2 0x70C JUMP JUMPDEST DUP3 ADD SWAP2 SWAP1 PUSH1 0x0 MSTORE PUSH1 0x20 PUSH1 0x0 KECCAK256 SWAP1 JUMPDEST DUP2 SLOAD DUP2 MSTORE SWAP1 PUSH1 0x1 ADD SWAP1 PUSH1 0x20 ADD DUP1 DUP4 GT PUSH2 0x6EF JUMPI DUP3 SWAP1 SUB PUSH1 0x1F AND DUP3 ADD SWAP2 JUMPDEST POP POP POP POP POP DUP4 DUP3 PUSH1 0xFF AND PUSH1 0x5 DUP2 LT PUSH2 0x74D JUMPI PUSH32 0x4E487B7100000000000000000000000000000000000000000000000000000000 PUSH1 0x0 MSTORE PUSH1 0x32 PUSH1 0x4 MSTORE PUSH1 0x24 PUSH1 0x0 REVERT JUMPDEST PUSH1 0x20 MUL ADD DUP2 SWAP1 MSTORE POP DUP1 DUP1 PUSH2 0x760 SWAP1 PUSH2 0x19DD JUMP JUMPDEST SWAP2 POP POP PUSH2 0x5B2 JUMP JUMPDEST POP POP SWAP1 JUMP JUMPDEST PUSH1 0x4 DUP3 PUSH1 0x5 DUP2 LT PUSH2 0x77D JUMPI PUSH1 0x0 DUP1 REVERT JUMPDEST ADD DUP2 DUP2 SLOAD DUP2 LT PUSH2 0x78C JUMPI PUSH1 0x0 DUP1 REVERT JUMPDEST SWAP1 PUSH1 0x0 MSTORE PUSH1 0x20 PUSH1 0x0 KECCAK256 SWAP1 PUSH1 0x2 MUL ADD PUSH1 0x0 SWAP2 POP SWAP2 POP POP DUP1 PUSH1 0x0 ADD DUP1 SLOAD PUSH2 0x7B0 SWAP1 PUSH2 0x19AB JUMP JUMPDEST DUP1 PUSH1 0x1F ADD PUSH1 0x20 DUP1 SWAP2 DIV MUL PUSH1 0x20 ADD PUSH1 0x40 MLOAD SWAP1 DUP2 ADD PUSH1 0x40 MSTORE DUP1 SWAP3 SWAP2 SWAP1 DUP2 DUP2 MSTORE PUSH1 0x20 ADD DUP3 DUP1 SLOAD PUSH2 0x7DC SWAP1 PUSH2 0x19AB JUMP JUMPDEST DUP1 ISZERO PUSH2 0x829 JUMPI DUP1 PUSH1 0x1F LT PUSH2 0x7FE JUMPI PUSH2 0x100 DUP1 DUP4 SLOAD DIV MUL DUP4 MSTORE SWAP2 PUSH1 0x20 ADD SWAP2 PUSH2 0x829 JUMP JUMPDEST DUP3 ADD SWAP2 SWAP1 PUSH1 0x0 MSTORE PUSH1 0x20 PUSH1 0x0 KECCAK256 SWAP1 JUMPDEST DUP2 SLOAD DUP2 MSTORE SWAP1 PUSH1 0x1 ADD SWAP1 PUSH1 0x20 ADD DUP1 DUP4 GT PUSH2 0x80C JUMPI DUP3 SWAP1 SUB PUSH1 0x1F AND DUP3 ADD SWAP2 JUMPDEST POP POP POP POP POP SWAP1 DUP1 PUSH1 0x1 ADD PUSH1 0x0 SWAP1 SLOAD SWAP1 PUSH2 0x100 EXP SWAP1 DIV PUSH2 0xFFFF AND SWAP1 POP DUP3 JUMP JUMPDEST PUSH1 0x1 SLOAD TIMESTAMP LT PUSH2 0x88B JUMPI PUSH1 0x40 MLOAD PUSH32 0x8C379A000000000000000000000000000000000000000000000000000000000 DUP2 MSTORE PUSH1 0x4 ADD PUSH2 0x882 SWAP1 PUSH2 0x1808 JUMP JUMPDEST PUSH1 0x40 MLOAD DUP1 SWAP2 SUB SWAP1 REVERT JUMPDEST PUSH1 0x3 PUSH1 0x0 CALLER PUSH20 0xFFFFFFFFFFFFFFFFFFFFFFFFFFFFFFFFFFFFFFFF AND PUSH20 0xFFFFFFFFFFFFFFFFFFFFFFFFFFFFFFFFFFFFFFFF AND DUP2 MSTORE PUSH1 0x20 ADD SWAP1 DUP2 MSTORE PUSH1 0x20 ADD PUSH1 0x0 KECCAK256 PUSH1 0x0 ADD PUSH1 0x0 SWAP1 SLOAD SWAP1 PUSH2 0x100 EXP SWAP1 DIV PUSH1 0xFF AND PUSH2 0x91A JUMPI PUSH1 0x40 MLOAD PUSH32 0x8C379A000000000000000000000000000000000000000000000000000000000 DUP2 MSTORE PUSH1 0x4 ADD PUSH2 0x911 SWAP1 PUSH2 0x17C8 JUMP JUMPDEST PUSH1 0x40 MLOAD DUP1 SWAP2 SUB SWAP1 REVERT JUMPDEST PUSH1 0x3 PUSH1 0x0 CALLER PUSH20 0xFFFFFFFFFFFFFFFFFFFFFFFFFFFFFFFFFFFFFFFF AND PUSH20 0xFFFFFFFFFFFFFFFFFFFFFFFFFFFFFFFFFFFFFFFF AND DUP2 MSTORE PUSH1 0x20 ADD SWAP1 DUP2 MSTORE PUSH1 0x20 ADD PUSH1 0x0 KECCAK256 PUSH1 0x1 ADD DUP5 PUSH1 0xFF AND PUSH1 0x5 DUP2 LT PUSH2 0x997 JUMPI PUSH32 0x4E487B7100000000000000000000000000000000000000000000000000000000 PUSH1 0x0 MSTORE PUSH1 0x32 PUSH1 0x4 MSTORE PUSH1 0x24 PUSH1 0x0 REVERT JUMPDEST ADD PUSH1 0x0 PUSH1 0x3 DUP2 LT PUSH2 0x9D1 JUMPI PUSH32 0x4E487B7100000000000000000000000000000000000000000000000000000000 PUSH1 0x0 MSTORE PUSH1 0x32 PUSH1 0x4 MSTORE PUSH1 0x24 PUSH1 0x0 REVERT JUMPDEST PUSH1 0x20 SWAP2 DUP3 DUP3 DIV ADD SWAP2 SWAP1 MOD SWAP1 SLOAD SWAP1 PUSH2 0x100 EXP SWAP1 DIV PUSH1 0xFF AND ISZERO PUSH2 0xA27 JUMPI PUSH1 0x40 MLOAD PUSH32 0x8C379A000000000000000000000000000000000000000000000000000000000 DUP2 MSTORE PUSH1 0x4 ADD PUSH2 0xA1E SWAP1 PUSH2 0x17A8 JUMP JUMPDEST PUSH1 0x40 MLOAD DUP1 SWAP2 SUB SWAP1 REVERT JUMPDEST PUSH1 0x4 DUP5 PUSH1 0xFF AND PUSH1 0x5 DUP2 LT PUSH2 0xA64 JUMPI PUSH32 0x4E487B7100000000000000000000000000000000000000000000000000000000 PUSH1 0x0 MSTORE PUSH1 0x32 PUSH1 0x4 MSTORE PUSH1 0x24 PUSH1 0x0 REVERT JUMPDEST ADD DUP1 SLOAD SWAP1 POP DUP4 PUSH1 0xFF AND LT DUP1 ISZERO PUSH2 0xABD JUMPI POP PUSH1 0x4 DUP5 PUSH1 0xFF AND PUSH1 0x5 DUP2 LT PUSH2 0xAB2 JUMPI PUSH32 0x4E487B7100000000000000000000000000000000000000000000000000000000 PUSH1 0x0 MSTORE PUSH1 0x32 PUSH1 0x4 MSTORE PUSH1 0x24 PUSH1 0x0 REVERT JUMPDEST ADD DUP1 SLOAD SWAP1 POP DUP3 PUSH1 0xFF AND LT JUMPDEST DUP1 ISZERO PUSH2 0xB0C JUMPI POP PUSH1 0x4 DUP5 PUSH1 0xFF AND PUSH1 0x5 DUP2 LT PUSH2 0xB01 JUMPI PUSH32 0x4E487B7100000000000000000000000000000000000000000000000000000000 PUSH1 0x0 MSTORE PUSH1 0x32 PUSH1 0x4 MSTORE PUSH1 0x24 PUSH1 0x0 REVERT JUMPDEST ADD DUP1 SLOAD SWAP1 POP DUP2 PUSH1 0xFF AND LT JUMPDEST PUSH2 0xB4B JUMPI PUSH1 0x40 MLOAD PUSH32 0x8C379A000000000000000000000000000000000000000000000000000000000 DUP2 MSTORE PUSH1 0x4 ADD PUSH2 0xB42 SWAP1 PUSH2 0x1848 JUMP JUMPDEST PUSH1 0x40 MLOAD DUP1 SWAP2 SUB SWAP1 REVERT JUMPDEST PUSH1 0x1 PUSH1 0x3 PUSH1 0x0 CALLER PUSH20 0xFFFFFFFFFFFFFFFFFFFFFFFFFFFFFFFFFFFFFFFF AND PUSH20 0xFFFFFFFFFFFFFFFFFFFFFFFFFFFFFFFFFFFFFFFF AND DUP2 MSTORE PUSH1 0x20 ADD SWAP1 DUP2 MSTORE PUSH1 0x20 ADD PUSH1 0x0 KECCAK256 PUSH1 0x1 ADD DUP6 PUSH1 0xFF AND PUSH1 0x5 DUP2 LT PUSH2 0xBCA JUMPI PUSH32 0x4E487B7100000000000000000000000000000000000000000000000000000000 PUSH1 0x0 MSTORE PUSH1 0x32 PUSH1 0x4 MSTORE PUSH1 0x24 PUSH1 0x0 REVERT JUMPDEST ADD PUSH1 0x0 PUSH1 0x3 DUP2 LT PUSH2 0xC04 JUMPI PUSH32 0x4E487B7100000000000000000000000000000000000000000000000000000000 PUSH1 0x0 MSTORE PUSH1 0x32 PUSH1 0x4 MSTORE PUSH1 0x24 PUSH1 0x0 REVERT JUMPDEST PUSH1 0x20 SWAP2 DUP3 DUP3 DIV ADD SWAP2 SWAP1 MOD PUSH2 0x100 EXP DUP2 SLOAD DUP2 PUSH1 0xFF MUL NOT AND SWAP1 DUP4 ISZERO ISZERO MUL OR SWAP1 SSTORE POP DUP3 PUSH1 0x3 PUSH1 0x0 CALLER PUSH20 0xFFFFFFFFFFFFFFFFFFFFFFFFFFFFFFFFFFFFFFFF AND PUSH20 0xFFFFFFFFFFFFFFFFFFFFFFFFFFFFFFFFFFFFFFFF AND DUP2 MSTORE PUSH1 0x20 ADD SWAP1 DUP2 MSTORE PUSH1 0x20 ADD PUSH1 0x0 KECCAK256 PUSH1 0x6 ADD DUP6 PUSH1 0xFF AND PUSH1 0x5 DUP2 LT PUSH2 0xCA1 JUMPI PUSH32 0x4E487B7100000000000000000000000000000000000000000000000000000000 PUSH1 0x0 MSTORE PUSH1 0x32 PUSH1 0x4 MSTORE PUSH1 0x24 PUSH1 0x0 REVERT JUMPDEST ADD PUSH1 0x0 PUSH1 0x3 DUP2 LT PUSH2 0xCDB JUMPI PUSH32 0x4E487B7100000000000000000000000000000000000000000000000000000000 PUSH1 0x0 MSTORE PUSH1 0x32 PUSH1 0x4 MSTORE PUSH1 0x24 PUSH1 0x0 REVERT JUMPDEST PUSH1 0x20 SWAP2 DUP3 DUP3 DIV ADD SWAP2 SWAP1 MOD PUSH2 0x100 EXP DUP2 SLOAD DUP2 PUSH1 0xFF MUL NOT AND SWAP1 DUP4 PUSH1 0xFF AND MUL OR SWAP1 SSTORE POP PUSH1 0x0 DUP1 PUSH1 0x3 DUP2 LT PUSH2 0xD35 JUMPI PUSH32 0x4E487B7100000000000000000000000000000000000000000000000000000000 PUSH1 0x0 MSTORE PUSH1 0x32 PUSH1 0x4 MSTORE PUSH1 0x24 PUSH1 0x0 REVERT JUMPDEST PUSH1 0x20 SWAP2 DUP3 DUP3 DIV ADD SWAP2 SWAP1 MOD SWAP1 SLOAD SWAP1 PUSH2 0x100 EXP SWAP1 DIV PUSH1 0xFF AND PUSH1 0xFF AND PUSH1 0x4 DUP6 PUSH1 0xFF AND PUSH1 0x5 DUP2 LT PUSH2 0xD8B JUMPI PUSH32 0x4E487B7100000000000000000000000000000000000000000000000000000000 PUSH1 0x0 MSTORE PUSH1 0x32 PUSH1 0x4 MSTORE PUSH1 0x24 PUSH1 0x0 REVERT JUMPDEST ADD DUP5 PUSH1 0xFF AND DUP2 SLOAD DUP2 LT PUSH2 0xDC7 JUMPI PUSH32 0x4E487B7100000000000000000000000000000000000000000000000000000000 PUSH1 0x0 MSTORE PUSH1 0x32 PUSH1 0x4 MSTORE PUSH1 0x24 PUSH1 0x0 REVERT JUMPDEST SWAP1 PUSH1 0x0 MSTORE PUSH1 0x20 PUSH1 0x0 KECCAK256 SWAP1 PUSH1 0x2 MUL ADD PUSH1 0x1 ADD PUSH1 0x0 DUP3 DUP3 DUP3 SWAP1 SLOAD SWAP1 PUSH2 0x100 EXP SWAP1 DIV PUSH2 0xFFFF AND PUSH2 0xDF4 SWAP2 SWAP1 PUSH2 0x18DD JUMP JUMPDEST SWAP3 POP PUSH2 0x100 EXP DUP2 SLOAD DUP2 PUSH2 0xFFFF MUL NOT AND SWAP1 DUP4 PUSH2 0xFFFF AND MUL OR SWAP1 SSTORE POP PUSH1 0x1 PUSH1 0x3 PUSH1 0x0 CALLER PUSH20 0xFFFFFFFFFFFFFFFFFFFFFFFFFFFFFFFFFFFFFFFF AND PUSH20 0xFFFFFFFFFFFFFFFFFFFFFFFFFFFFFFFFFFFFFFFF AND DUP2 MSTORE PUSH1 0x20 ADD SWAP1 DUP2 MSTORE PUSH1 0x20 ADD PUSH1 0x0 KECCAK256 PUSH1 0x1 ADD DUP6 PUSH1 0xFF AND PUSH1 0x5 DUP2 LT PUSH2 0xE8D JUMPI PUSH32 0x4E487B7100000000000000000000000000000000000000000000000000000000 PUSH1 0x0 MSTORE PUSH1 0x32 PUSH1 0x4 MSTORE PUSH1 0x24 PUSH1 0x0 REVERT JUMPDEST ADD PUSH1 0x1 PUSH1 0x3 DUP2 LT PUSH2 0xEC7 JUMPI PUSH32 0x4E487B7100000000000000000000000000000000000000000000000000000000 PUSH1 0x0 MSTORE PUSH1 0x32 PUSH1 0x4 MSTORE PUSH1 0x24 PUSH1 0x0 REVERT JUMPDEST PUSH1 0x20 SWAP2 DUP3 DUP3 DIV ADD SWAP2 SWAP1 MOD PUSH2 0x100 EXP DUP2 SLOAD DUP2 PUSH1 0xFF MUL NOT AND SWAP1 DUP4 ISZERO ISZERO MUL OR SWAP1 SSTORE POP DUP2 PUSH1 0x3 PUSH1 0x0 CALLER PUSH20 0xFFFFFFFFFFFFFFFFFFFFFFFFFFFFFFFFFFFFFFFF AND PUSH20 0xFFFFFFFFFFFFFFFFFFFFFFFFFFFFFFFFFFFFFFFF AND DUP2 MSTORE PUSH1 0x20 ADD SWAP1 DUP2 MSTORE PUSH1 0x20 ADD PUSH1 0x0 KECCAK256 PUSH1 0x6 ADD DUP6 PUSH1 0xFF AND PUSH1 0x5 DUP2 LT PUSH2 0xF64 JUMPI PUSH32 0x4E487B7100000000000000000000000000000000000000000000000000000000 PUSH1 0x0 MSTORE PUSH1 0x32 PUSH1 0x4 MSTORE PUSH1 0x24 PUSH1 0x0 REVERT JUMPDEST ADD PUSH1 0x1 PUSH1 0x3 DUP2 LT PUSH2 0xF9E JUMPI PUSH32 0x4E487B7100000000000000000000000000000000000000000000000000000000 PUSH1 0x0 MSTORE PUSH1 0x32 PUSH1 0x4 MSTORE PUSH1 0x24 PUSH1 0x0 REVERT JUMPDEST PUSH1 0x20 SWAP2 DUP3 DUP3 DIV ADD SWAP2 SWAP1 MOD PUSH2 0x100 EXP DUP2 SLOAD DUP2 PUSH1 0xFF MUL NOT AND SWAP1 DUP4 PUSH1 0xFF AND MUL OR SWAP1 SSTORE POP PUSH1 0x0 PUSH1 0x1 PUSH1 0x3 DUP2 LT PUSH2 0xFF9 JUMPI PUSH32 0x4E487B7100000000000000000000000000000000000000000000000000000000 PUSH1 0x0 MSTORE PUSH1 0x32 PUSH1 0x4 MSTORE PUSH1 0x24 PUSH1 0x0 REVERT JUMPDEST PUSH1 0x20 SWAP2 DUP3 DUP3 DIV ADD SWAP2 SWAP1 MOD SWAP1 SLOAD SWAP1 PUSH2 0x100 EXP SWAP1 DIV PUSH1 0xFF AND PUSH1 0xFF AND PUSH1 0x4 DUP6 PUSH1 0xFF AND PUSH1 0x5 DUP2 LT PUSH2 0x104F JUMPI PUSH32 0x4E487B7100000000000000000000000000000000000000000000000000000000 PUSH1 0x0 MSTORE PUSH1 0x32 PUSH1 0x4 MSTORE PUSH1 0x24 PUSH1 0x0 REVERT JUMPDEST ADD DUP4 PUSH1 0xFF AND DUP2 SLOAD DUP2 LT PUSH2 0x108B JUMPI PUSH32 0x4E487B7100000000000000000000000000000000000000000000000000000000 PUSH1 0x0 MSTORE PUSH1 0x32 PUSH1 0x4 MSTORE PUSH1 0x24 PUSH1 0x0 REVERT JUMPDEST SWAP1 PUSH1 0x0 MSTORE PUSH1 0x20 PUSH1 0x0 KECCAK256 SWAP1 PUSH1 0x2 MUL ADD PUSH1 0x1 ADD PUSH1 0x0 DUP3 DUP3 DUP3 SWAP1 SLOAD SWAP1 PUSH2 0x100 EXP SWAP1 DIV PUSH2 0xFFFF AND PUSH2 0x10B8 SWAP2 SWAP1 PUSH2 0x18DD JUMP JUMPDEST SWAP3 POP PUSH2 0x100 EXP DUP2 SLOAD DUP2 PUSH2 0xFFFF MUL NOT AND SWAP1 DUP4 PUSH2 0xFFFF AND MUL OR SWAP1 SSTORE POP PUSH1 0x1 PUSH1 0x3 PUSH1 0x0 CALLER PUSH20 0xFFFFFFFFFFFFFFFFFFFFFFFFFFFFFFFFFFFFFFFF AND PUSH20 0xFFFFFFFFFFFFFFFFFFFFFFFFFFFFFFFFFFFFFFFF AND DUP2 MSTORE PUSH1 0x20 ADD SWAP1 DUP2 MSTORE PUSH1 0x20 ADD PUSH1 0x0 KECCAK256 PUSH1 0x1 ADD DUP6 PUSH1 0xFF AND PUSH1 0x5 DUP2 LT PUSH2 0x1151 JUMPI PUSH32 0x4E487B7100000000000000000000000000000000000000000000000000000000 PUSH1 0x0 MSTORE PUSH1 0x32 PUSH1 0x4 MSTORE PUSH1 0x24 PUSH1 0x0 REVERT JUMPDEST ADD PUSH1 0x2 PUSH1 0x3 DUP2 LT PUSH2 0x118B JUMPI PUSH32 0x4E487B7100000000000000000000000000000000000000000000000000000000 PUSH1 0x0 MSTORE PUSH1 0x32 PUSH1 0x4 MSTORE PUSH1 0x24 PUSH1 0x0 REVERT JUMPDEST PUSH1 0x20 SWAP2 DUP3 DUP3 DIV ADD SWAP2 SWAP1 MOD PUSH2 0x100 EXP DUP2 SLOAD DUP2 PUSH1 0xFF MUL NOT AND SWAP1 DUP4 ISZERO ISZERO MUL OR SWAP1 SSTORE POP DUP1 PUSH1 0x3 PUSH1 0x0 CALLER PUSH20 0xFFFFFFFFFFFFFFFFFFFFFFFFFFFFFFFFFFFFFFFF AND PUSH20 0xFFFFFFFFFFFFFFFFFFFFFFFFFFFFFFFFFFFFFFFF AND DUP2 MSTORE PUSH1 0x20 ADD SWAP1 DUP2 MSTORE PUSH1 0x20 ADD PUSH1 0x0 KECCAK256 PUSH1 0x6 ADD DUP6 PUSH1 0xFF AND PUSH1 0x5 DUP2 LT PUSH2 0x1228 JUMPI PUSH32 0x4E487B7100000000000000000000000000000000000000000000000000000000 PUSH1 0x0 MSTORE PUSH1 0x32 PUSH1 0x4 MSTORE PUSH1 0x24 PUSH1 0x0 REVERT JUMPDEST ADD PUSH1 0x2 PUSH1 0x3 DUP2 LT PUSH2 0x1262 JUMPI PUSH32 0x4E487B7100000000000000000000000000000000000000000000000000000000 PUSH1 0x0 MSTORE PUSH1 0x32 PUSH1 0x4 MSTORE PUSH1 0x24 PUSH1 0x0 REVERT JUMPDEST PUSH1 0x20 SWAP2 DUP3 DUP3 DIV ADD SWAP2 SWAP1 MOD PUSH2 0x100 EXP DUP2 SLOAD DUP2 PUSH1 0xFF MUL NOT AND SWAP1 DUP4 PUSH1 0xFF AND MUL OR SWAP1 SSTORE POP PUSH1 0x0 PUSH1 0x2 PUSH1 0x3 DUP2 LT PUSH2 0x12BD JUMPI PUSH32 0x4E487B7100000000000000000000000000000000000000000000000000000000 PUSH1 0x0 MSTORE PUSH1 0x32 PUSH1 0x4 MSTORE PUSH1 0x24 PUSH1 0x0 REVERT JUMPDEST PUSH1 0x20 SWAP2 DUP3 DUP3 DIV ADD SWAP2 SWAP1 MOD SWAP1 SLOAD SWAP1 PUSH2 0x100 EXP SWAP1 DIV PUSH1 0xFF AND PUSH1 0xFF AND PUSH1 0x4 DUP6 PUSH1 0xFF AND PUSH1 0x5 DUP2 LT PUSH2 0x1313 JUMPI PUSH32 0x4E487B7100000000000000000000000000000000000000000000000000000000 PUSH1 0x0 MSTORE PUSH1 0x32 PUSH1 0x4 MSTORE PUSH1 0x24 PUSH1 0x0 REVERT JUMPDEST ADD DUP3 PUSH1 0xFF AND DUP2 SLOAD DUP2 LT PUSH2 0x134F JUMPI PUSH32 0x4E487B7100000000000000000000000000000000000000000000000000000000 PUSH1 0x0 MSTORE PUSH1 0x32 PUSH1 0x4 MSTORE PUSH1 0x24 PUSH1 0x0 REVERT JUMPDEST SWAP1 PUSH1 0x0 MSTORE PUSH1 0x20 PUSH1 0x0 KECCAK256 SWAP1 PUSH1 0x2 MUL ADD PUSH1 0x1 ADD PUSH1 0x0 DUP3 DUP3 DUP3 SWAP1 SLOAD SWAP1 PUSH2 0x100 EXP SWAP1 DIV PUSH2 0xFFFF AND PUSH2 0x137C SWAP2 SWAP1 PUSH2 0x18DD JUMP JUMPDEST SWAP3 POP PUSH2 0x100 EXP DUP2 SLOAD DUP2 PUSH2 0xFFFF MUL NOT AND SWAP1 DUP4 PUSH2 0xFFFF AND MUL OR SWAP1 SSTORE POP POP POP POP POP JUMP JUMPDEST PUSH1 0x3 PUSH1 0x20 MSTORE DUP1 PUSH1 0x0 MSTORE PUSH1 0x40 PUSH1 0x0 KECCAK256 PUSH1 0x0 SWAP2 POP SWAP1 POP DUP1 PUSH1 0x0 ADD PUSH1 0x0 SWAP1 SLOAD SWAP1 PUSH2 0x100 EXP SWAP1 DIV PUSH1 0xFF AND SWAP1 POP DUP2 JUMP JUMPDEST PUSH1 0x40 MLOAD DUP1 PUSH1 0xA0 ADD PUSH1 0x40 MSTORE DUP1 PUSH1 0x5 SWAP1 JUMPDEST PUSH1 0x60 DUP2 MSTORE PUSH1 0x20 ADD SWAP1 PUSH1 0x1 SWAP1 SUB SWAP1 DUP2 PUSH2 0x13D6 JUMPI SWAP1 POP POP SWAP1 JUMP JUMPDEST PUSH1 0x40 MLOAD DUP1 PUSH1 0xA0 ADD PUSH1 0x40 MSTORE DUP1 PUSH1 0x5 SWAP1 PUSH1 0x20 DUP3 MUL DUP1 CALLDATASIZE DUP4 CALLDATACOPY DUP1 DUP3 ADD SWAP2 POP POP SWAP1 POP POP SWAP1 JUMP JUMPDEST PUSH1 0x0 DUP2 CALLDATALOAD SWAP1 POP PUSH2 0x141F DUP2 PUSH2 0x1BB8 JUMP JUMPDEST SWAP3 SWAP2 POP POP JUMP JUMPDEST PUSH1 0x0 DUP2 CALLDATALOAD SWAP1 POP PUSH2 0x1434 DUP2 PUSH2 0x1BCF JUMP JUMPDEST SWAP3 SWAP2 POP POP JUMP JUMPDEST PUSH1 0x0 DUP2 CALLDATALOAD SWAP1 POP PUSH2 0x1449 DUP2 PUSH2 0x1BE6 JUMP JUMPDEST SWAP3 SWAP2 POP POP JUMP JUMPDEST PUSH1 0x0 PUSH1 0x20 DUP3 DUP5 SUB SLT ISZERO PUSH2 0x1461 JUMPI PUSH1 0x0 DUP1 REVERT JUMPDEST PUSH1 0x0 PUSH2 0x146F DUP5 DUP3 DUP6 ADD PUSH2 0x1410 JUMP JUMPDEST SWAP2 POP POP SWAP3 SWAP2 POP POP JUMP JUMPDEST PUSH1 0x0 DUP1 PUSH1 0x40 DUP4 DUP6 SUB SLT ISZERO PUSH2 0x148B JUMPI PUSH1 0x0 DUP1 REVERT JUMPDEST PUSH1 0x0 PUSH2 0x1499 DUP6 DUP3 DUP7 ADD PUSH2 0x1425 JUMP JUMPDEST SWAP3 POP POP PUSH1 0x20 PUSH2 0x14AA DUP6 DUP3 DUP7 ADD PUSH2 0x1425 JUMP JUMPDEST SWAP2 POP POP SWAP3 POP SWAP3 SWAP1 POP JUMP JUMPDEST PUSH1 0x0 DUP1 PUSH1 0x0 DUP1 PUSH1 0x80 DUP6 DUP8 SUB SLT ISZERO PUSH2 0x14CA JUMPI PUSH1 0x0 DUP1 REVERT JUMPDEST PUSH1 0x0 PUSH2 0x14D8 DUP8 DUP3 DUP9 ADD PUSH2 0x143A JUMP JUMPDEST SWAP5 POP POP PUSH1 0x20 PUSH2 0x14E9 DUP8 DUP3 DUP9 ADD PUSH2 0x143A JUMP JUMPDEST SWAP4 POP POP PUSH1 0x40 PUSH2 0x14FA DUP8 DUP3 DUP9 ADD PUSH2 0x143A JUMP JUMPDEST SWAP3 POP POP PUSH1 0x60 PUSH2 0x150B DUP8 DUP3 DUP9 ADD PUSH2 0x143A JUMP JUMPDEST SWAP2 POP POP SWAP3 SWAP6 SWAP2 SWAP5 POP SWAP3 POP JUMP JUMPDEST PUSH1 0x0 PUSH2 0x1523 DUP4 DUP4 PUSH2 0x15BE JUMP JUMPDEST SWAP1 POP SWAP3 SWAP2 POP POP JUMP JUMPDEST PUSH2 0x1534 DUP2 PUSH2 0x1915 JUMP JUMPDEST DUP3 MSTORE POP POP JUMP JUMPDEST PUSH1 0x0 PUSH2 0x1545 DUP3 PUSH2 0x188D JUMP JUMPDEST PUSH2 0x154F DUP2 DUP6 PUSH2 0x18B0 JUMP JUMPDEST SWAP4 POP DUP4 PUSH1 0x20 DUP3 MUL DUP6 ADD PUSH2 0x1561 DUP6 PUSH2 0x1883 JUMP JUMPDEST DUP1 PUSH1 0x0 JUMPDEST DUP6 DUP2 LT ISZERO PUSH2 0x159D JUMPI DUP5 DUP5 SUB DUP10 MSTORE DUP2 MLOAD PUSH2 0x157E DUP6 DUP3 PUSH2 0x1517 JUMP JUMPDEST SWAP5 POP PUSH2 0x1589 DUP4 PUSH2 0x18A3 JUMP JUMPDEST SWAP3 POP PUSH1 0x20 DUP11 ADD SWAP10 POP POP PUSH1 0x1 DUP2 ADD SWAP1 POP PUSH2 0x1565 JUMP JUMPDEST POP DUP3 SWAP8 POP DUP8 SWAP6 POP POP POP POP POP POP SWAP3 SWAP2 POP POP JUMP JUMPDEST PUSH2 0x15B8 DUP2 PUSH2 0x1927 JUMP JUMPDEST DUP3 MSTORE POP POP JUMP JUMPDEST PUSH1 0x0 PUSH2 0x15C9 DUP3 PUSH2 0x1898 JUMP JUMPDEST PUSH2 0x15D3 DUP2 DUP6 PUSH2 0x18BB JUMP JUMPDEST SWAP4 POP PUSH2 0x15E3 DUP2 DUP6 PUSH1 0x20 DUP7 ADD PUSH2 0x1978 JUMP JUMPDEST PUSH2 0x15EC DUP2 PUSH2 0x1A65 JUMP JUMPDEST DUP5 ADD SWAP2 POP POP SWAP3 SWAP2 POP POP JUMP JUMPDEST PUSH1 0x0 PUSH2 0x1602 DUP3 PUSH2 0x1898 JUMP JUMPDEST PUSH2 0x160C DUP2 DUP6 PUSH2 0x18CC JUMP JUMPDEST SWAP4 POP PUSH2 0x161C DUP2 DUP6 PUSH1 0x20 DUP7 ADD PUSH2 0x1978 JUMP JUMPDEST PUSH2 0x1625 DUP2 PUSH2 0x1A65 JUMP JUMPDEST DUP5 ADD SWAP2 POP POP SWAP3 SWAP2 POP POP JUMP JUMPDEST PUSH1 0x0 PUSH2 0x163D PUSH1 0x29 DUP4 PUSH2 0x18CC JUMP JUMPDEST SWAP2 POP PUSH2 0x1648 DUP3 PUSH2 0x1A76 JUMP JUMPDEST PUSH1 0x40 DUP3 ADD SWAP1 POP SWAP2 SWAP1 POP JUMP JUMPDEST PUSH1 0x0 PUSH2 0x1660 PUSH1 0x20 DUP4 PUSH2 0x18CC JUMP JUMPDEST SWAP2 POP PUSH2 0x166B DUP3 PUSH2 0x1AC5 JUMP JUMPDEST PUSH1 0x20 DUP3 ADD SWAP1 POP SWAP2 SWAP1 POP JUMP JUMPDEST PUSH1 0x0 PUSH2 0x1683 PUSH1 0x31 DUP4 PUSH2 0x18CC JUMP JUMPDEST SWAP2 POP PUSH2 0x168E DUP3 PUSH2 0x1AEE JUMP JUMPDEST PUSH1 0x40 DUP3 ADD SWAP1 POP SWAP2 SWAP1 POP JUMP JUMPDEST PUSH1 0x0 PUSH2 0x16A6 PUSH1 0x13 DUP4 PUSH2 0x18CC JUMP JUMPDEST SWAP2 POP PUSH2 0x16B1 DUP3 PUSH2 0x1B3D JUMP JUMPDEST PUSH1 0x20 DUP3 ADD SWAP1 POP SWAP2 SWAP1 POP JUMP JUMPDEST PUSH1 0x0 PUSH2 0x16C9 PUSH1 0x1C DUP4 PUSH2 0x18CC JUMP JUMPDEST SWAP2 POP PUSH2 0x16D4 DUP3 PUSH2 0x1B66 JUMP JUMPDEST PUSH1 0x20 DUP3 ADD SWAP1 POP SWAP2 SWAP1 POP JUMP JUMPDEST PUSH1 0x0 PUSH2 0x16EC PUSH1 0x19 DUP4 PUSH2 0x18CC JUMP JUMPDEST SWAP2 POP PUSH2 0x16F7 DUP3 PUSH2 0x1B8F JUMP JUMPDEST PUSH1 0x20 DUP3 ADD SWAP1 POP SWAP2 SWAP1 POP JUMP JUMPDEST PUSH2 0x170B DUP2 PUSH2 0x1933 JUMP JUMPDEST DUP3 MSTORE POP POP JUMP JUMPDEST PUSH2 0x171A DUP2 PUSH2 0x1961 JUMP JUMPDEST DUP3 MSTORE POP POP JUMP JUMPDEST PUSH1 0x0 PUSH1 0x20 DUP3 ADD SWAP1 POP PUSH2 0x1735 PUSH1 0x0 DUP4 ADD DUP5 PUSH2 0x152B JUMP JUMPDEST SWAP3 SWAP2 POP POP JUMP JUMPDEST PUSH1 0x0 PUSH1 0x20 DUP3 ADD SWAP1 POP DUP2 DUP2 SUB PUSH1 0x0 DUP4 ADD MSTORE PUSH2 0x1755 DUP2 DUP5 PUSH2 0x153A JUMP JUMPDEST SWAP1 POP SWAP3 SWAP2 POP POP JUMP JUMPDEST PUSH1 0x0 PUSH1 0x20 DUP3 ADD SWAP1 POP PUSH2 0x1772 PUSH1 0x0 DUP4 ADD DUP5 PUSH2 0x15AF JUMP JUMPDEST SWAP3 SWAP2 POP POP JUMP JUMPDEST PUSH1 0x0 PUSH1 0x40 DUP3 ADD SWAP1 POP DUP2 DUP2 SUB PUSH1 0x0 DUP4 ADD MSTORE PUSH2 0x1792 DUP2 DUP6 PUSH2 0x15F7 JUMP JUMPDEST SWAP1 POP PUSH2 0x17A1 PUSH1 0x20 DUP4 ADD DUP5 PUSH2 0x1702 JUMP JUMPDEST SWAP4 SWAP3 POP POP POP JUMP JUMPDEST PUSH1 0x0 PUSH1 0x20 DUP3 ADD SWAP1 POP DUP2 DUP2 SUB PUSH1 0x0 DUP4 ADD MSTORE PUSH2 0x17C1 DUP2 PUSH2 0x1630 JUMP JUMPDEST SWAP1 POP SWAP2 SWAP1 POP JUMP JUMPDEST PUSH1 0x0 PUSH1 0x20 DUP3 ADD SWAP1 POP DUP2 DUP2 SUB PUSH1 0x0 DUP4 ADD MSTORE PUSH2 0x17E1 DUP2 PUSH2 0x1653 JUMP JUMPDEST SWAP1 POP SWAP2 SWAP1 POP JUMP JUMPDEST PUSH1 0x0 PUSH1 0x20 DUP3 ADD SWAP1 POP DUP2 DUP2 SUB PUSH1 0x0 DUP4 ADD MSTORE PUSH2 0x1801 DUP2 PUSH2 0x1676 JUMP JUMPDEST SWAP1 POP SWAP2 SWAP1 POP JUMP JUMPDEST PUSH1 0x0 PUSH1 0x20 DUP3 ADD SWAP1 POP DUP2 DUP2 SUB PUSH1 0x0 DUP4 ADD MSTORE PUSH2 0x1821 DUP2 PUSH2 0x1699 JUMP JUMPDEST SWAP1 POP SWAP2 SWAP1 POP JUMP JUMPDEST PUSH1 0x0 PUSH1 0x20 DUP3 ADD SWAP1 POP DUP2 DUP2 SUB PUSH1 0x0 DUP4 ADD MSTORE PUSH2 0x1841 DUP2 PUSH2 0x16BC JUMP JUMPDEST SWAP1 POP SWAP2 SWAP1 POP JUMP JUMPDEST PUSH1 0x0 PUSH1 0x20 DUP3 ADD SWAP1 POP DUP2 DUP2 SUB PUSH1 0x0 DUP4 ADD MSTORE PUSH2 0x1861 DUP2 PUSH2 0x16DF JUMP JUMPDEST SWAP1 POP SWAP2 SWAP1 POP JUMP JUMPDEST PUSH1 0x0 PUSH1 0x20 DUP3 ADD SWAP1 POP PUSH2 0x187D PUSH1 0x0 DUP4 ADD DUP5 PUSH2 0x1711 JUMP JUMPDEST SWAP3 SWAP2 POP POP JUMP JUMPDEST PUSH1 0x0 DUP2 SWAP1 POP SWAP2 SWAP1 POP JUMP JUMPDEST PUSH1 0x0 PUSH1 0x5 SWAP1 POP SWAP2 SWAP1 POP JUMP JUMPDEST PUSH1 0x0 DUP2 MLOAD SWAP1 POP SWAP2 SWAP1 POP JUMP JUMPDEST PUSH1 0x0 PUSH1 0x20 DUP3 ADD SWAP1 POP SWAP2 SWAP1 POP JUMP JUMPDEST PUSH1 0x0 DUP2 SWAP1 POP SWAP3 SWAP2 POP POP JUMP JUMPDEST PUSH1 0x0 DUP3 DUP3 MSTORE PUSH1 0x20 DUP3 ADD SWAP1 POP SWAP3 SWAP2 POP POP JUMP JUMPDEST PUSH1 0x0 DUP3 DUP3 MSTORE PUSH1 0x20 DUP3 ADD SWAP1 POP SWAP3 SWAP2 POP POP JUMP JUMPDEST PUSH1 0x0 PUSH2 0x18E8 DUP3 PUSH2 0x1933 JUMP JUMPDEST SWAP2 POP PUSH2 0x18F3 DUP4 PUSH2 0x1933 JUMP JUMPDEST SWAP3 POP DUP3 PUSH2 0xFFFF SUB DUP3 GT ISZERO PUSH2 0x190A JUMPI PUSH2 0x1909 PUSH2 0x1A07 JUMP JUMPDEST JUMPDEST DUP3 DUP3 ADD SWAP1 POP SWAP3 SWAP2 POP POP JUMP JUMPDEST PUSH1 0x0 PUSH2 0x1920 DUP3 PUSH2 0x1941 JUMP JUMPDEST SWAP1 POP SWAP2 SWAP1 POP JUMP JUMPDEST PUSH1 0x0 DUP2 ISZERO ISZERO SWAP1 POP SWAP2 SWAP1 POP JUMP JUMPDEST PUSH1 0x0 PUSH2 0xFFFF DUP3 AND SWAP1 POP SWAP2 SWAP1 POP JUMP JUMPDEST PUSH1 0x0 PUSH20 0xFFFFFFFFFFFFFFFFFFFFFFFFFFFFFFFFFFFFFFFF DUP3 AND SWAP1 POP SWAP2 SWAP1 POP JUMP JUMPDEST PUSH1 0x0 DUP2 SWAP1 POP SWAP2 SWAP1 POP JUMP JUMPDEST PUSH1 0x0 PUSH1 0xFF DUP3 AND SWAP1 POP SWAP2 SWAP1 POP JUMP JUMPDEST PUSH1 0x0 JUMPDEST DUP4 DUP2 LT ISZERO PUSH2 0x1996 JUMPI DUP1 DUP3 ADD MLOAD DUP2 DUP5 ADD MSTORE PUSH1 0x20 DUP2 ADD SWAP1 POP PUSH2 0x197B JUMP JUMPDEST DUP4 DUP2 GT ISZERO PUSH2 0x19A5 JUMPI PUSH1 0x0 DUP5 DUP5 ADD MSTORE JUMPDEST POP POP POP POP JUMP JUMPDEST PUSH1 0x0 PUSH1 0x2 DUP3 DIV SWAP1 POP PUSH1 0x1 DUP3 AND DUP1 PUSH2 0x19C3 JUMPI PUSH1 0x7F DUP3 AND SWAP2 POP JUMPDEST PUSH1 0x20 DUP3 LT DUP2 EQ ISZERO PUSH2 0x19D7 JUMPI PUSH2 0x19D6 PUSH2 0x1A36 JUMP JUMPDEST JUMPDEST POP SWAP2 SWAP1 POP JUMP JUMPDEST PUSH1 0x0 PUSH2 0x19E8 DUP3 PUSH2 0x196B JUMP JUMPDEST SWAP2 POP PUSH1 0xFF DUP3 EQ ISZERO PUSH2 0x19FC JUMPI PUSH2 0x19FB PUSH2 0x1A07 JUMP JUMPDEST JUMPDEST PUSH1 0x1 DUP3 ADD SWAP1 POP SWAP2 SWAP1 POP JUMP JUMPDEST PUSH32 0x4E487B7100000000000000000000000000000000000000000000000000000000 PUSH1 0x0 MSTORE PUSH1 0x11 PUSH1 0x4 MSTORE PUSH1 0x24 PUSH1 0x0 REVERT JUMPDEST PUSH32 0x4E487B7100000000000000000000000000000000000000000000000000000000 PUSH1 0x0 MSTORE PUSH1 0x22 PUSH1 0x4 MSTORE PUSH1 0x24 PUSH1 0x0 REVERT JUMPDEST PUSH1 0x0 PUSH1 0x1F NOT PUSH1 0x1F DUP4 ADD AND SWAP1 POP SWAP2 SWAP1 POP JUMP JUMPDEST PUSH32 0x596F75206861766520616C726561647920766F74656420666F72207468697320 PUSH1 0x0 DUP3 ADD MSTORE PUSH32 0x706F736974696F6E2E0000000000000000000000000000000000000000000000 PUSH1 0x20 DUP3 ADD MSTORE POP JUMP JUMPDEST PUSH32 0x4F6E6C79207265676973746572656420766F746572732063616E20766F74652E PUSH1 0x0 DUP3 ADD MSTORE POP JUMP JUMPDEST PUSH32 0x4F6E6C792074686520656C656374696F6E206C65616465722063616E20677261 PUSH1 0x0 DUP3 ADD MSTORE PUSH32 0x6E7420766F74696E67207269676874732E000000000000000000000000000000 PUSH1 0x20 DUP3 ADD MSTORE POP JUMP JUMPDEST PUSH32 0x456C656374696F6E2068617320656E6465642E00000000000000000000000000 PUSH1 0x0 DUP3 ADD MSTORE POP JUMP JUMPDEST PUSH32 0x566F74657220697320616C726561647920726567697374657265642E00000000 PUSH1 0x0 DUP3 ADD MSTORE POP JUMP JUMPDEST PUSH32 0x43616E64696461746520646F6573206E6F742065786973742E00000000000000 PUSH1 0x0 DUP3 ADD MSTORE POP JUMP JUMPDEST PUSH2 0x1BC1 DUP2 PUSH2 0x1915 JUMP JUMPDEST DUP2 EQ PUSH2 0x1BCC JUMPI PUSH1 0x0 DUP1 REVERT JUMPDEST POP JUMP JUMPDEST PUSH2 0x1BD8 DUP2 PUSH2 0x1961 JUMP JUMPDEST DUP2 EQ PUSH2 0x1BE3 JUMPI PUSH1 0x0 DUP1 REVERT JUMPDEST POP JUMP JUMPDEST PUSH2 0x1BEF DUP2 PUSH2 0x196B JUMP JUMPDEST DUP2 EQ PUSH2 0x1BFA JUMPI PUSH1 0x0 DUP1 REVERT JUMPDEST POP JUMP INVALID LOG2 PUSH5 0x6970667358 0x22 SLT KECCAK256 PUSH6 0xF21DD77431FA DUP2 RETURNDATASIZE 0xE5 CALLDATASIZE 0xA6 SWAP5 0xEE PUSH26 0x15A8E643585BEC3A7343E35F0DA9DF3C9064736F6C6343000804 STOP CALLER "},"methodIdentifiers":{"candidates(uint256,uint256)":"7de14242","castVote(uint8,uint8,uint8,uint8)":"85c56e19","endTime()":"3197cbb6","leader()":"40eedabb","registerVoter(address)":"38db6dd3","voters(address)":"a3ec138d","winningCandidatesName()":"510d9645"}}}}}