{"contracts/Election.sol":{"Election":{"abi":[{"inputs":[{"internalType":"string[][5]","name":"_candidateNames","type":"string[][5]"},{"internalType":"uint256","name":"_endTime","type":"uint256"}],"stateMutability":"nonpayable","type":"constructor"},{"inputs":[{"internalType":"uint256","name":"","type":"uint256"},{"internalType":"uint256","name":"","type":"uint256"}],"name":"candidates","outputs":[{"internalType":"string","name":"name","type":"string"},{"internalType":"uint16","name":"votes","type":"uint16"}],"stateMutability":"view","type":"function"},{"inputs":[{"internalType":"uint8","name":"position","type":"uint8"},{"internalType":"uint8","name":"preference1","type":"uint8"},{"internalType":"uint8","name":"preference2","type":"uint8"},{"internalType":"uint8","name":"preference3","type":"uint8"}],"name":"castVote","outputs":[],"stateMutability":"nonpayable","type":"function"},{"inputs":[],"name":"endTime","outputs":[{"internalType":"uint256","name":"","type":"uint256"}],"stateMutability":"view","type":"function"},{"inputs":[],"name":"leader","outputs":[{"internalType":"address","name":"","type":"address"}],"stateMutability":"view","type":"function"},{"inputs":[{"internalType":"address","name":"voter","type":"address"}],"name":"registerVoter","outputs":[],"stateMutability":"nonpayable","type":"function"},{"inputs":[{"internalType":"address","name":"","type":"address"}],"name":"voters","outputs":[{"internalType":"bool","name":"registered","type":"bool"}],"stateMutability":"view","type":"function"},{"inputs":[],"name":"winningCandidatesName","outputs":[{"internalType":"string[5]","name":"winnersName_","type":"string[5]"}],"stateMutability":"view","type":"function"}],"evm":{"bytecode":{"linkReferences":{},"object":"60806040526040518060600160405280600560ff168152602001600360ff168152602001600160ff1681525060009060036200003d929190620004e8565b503480156200004b57600080fd5b5060405162002c5f38038062002c5f833981810160405281019062000071919062000830565b6200008d67fd4907c404d4f1c560c01b620004e560201b60201c565b620000a967954864630132028860c01b620004e560201b60201c565b620000c5673c6266ba82d8a9e460c01b620004e560201b60201c565b620000e1671a5f0ccd7f01c96760c01b620004e560201b60201c565b80421062000126576040517f08c379a00000000000000000000000000000000000000000000000000000000081526004016200011d90620008b1565b60405180910390fd5b62000142676ee9a4fac53e46d960c01b620004e560201b60201c565b6200015e672578affc1810140f60c01b620004e560201b60201c565b33600260006101000a81548173ffffffffffffffffffffffffffffffffffffffff021916908373ffffffffffffffffffffffffffffffffffffffff160217905550620001bb6744a3fb09bec4c63860c01b620004e560201b60201c565b600160036000600260009054906101000a900473ffffffffffffffffffffffffffffffffffffffff1673ffffffffffffffffffffffffffffffffffffffff1673ffffffffffffffffffffffffffffffffffffffff16815260200190815260200160002060000160006101000a81548160ff0219169083151502179055506200025467f5718717f99625e160c01b620004e560201b60201c565b6200027067219a87491c73bf9060c01b620004e560201b60201c565b60005b60058160ff161015620004b9576200029c67cb274db2c2686b6660c01b620004e560201b60201c565b620002b867c2ca3c32b3b918c960c01b620004e560201b60201c565b60005b838260ff1660058110620002f8577f4e487b7100000000000000000000000000000000000000000000000000000000600052603260045260246000fd5b6020020151518160ff161015620004a257620003256782906fec2d48e92460c01b620004e560201b60201c565b62000341678f61b03f6edb03e460c01b620004e560201b60201c565b60048260ff16600581106200037f577f4e487b7100000000000000000000000000000000000000000000000000000000600052603260045260246000fd5b016040518060400160405280868560ff1660058110620003c8577f4e487b7100000000000000000000000000000000000000000000000000000000600052603260045260246000fd5b60200201518460ff168151811062000409577f4e487b7100000000000000000000000000000000000000000000000000000000600052603260045260246000fd5b60200260200101518152602001600061ffff16815250908060018154018082558091505060019003906000526020600020906002020160009091909190915060008201518160000190805190602001906200046692919062000589565b5060208201518160010160006101000a81548161ffff021916908361ffff16021790555050508080620004999062000a54565b915050620002bb565b508080620004b09062000a54565b91505062000273565b50620004d6673235bd9ae1beb36860c01b620004e560201b60201c565b80600181905550505062000b64565b50565b826003601f01602090048101928215620005765791602002820160005b838211156200054557835183826101000a81548160ff021916908360ff160217905550926020019260010160208160000104928301926001030262000505565b8015620005745782816101000a81549060ff021916905560010160208160000104928301926001030262000545565b505b5090506200058591906200061a565b5090565b8280546200059790620009e8565b90600052602060002090601f016020900481019282620005bb576000855562000607565b82601f10620005d657805160ff191683800117855562000607565b8280016001018555821562000607579182015b8281111562000606578251825591602001919060010190620005e9565b5b5090506200061691906200061a565b5090565b5b80821115620006355760008160009055506001016200061b565b5090565b6000620006506200064a84620008fc565b620008d3565b905080828560208602820111156200066757600080fd5b60005b85811015620006b657815167ffffffffffffffff8111156200068b57600080fd5b8086016200069a8982620007bf565b855260208501945060208401935050506001810190506200066a565b5050509392505050565b6000620006d7620006d18462000925565b620008d3565b90508083825260208201905082856020860282011115620006f757600080fd5b60005b858110156200074657815167ffffffffffffffff8111156200071b57600080fd5b8086016200072a8982620007ec565b85526020850194506020840193505050600181019050620006fa565b5050509392505050565b600062000767620007618462000954565b620008d3565b9050828152602081018484840111156200078057600080fd5b6200078d848285620009b2565b509392505050565b600082601f830112620007a757600080fd5b6005620007b684828562000639565b91505092915050565b600082601f830112620007d157600080fd5b8151620007e3848260208601620006c0565b91505092915050565b600082601f830112620007fe57600080fd5b81516200081084826020860162000750565b91505092915050565b6000815190506200082a8162000b4a565b92915050565b600080604083850312156200084457600080fd5b600083015167ffffffffffffffff8111156200085f57600080fd5b6200086d8582860162000795565b9250506020620008808582860162000819565b9150509250929050565b600062000899601f836200098a565b9150620008a68262000b21565b602082019050919050565b60006020820190508181036000830152620008cc816200088a565b9050919050565b6000620008df620008f2565b9050620008ed828262000a1e565b919050565b6000604051905090565b600067ffffffffffffffff8211156200091a576200091962000ae1565b5b602082029050919050565b600067ffffffffffffffff82111562000943576200094262000ae1565b5b602082029050602081019050919050565b600067ffffffffffffffff82111562000972576200097162000ae1565b5b6200097d8262000b10565b9050602081019050919050565b600082825260208201905092915050565b6000819050919050565b600060ff82169050919050565b60005b83811015620009d2578082015181840152602081019050620009b5565b83811115620009e2576000848401525b50505050565b6000600282049050600182168062000a0157607f821691505b6020821081141562000a185762000a1762000ab2565b5b50919050565b62000a298262000b10565b810181811067ffffffffffffffff8211171562000a4b5762000a4a62000ae1565b5b80604052505050565b600062000a6182620009a5565b915060ff82141562000a785762000a7762000a83565b5b600182019050919050565b7f4e487b7100000000000000000000000000000000000000000000000000000000600052601160045260246000fd5b7f4e487b7100000000000000000000000000000000000000000000000000000000600052602260045260246000fd5b7f4e487b7100000000000000000000000000000000000000000000000000000000600052604160045260246000fd5b6000601f19601f8301169050919050565b7f456e642074696d65206d75737420626520696e20746865206675747572652e00600082015250565b62000b55816200099b565b811462000b6157600080fd5b50565b6120eb8062000b746000396000f3fe608060405234801561001057600080fd5b506004361061007d5760003560e01c8063510d96451161005b578063510d9645146100da5780637de14242146100f857806385c56e1914610129578063a3ec138d146101455761007d565b80633197cbb61461008257806338db6dd3146100a057806340eedabb146100bc575b600080fd5b61008a610175565b6040516100979190611d20565b60405180910390f35b6100ba60048036038101906100b59190611907565b61017b565b005b6100c4610455565b6040516100d19190611bd8565b60405180910390f35b6100e261047b565b6040516100ef9190611bf3565b60405180910390f35b610112600480360381019061010d9190611930565b610a1a565b604051610120929190611c30565b60405180910390f35b610143600480360381019061013e919061196c565b610af4565b005b61015f600480360381019061015a9190611907565b611851565b60405161016c9190611c15565b60405180910390f35b60015481565b61018f67fa19f84e1240387f60c01b61187c565b6101a3672704d13dda98da2760c01b61187c565b6101b76721bb797fa43df4ed60c01b61187c565b6101cb67f6d9df42e33dedc060c01b61187c565b600154421061020f576040517f08c379a000000000000000000000000000000000000000000000000000000000815260040161020690611cc0565b60405180910390fd5b610223673237accca4a327d960c01b61187c565b6102376790fa82b3e3b1114960c01b61187c565b61024b67b228a351027182b160c01b61187c565b61025f6797b1026edd33b3e960c01b61187c565b600260009054906101000a900473ffffffffffffffffffffffffffffffffffffffff1673ffffffffffffffffffffffffffffffffffffffff163373ffffffffffffffffffffffffffffffffffffffff16146102ef576040517f08c379a00000000000000000000000000000000000000000000000000000000081526004016102e690611ca0565b60405180910390fd5b61030367a57702b1f5d254c060c01b61187c565b61031767c5c1f8a485486fd860c01b61187c565b61032b670b1b09903108087160c01b61187c565b61033f67193739134d88227060c01b61187c565b600360008273ffffffffffffffffffffffffffffffffffffffff1673ffffffffffffffffffffffffffffffffffffffff16815260200190815260200160002060000160009054906101000a900460ff16156103cf576040517f08c379a00000000000000000000000000000000000000000000000000000000081526004016103c690611ce0565b60405180910390fd5b6103e3673315a393eefa054860c01b61187c565b6103f76766610206c59e923e60c01b61187c565b6001600360008373ffffffffffffffffffffffffffffffffffffffff1673ffffffffffffffffffffffffffffffffffffffff16815260200190815260200160002060000160006101000a81548160ff02191690831515021790555050565b600260009054906101000a900473ffffffffffffffffffffffffffffffffffffffff1681565b61048361187f565b61049767eeb210e5958fe33260c01b61187c565b6104ab670b151b2c6a5e5cbf60c01b61187c565b6104bf6742edae9546ac438760c01b61187c565b6104c76118a6565b6104db67d14848bd56c6b5c160c01b61187c565b6104ef6758c190fa2731334660c01b61187c565b60005b60058160ff1610156107f7576105126769dbe7b3d2dc39cb60c01b61187c565b610526670fd1054a1434403e60c01b61187c565b60007fffffffffffffffffffffffffffffffffffffffffffffffffffffffffffffffff905061055f67481d8e75537776bd60c01b61187c565b61057367cf20813ff54177e660c01b61187c565b60005b60048360ff16600581106105b3577f4e487b7100000000000000000000000000000000000000000000000000000000600052603260045260246000fd5b01805490508160ff1610156107e2576105d6675bf18aebb13350dd60c01b61187c565b6105ea673f687476bc0c539860c01b61187c565b8160010b60048460ff166005811061062b577f4e487b7100000000000000000000000000000000000000000000000000000000600052603260045260246000fd5b018260ff1681548110610667577f4e487b7100000000000000000000000000000000000000000000000000000000600052603260045260246000fd5b906000526020600020906002020160010160009054906101000a900461ffff1660010b13156107ba576106a4672748b61c41a6bb0e60c01b61187c565b6106b86781044c6a1a84a03b60c01b61187c565b60048360ff16600581106106f5577f4e487b7100000000000000000000000000000000000000000000000000000000600052603260045260246000fd5b018160ff1681548110610731577f4e487b7100000000000000000000000000000000000000000000000000000000600052603260045260246000fd5b906000526020600020906002020160010160009054906101000a900461ffff1691506107676741452c49e7d9ecec60c01b61187c565b80848460ff16600581106107a4577f4e487b7100000000000000000000000000000000000000000000000000000000600052603260045260246000fd5b602002019060ff16908160ff16815250506107cf565b6107ce670b58d1aa78014fc660c01b61187c565b5b80806107da90611e95565b915050610576565b505080806107ef90611e95565b9150506104f2565b5061080c6726a7879137738e1c60c01b61187c565b61082067341c83b8477deb9f60c01b61187c565b60005b60058160ff1610156109ed5761084367809c01fb1922dddc60c01b61187c565b60048160ff1660058110610880577f4e487b7100000000000000000000000000000000000000000000000000000000600052603260045260246000fd5b01828260ff16600581106108bd577f4e487b7100000000000000000000000000000000000000000000000000000000600052603260045260246000fd5b602002015160ff16815481106108fc577f4e487b7100000000000000000000000000000000000000000000000000000000600052603260045260246000fd5b9060005260206000209060020201600001805461091890611e63565b80601f016020809104026020016040519081016040528092919081815260200182805461094490611e63565b80156109915780601f1061096657610100808354040283529160200191610991565b820191906000526020600020905b81548152906001019060200180831161097457829003601f168201915b5050505050838260ff16600581106109d2577f4e487b7100000000000000000000000000000000000000000000000000000000600052603260045260246000fd5b602002018190525080806109e590611e95565b915050610823565b50610a0267357c8026e3b506b960c01b61187c565b610a166753bc4956ff52870160c01b61187c565b5090565b60048260058110610a2a57600080fd5b018181548110610a3957600080fd5b906000526020600020906002020160009150915050806000018054610a5d90611e63565b80601f0160208091040260200160405190810160405280929190818152602001828054610a8990611e63565b8015610ad65780601f10610aab57610100808354040283529160200191610ad6565b820191906000526020600020905b815481529060010190602001808311610ab957829003601f168201915b5050505050908060010160009054906101000a900461ffff16905082565b610b08672b1063ed3337a6da60c01b61187c565b610b1c67d4a0a67f908d7bb060c01b61187c565b610b3067195a66fe0eb8744e60c01b61187c565b610b4467329e1c9610aa282160c01b61187c565b6001544210610b88576040517f08c379a0000000000000000000000000000000000000000000000000000000008152600401610b7f90611cc0565b60405180910390fd5b610b9c6744773aaf3adf2d4560c01b61187c565b610bb067bc0b82b273c8625260c01b61187c565b610bc4679d5f8be5aaca4b9760c01b61187c565b610bd867ddbfb81f88cea8ec60c01b61187c565b600360003373ffffffffffffffffffffffffffffffffffffffff1673ffffffffffffffffffffffffffffffffffffffff16815260200190815260200160002060000160009054906101000a900460ff16610c67576040517f08c379a0000000000000000000000000000000000000000000000000000000008152600401610c5e90611c80565b60405180910390fd5b610c7b674c8edcdaf79be0ff60c01b61187c565b610c8f6721702a3d712cd41760c01b61187c565b610ca3676a8841abc3901a9960c01b61187c565b610cb767d322a2538368197460c01b61187c565b600360003373ffffffffffffffffffffffffffffffffffffffff1673ffffffffffffffffffffffffffffffffffffffff1681526020019081526020016000206001018460ff1660058110610d34577f4e487b7100000000000000000000000000000000000000000000000000000000600052603260045260246000fd5b01600060038110610d6e577f4e487b7100000000000000000000000000000000000000000000000000000000600052603260045260246000fd5b602091828204019190069054906101000a900460ff1615610dc4576040517f08c379a0000000000000000000000000000000000000000000000000000000008152600401610dbb90611c60565b60405180910390fd5b610dd86718a4672567ef66e660c01b61187c565b610dec6762fe2719093500ae60c01b61187c565b610e0067c1aa1ab66ee81c9760c01b61187c565b610e1467d5a5dee2b2a5b86260c01b61187c565b60048460ff1660058110610e51577f4e487b7100000000000000000000000000000000000000000000000000000000600052603260045260246000fd5b01805490508360ff16108015610eaa575060048460ff1660058110610e9f577f4e487b7100000000000000000000000000000000000000000000000000000000600052603260045260246000fd5b01805490508260ff16105b8015610ef9575060048460ff1660058110610eee577f4e487b7100000000000000000000000000000000000000000000000000000000600052603260045260246000fd5b01805490508160ff16105b610f38576040517f08c379a0000000000000000000000000000000000000000000000000000000008152600401610f2f90611d00565b60405180910390fd5b610f4c6784df2f660c94e83860c01b61187c565b610f60678fbf5d11e58f2f4660c01b61187c565b6001600360003373ffffffffffffffffffffffffffffffffffffffff1673ffffffffffffffffffffffffffffffffffffffff1681526020019081526020016000206001018560ff1660058110610fdf577f4e487b7100000000000000000000000000000000000000000000000000000000600052603260045260246000fd5b01600060038110611019577f4e487b7100000000000000000000000000000000000000000000000000000000600052603260045260246000fd5b602091828204019190066101000a81548160ff02191690831515021790555061104c67020c90c69658a6ed60c01b61187c565b82600360003373ffffffffffffffffffffffffffffffffffffffff1673ffffffffffffffffffffffffffffffffffffffff1681526020019081526020016000206006018560ff16600581106110ca577f4e487b7100000000000000000000000000000000000000000000000000000000600052603260045260246000fd5b01600060038110611104577f4e487b7100000000000000000000000000000000000000000000000000000000600052603260045260246000fd5b602091828204019190066101000a81548160ff021916908360ff1602179055506111386744fc023763750f3b60c01b61187c565b60008060038110611172577f4e487b7100000000000000000000000000000000000000000000000000000000600052603260045260246000fd5b602091828204019190069054906101000a900460ff1660ff1660048560ff16600581106111c8577f4e487b7100000000000000000000000000000000000000000000000000000000600052603260045260246000fd5b018460ff1681548110611204577f4e487b7100000000000000000000000000000000000000000000000000000000600052603260045260246000fd5b906000526020600020906002020160010160008282829054906101000a900461ffff166112319190611d95565b92506101000a81548161ffff021916908361ffff16021790555061125f6746e6a6100aebf82e60c01b61187c565b6001600360003373ffffffffffffffffffffffffffffffffffffffff1673ffffffffffffffffffffffffffffffffffffffff1681526020019081526020016000206001018560ff16600581106112de577f4e487b7100000000000000000000000000000000000000000000000000000000600052603260045260246000fd5b01600160038110611318577f4e487b7100000000000000000000000000000000000000000000000000000000600052603260045260246000fd5b602091828204019190066101000a81548160ff02191690831515021790555061134b67250eeb54c277fb6460c01b61187c565b81600360003373ffffffffffffffffffffffffffffffffffffffff1673ffffffffffffffffffffffffffffffffffffffff1681526020019081526020016000206006018560ff16600581106113c9577f4e487b7100000000000000000000000000000000000000000000000000000000600052603260045260246000fd5b01600160038110611403577f4e487b7100000000000000000000000000000000000000000000000000000000600052603260045260246000fd5b602091828204019190066101000a81548160ff021916908360ff1602179055506114376781fc72dbd10bd0b860c01b61187c565b6000600160038110611472577f4e487b7100000000000000000000000000000000000000000000000000000000600052603260045260246000fd5b602091828204019190069054906101000a900460ff1660ff1660048560ff16600581106114c8577f4e487b7100000000000000000000000000000000000000000000000000000000600052603260045260246000fd5b018360ff1681548110611504577f4e487b7100000000000000000000000000000000000000000000000000000000600052603260045260246000fd5b906000526020600020906002020160010160008282829054906101000a900461ffff166115319190611d95565b92506101000a81548161ffff021916908361ffff16021790555061155f675c6ea253fae1deb360c01b61187c565b6001600360003373ffffffffffffffffffffffffffffffffffffffff1673ffffffffffffffffffffffffffffffffffffffff1681526020019081526020016000206001018560ff16600581106115de577f4e487b7100000000000000000000000000000000000000000000000000000000600052603260045260246000fd5b01600260038110611618577f4e487b7100000000000000000000000000000000000000000000000000000000600052603260045260246000fd5b602091828204019190066101000a81548160ff02191690831515021790555061164b67a28ba0f7a3b6be8f60c01b61187c565b80600360003373ffffffffffffffffffffffffffffffffffffffff1673ffffffffffffffffffffffffffffffffffffffff1681526020019081526020016000206006018560ff16600581106116c9577f4e487b7100000000000000000000000000000000000000000000000000000000600052603260045260246000fd5b01600260038110611703577f4e487b7100000000000000000000000000000000000000000000000000000000600052603260045260246000fd5b602091828204019190066101000a81548160ff021916908360ff16021790555061173767fc92f7180da2cd7f60c01b61187c565b6000600260038110611772577f4e487b7100000000000000000000000000000000000000000000000000000000600052603260045260246000fd5b602091828204019190069054906101000a900460ff1660ff1660048560ff16600581106117c8577f4e487b7100000000000000000000000000000000000000000000000000000000600052603260045260246000fd5b018260ff1681548110611804577f4e487b7100000000000000000000000000000000000000000000000000000000600052603260045260246000fd5b906000526020600020906002020160010160008282829054906101000a900461ffff166118319190611d95565b92506101000a81548161ffff021916908361ffff16021790555050505050565b60036020528060005260406000206000915090508060000160009054906101000a900460ff16905081565b50565b6040518060a001604052806005905b606081526020019060019003908161188e5790505090565b6040518060a00160405280600590602082028036833780820191505090505090565b6000813590506118d781612070565b92915050565b6000813590506118ec81612087565b92915050565b6000813590506119018161209e565b92915050565b60006020828403121561191957600080fd5b6000611927848285016118c8565b91505092915050565b6000806040838503121561194357600080fd5b6000611951858286016118dd565b9250506020611962858286016118dd565b9150509250929050565b6000806000806080858703121561198257600080fd5b6000611990878288016118f2565b94505060206119a1878288016118f2565b93505060406119b2878288016118f2565b92505060606119c3878288016118f2565b91505092959194509250565b60006119db8383611a76565b905092915050565b6119ec81611dcd565b82525050565b60006119fd82611d45565b611a078185611d68565b935083602082028501611a1985611d3b565b8060005b85811015611a555784840389528151611a3685826119cf565b9450611a4183611d5b565b925060208a01995050600181019050611a1d565b50829750879550505050505092915050565b611a7081611ddf565b82525050565b6000611a8182611d50565b611a8b8185611d73565b9350611a9b818560208601611e30565b611aa481611f1d565b840191505092915050565b6000611aba82611d50565b611ac48185611d84565b9350611ad4818560208601611e30565b611add81611f1d565b840191505092915050565b6000611af5602983611d84565b9150611b0082611f2e565b604082019050919050565b6000611b18602083611d84565b9150611b2382611f7d565b602082019050919050565b6000611b3b603183611d84565b9150611b4682611fa6565b604082019050919050565b6000611b5e601383611d84565b9150611b6982611ff5565b602082019050919050565b6000611b81601c83611d84565b9150611b8c8261201e565b602082019050919050565b6000611ba4601983611d84565b9150611baf82612047565b602082019050919050565b611bc381611deb565b82525050565b611bd281611e19565b82525050565b6000602082019050611bed60008301846119e3565b92915050565b60006020820190508181036000830152611c0d81846119f2565b905092915050565b6000602082019050611c2a6000830184611a67565b92915050565b60006040820190508181036000830152611c4a8185611aaf565b9050611c596020830184611bba565b9392505050565b60006020820190508181036000830152611c7981611ae8565b9050919050565b60006020820190508181036000830152611c9981611b0b565b9050919050565b60006020820190508181036000830152611cb981611b2e565b9050919050565b60006020820190508181036000830152611cd981611b51565b9050919050565b60006020820190508181036000830152611cf981611b74565b9050919050565b60006020820190508181036000830152611d1981611b97565b9050919050565b6000602082019050611d356000830184611bc9565b92915050565b6000819050919050565b600060059050919050565b600081519050919050565b6000602082019050919050565b600081905092915050565b600082825260208201905092915050565b600082825260208201905092915050565b6000611da082611deb565b9150611dab83611deb565b92508261ffff03821115611dc257611dc1611ebf565b5b828201905092915050565b6000611dd882611df9565b9050919050565b60008115159050919050565b600061ffff82169050919050565b600073ffffffffffffffffffffffffffffffffffffffff82169050919050565b6000819050919050565b600060ff82169050919050565b60005b83811015611e4e578082015181840152602081019050611e33565b83811115611e5d576000848401525b50505050565b60006002820490506001821680611e7b57607f821691505b60208210811415611e8f57611e8e611eee565b5b50919050565b6000611ea082611e23565b915060ff821415611eb457611eb3611ebf565b5b600182019050919050565b7f4e487b7100000000000000000000000000000000000000000000000000000000600052601160045260246000fd5b7f4e487b7100000000000000000000000000000000000000000000000000000000600052602260045260246000fd5b6000601f19601f8301169050919050565b7f596f75206861766520616c726561647920766f74656420666f7220746869732060008201527f706f736974696f6e2e0000000000000000000000000000000000000000000000602082015250565b7f4f6e6c79207265676973746572656420766f746572732063616e20766f74652e600082015250565b7f4f6e6c792074686520656c656374696f6e206c65616465722063616e2067726160008201527f6e7420766f74696e67207269676874732e000000000000000000000000000000602082015250565b7f456c656374696f6e2068617320656e6465642e00000000000000000000000000600082015250565b7f566f74657220697320616c726561647920726567697374657265642e00000000600082015250565b7f43616e64696461746520646f6573206e6f742065786973742e00000000000000600082015250565b61207981611dcd565b811461208457600080fd5b50565b61209081611e19565b811461209b57600080fd5b50565b6120a781611e23565b81146120b257600080fd5b5056fea26469706673582212204e4d1df5628deb350e53a62f19aaa1a6df2241abb7fa507ea153d25743965daf64736f6c63430008040033","opcodes":"PUSH1 0x80 PUSH1 0x40 MSTORE PUSH1 0x40 MLOAD DUP1 PUSH1 0x60 ADD PUSH1 0x40 MSTORE DUP1 PUSH1 0x5 PUSH1 0xFF AND DUP2 MSTORE PUSH1 0x20 ADD PUSH1 0x3 PUSH1 0xFF AND DUP2 MSTORE PUSH1 0x20 ADD PUSH1 0x1 PUSH1 0xFF AND DUP2 MSTORE POP PUSH1 0x0 SWAP1 PUSH1 0x3 PUSH3 0x3D SWAP3 SWAP2 SWAP1 PUSH3 0x4E8 JUMP JUMPDEST POP CALLVALUE DUP1 ISZERO PUSH3 0x4B JUMPI PUSH1 0x0 DUP1 REVERT JUMPDEST POP PUSH1 0x40 MLOAD PUSH3 0x2C5F CODESIZE SUB DUP1 PUSH3 0x2C5F DUP4 CODECOPY DUP2 DUP2 ADD PUSH1 0x40 MSTORE DUP2 ADD SWAP1 PUSH3 0x71 SWAP2 SWAP1 PUSH3 0x830 JUMP JUMPDEST PUSH3 0x8D PUSH8 0xFD4907C404D4F1C5 PUSH1 0xC0 SHL PUSH3 0x4E5 PUSH1 0x20 SHL PUSH1 0x20 SHR JUMP JUMPDEST PUSH3 0xA9 PUSH8 0x9548646301320288 PUSH1 0xC0 SHL PUSH3 0x4E5 PUSH1 0x20 SHL PUSH1 0x20 SHR JUMP JUMPDEST PUSH3 0xC5 PUSH8 0x3C6266BA82D8A9E4 PUSH1 0xC0 SHL PUSH3 0x4E5 PUSH1 0x20 SHL PUSH1 0x20 SHR JUMP JUMPDEST PUSH3 0xE1 PUSH8 0x1A5F0CCD7F01C967 PUSH1 0xC0 SHL PUSH3 0x4E5 PUSH1 0x20 SHL PUSH1 0x20 SHR JUMP JUMPDEST DUP1 TIMESTAMP LT PUSH3 0x126 JUMPI PUSH1 0x40 MLOAD PUSH32 0x8C379A000000000000000000000000000000000000000000000000000000000 DUP2 MSTORE PUSH1 0x4 ADD PUSH3 0x11D SWAP1 PUSH3 0x8B1 JUMP JUMPDEST PUSH1 0x40 MLOAD DUP1 SWAP2 SUB SWAP1 REVERT JUMPDEST PUSH3 0x142 PUSH8 0x6EE9A4FAC53E46D9 PUSH1 0xC0 SHL PUSH3 0x4E5 PUSH1 0x20 SHL PUSH1 0x20 SHR JUMP JUMPDEST PUSH3 0x15E PUSH8 0x2578AFFC1810140F PUSH1 0xC0 SHL PUSH3 0x4E5 PUSH1 0x20 SHL PUSH1 0x20 SHR JUMP JUMPDEST CALLER PUSH1 0x2 PUSH1 0x0 PUSH2 0x100 EXP DUP2 SLOAD DUP2 PUSH20 0xFFFFFFFFFFFFFFFFFFFFFFFFFFFFFFFFFFFFFFFF MUL NOT AND SWAP1 DUP4 PUSH20 0xFFFFFFFFFFFFFFFFFFFFFFFFFFFFFFFFFFFFFFFF AND MUL OR SWAP1 SSTORE POP PUSH3 0x1BB PUSH8 0x44A3FB09BEC4C638 PUSH1 0xC0 SHL PUSH3 0x4E5 PUSH1 0x20 SHL PUSH1 0x20 SHR JUMP JUMPDEST PUSH1 0x1 PUSH1 0x3 PUSH1 0x0 PUSH1 0x2 PUSH1 0x0 SWAP1 SLOAD SWAP1 PUSH2 0x100 EXP SWAP1 DIV PUSH20 0xFFFFFFFFFFFFFFFFFFFFFFFFFFFFFFFFFFFFFFFF AND PUSH20 0xFFFFFFFFFFFFFFFFFFFFFFFFFFFFFFFFFFFFFFFF AND PUSH20 0xFFFFFFFFFFFFFFFFFFFFFFFFFFFFFFFFFFFFFFFF AND DUP2 MSTORE PUSH1 0x20 ADD SWAP1 DUP2 MSTORE PUSH1 0x20 ADD PUSH1 0x0 KECCAK256 PUSH1 0x0 ADD PUSH1 0x0 PUSH2 0x100 EXP DUP2 SLOAD DUP2 PUSH1 0xFF MUL NOT AND SWAP1 DUP4 ISZERO ISZERO MUL OR SWAP1 SSTORE POP PUSH3 0x254 PUSH8 0xF5718717F99625E1 PUSH1 0xC0 SHL PUSH3 0x4E5 PUSH1 0x20 SHL PUSH1 0x20 SHR JUMP JUMPDEST PUSH3 0x270 PUSH8 0x219A87491C73BF90 PUSH1 0xC0 SHL PUSH3 0x4E5 PUSH1 0x20 SHL PUSH1 0x20 SHR JUMP JUMPDEST PUSH1 0x0 JUMPDEST PUSH1 0x5 DUP2 PUSH1 0xFF AND LT ISZERO PUSH3 0x4B9 JUMPI PUSH3 0x29C PUSH8 0xCB274DB2C2686B66 PUSH1 0xC0 SHL PUSH3 0x4E5 PUSH1 0x20 SHL PUSH1 0x20 SHR JUMP JUMPDEST PUSH3 0x2B8 PUSH8 0xC2CA3C32B3B918C9 PUSH1 0xC0 SHL PUSH3 0x4E5 PUSH1 0x20 SHL PUSH1 0x20 SHR JUMP JUMPDEST PUSH1 0x0 JUMPDEST DUP4 DUP3 PUSH1 0xFF AND PUSH1 0x5 DUP2 LT PUSH3 0x2F8 JUMPI PUSH32 0x4E487B7100000000000000000000000000000000000000000000000000000000 PUSH1 0x0 MSTORE PUSH1 0x32 PUSH1 0x4 MSTORE PUSH1 0x24 PUSH1 0x0 REVERT JUMPDEST PUSH1 0x20 MUL ADD MLOAD MLOAD DUP2 PUSH1 0xFF AND LT ISZERO PUSH3 0x4A2 JUMPI PUSH3 0x325 PUSH8 0x82906FEC2D48E924 PUSH1 0xC0 SHL PUSH3 0x4E5 PUSH1 0x20 SHL PUSH1 0x20 SHR JUMP JUMPDEST PUSH3 0x341 PUSH8 0x8F61B03F6EDB03E4 PUSH1 0xC0 SHL PUSH3 0x4E5 PUSH1 0x20 SHL PUSH1 0x20 SHR JUMP JUMPDEST PUSH1 0x4 DUP3 PUSH1 0xFF AND PUSH1 0x5 DUP2 LT PUSH3 0x37F JUMPI PUSH32 0x4E487B7100000000000000000000000000000000000000000000000000000000 PUSH1 0x0 MSTORE PUSH1 0x32 PUSH1 0x4 MSTORE PUSH1 0x24 PUSH1 0x0 REVERT JUMPDEST ADD PUSH1 0x40 MLOAD DUP1 PUSH1 0x40 ADD PUSH1 0x40 MSTORE DUP1 DUP7 DUP6 PUSH1 0xFF AND PUSH1 0x5 DUP2 LT PUSH3 0x3C8 JUMPI PUSH32 0x4E487B7100000000000000000000000000000000000000000000000000000000 PUSH1 0x0 MSTORE PUSH1 0x32 PUSH1 0x4 MSTORE PUSH1 0x24 PUSH1 0x0 REVERT JUMPDEST PUSH1 0x20 MUL ADD MLOAD DUP5 PUSH1 0xFF AND DUP2 MLOAD DUP2 LT PUSH3 0x409 JUMPI PUSH32 0x4E487B7100000000000000000000000000000000000000000000000000000000 PUSH1 0x0 MSTORE PUSH1 0x32 PUSH1 0x4 MSTORE PUSH1 0x24 PUSH1 0x0 REVERT JUMPDEST PUSH1 0x20 MUL PUSH1 0x20 ADD ADD MLOAD DUP2 MSTORE PUSH1 0x20 ADD PUSH1 0x0 PUSH2 0xFFFF AND DUP2 MSTORE POP SWAP1 DUP1 PUSH1 0x1 DUP2 SLOAD ADD DUP1 DUP3 SSTORE DUP1 SWAP2 POP POP PUSH1 0x1 SWAP1 SUB SWAP1 PUSH1 0x0 MSTORE PUSH1 0x20 PUSH1 0x0 KECCAK256 SWAP1 PUSH1 0x2 MUL ADD PUSH1 0x0 SWAP1 SWAP2 SWAP1 SWAP2 SWAP1 SWAP2 POP PUSH1 0x0 DUP3 ADD MLOAD DUP2 PUSH1 0x0 ADD SWAP1 DUP1 MLOAD SWAP1 PUSH1 0x20 ADD SWAP1 PUSH3 0x466 SWAP3 SWAP2 SWAP1 PUSH3 0x589 JUMP JUMPDEST POP PUSH1 0x20 DUP3 ADD MLOAD DUP2 PUSH1 0x1 ADD PUSH1 0x0 PUSH2 0x100 EXP DUP2 SLOAD DUP2 PUSH2 0xFFFF MUL NOT AND SWAP1 DUP4 PUSH2 0xFFFF AND MUL OR SWAP1 SSTORE POP POP POP DUP1 DUP1 PUSH3 0x499 SWAP1 PUSH3 0xA54 JUMP JUMPDEST SWAP2 POP POP PUSH3 0x2BB JUMP JUMPDEST POP DUP1 DUP1 PUSH3 0x4B0 SWAP1 PUSH3 0xA54 JUMP JUMPDEST SWAP2 POP POP PUSH3 0x273 JUMP JUMPDEST POP PUSH3 0x4D6 PUSH8 0x3235BD9AE1BEB368 PUSH1 0xC0 SHL PUSH3 0x4E5 PUSH1 0x20 SHL PUSH1 0x20 SHR JUMP JUMPDEST DUP1 PUSH1 0x1 DUP2 SWAP1 SSTORE POP POP POP PUSH3 0xB64 JUMP JUMPDEST POP JUMP JUMPDEST DUP3 PUSH1 0x3 PUSH1 0x1F ADD PUSH1 0x20 SWAP1 DIV DUP2 ADD SWAP3 DUP3 ISZERO PUSH3 0x576 JUMPI SWAP2 PUSH1 0x20 MUL DUP3 ADD PUSH1 0x0 JUMPDEST DUP4 DUP3 GT ISZERO PUSH3 0x545 JUMPI DUP4 MLOAD DUP4 DUP3 PUSH2 0x100 EXP DUP2 SLOAD DUP2 PUSH1 0xFF MUL NOT AND SWAP1 DUP4 PUSH1 0xFF AND MUL OR SWAP1 SSTORE POP SWAP3 PUSH1 0x20 ADD SWAP3 PUSH1 0x1 ADD PUSH1 0x20 DUP2 PUSH1 0x0 ADD DIV SWAP3 DUP4 ADD SWAP3 PUSH1 0x1 SUB MUL PUSH3 0x505 JUMP JUMPDEST DUP1 ISZERO PUSH3 0x574 JUMPI DUP3 DUP2 PUSH2 0x100 EXP DUP2 SLOAD SWAP1 PUSH1 0xFF MUL NOT AND SWAP1 SSTORE PUSH1 0x1 ADD PUSH1 0x20 DUP2 PUSH1 0x0 ADD DIV SWAP3 DUP4 ADD SWAP3 PUSH1 0x1 SUB MUL PUSH3 0x545 JUMP JUMPDEST POP JUMPDEST POP SWAP1 POP PUSH3 0x585 SWAP2 SWAP1 PUSH3 0x61A JUMP JUMPDEST POP SWAP1 JUMP JUMPDEST DUP3 DUP1 SLOAD PUSH3 0x597 SWAP1 PUSH3 0x9E8 JUMP JUMPDEST SWAP1 PUSH1 0x0 MSTORE PUSH1 0x20 PUSH1 0x0 KECCAK256 SWAP1 PUSH1 0x1F ADD PUSH1 0x20 SWAP1 DIV DUP2 ADD SWAP3 DUP3 PUSH3 0x5BB JUMPI PUSH1 0x0 DUP6 SSTORE PUSH3 0x607 JUMP JUMPDEST DUP3 PUSH1 0x1F LT PUSH3 0x5D6 JUMPI DUP1 MLOAD PUSH1 0xFF NOT AND DUP4 DUP1 ADD OR DUP6 SSTORE PUSH3 0x607 JUMP JUMPDEST DUP3 DUP1 ADD PUSH1 0x1 ADD DUP6 SSTORE DUP3 ISZERO PUSH3 0x607 JUMPI SWAP2 DUP3 ADD JUMPDEST DUP3 DUP2 GT ISZERO PUSH3 0x606 JUMPI DUP3 MLOAD DUP3 SSTORE SWAP2 PUSH1 0x20 ADD SWAP2 SWAP1 PUSH1 0x1 ADD SWAP1 PUSH3 0x5E9 JUMP JUMPDEST JUMPDEST POP SWAP1 POP PUSH3 0x616 SWAP2 SWAP1 PUSH3 0x61A JUMP JUMPDEST POP SWAP1 JUMP JUMPDEST JUMPDEST DUP1 DUP3 GT ISZERO PUSH3 0x635 JUMPI PUSH1 0x0 DUP2 PUSH1 0x0 SWAP1 SSTORE POP PUSH1 0x1 ADD PUSH3 0x61B JUMP JUMPDEST POP SWAP1 JUMP JUMPDEST PUSH1 0x0 PUSH3 0x650 PUSH3 0x64A DUP5 PUSH3 0x8FC JUMP JUMPDEST PUSH3 0x8D3 JUMP JUMPDEST SWAP1 POP DUP1 DUP3 DUP6 PUSH1 0x20 DUP7 MUL DUP3 ADD GT ISZERO PUSH3 0x667 JUMPI PUSH1 0x0 DUP1 REVERT JUMPDEST PUSH1 0x0 JUMPDEST DUP6 DUP2 LT ISZERO PUSH3 0x6B6 JUMPI DUP2 MLOAD PUSH8 0xFFFFFFFFFFFFFFFF DUP2 GT ISZERO PUSH3 0x68B JUMPI PUSH1 0x0 DUP1 REVERT JUMPDEST DUP1 DUP7 ADD PUSH3 0x69A DUP10 DUP3 PUSH3 0x7BF JUMP JUMPDEST DUP6 MSTORE PUSH1 0x20 DUP6 ADD SWAP5 POP PUSH1 0x20 DUP5 ADD SWAP4 POP POP POP PUSH1 0x1 DUP2 ADD SWAP1 POP PUSH3 0x66A JUMP JUMPDEST POP POP POP SWAP4 SWAP3 POP POP POP JUMP JUMPDEST PUSH1 0x0 PUSH3 0x6D7 PUSH3 0x6D1 DUP5 PUSH3 0x925 JUMP JUMPDEST PUSH3 0x8D3 JUMP JUMPDEST SWAP1 POP DUP1 DUP4 DUP3 MSTORE PUSH1 0x20 DUP3 ADD SWAP1 POP DUP3 DUP6 PUSH1 0x20 DUP7 MUL DUP3 ADD GT ISZERO PUSH3 0x6F7 JUMPI PUSH1 0x0 DUP1 REVERT JUMPDEST PUSH1 0x0 JUMPDEST DUP6 DUP2 LT ISZERO PUSH3 0x746 JUMPI DUP2 MLOAD PUSH8 0xFFFFFFFFFFFFFFFF DUP2 GT ISZERO PUSH3 0x71B JUMPI PUSH1 0x0 DUP1 REVERT JUMPDEST DUP1 DUP7 ADD PUSH3 0x72A DUP10 DUP3 PUSH3 0x7EC JUMP JUMPDEST DUP6 MSTORE PUSH1 0x20 DUP6 ADD SWAP5 POP PUSH1 0x20 DUP5 ADD SWAP4 POP POP POP PUSH1 0x1 DUP2 ADD SWAP1 POP PUSH3 0x6FA JUMP JUMPDEST POP POP POP SWAP4 SWAP3 POP POP POP JUMP JUMPDEST PUSH1 0x0 PUSH3 0x767 PUSH3 0x761 DUP5 PUSH3 0x954 JUMP JUMPDEST PUSH3 0x8D3 JUMP JUMPDEST SWAP1 POP DUP3 DUP2 MSTORE PUSH1 0x20 DUP2 ADD DUP5 DUP5 DUP5 ADD GT ISZERO PUSH3 0x780 JUMPI PUSH1 0x0 DUP1 REVERT JUMPDEST PUSH3 0x78D DUP5 DUP3 DUP6 PUSH3 0x9B2 JUMP JUMPDEST POP SWAP4 SWAP3 POP POP POP JUMP JUMPDEST PUSH1 0x0 DUP3 PUSH1 0x1F DUP4 ADD SLT PUSH3 0x7A7 JUMPI PUSH1 0x0 DUP1 REVERT JUMPDEST PUSH1 0x5 PUSH3 0x7B6 DUP5 DUP3 DUP6 PUSH3 0x639 JUMP JUMPDEST SWAP2 POP POP SWAP3 SWAP2 POP POP JUMP JUMPDEST PUSH1 0x0 DUP3 PUSH1 0x1F DUP4 ADD SLT PUSH3 0x7D1 JUMPI PUSH1 0x0 DUP1 REVERT JUMPDEST DUP2 MLOAD PUSH3 0x7E3 DUP5 DUP3 PUSH1 0x20 DUP7 ADD PUSH3 0x6C0 JUMP JUMPDEST SWAP2 POP POP SWAP3 SWAP2 POP POP JUMP JUMPDEST PUSH1 0x0 DUP3 PUSH1 0x1F DUP4 ADD SLT PUSH3 0x7FE JUMPI PUSH1 0x0 DUP1 REVERT JUMPDEST DUP2 MLOAD PUSH3 0x810 DUP5 DUP3 PUSH1 0x20 DUP7 ADD PUSH3 0x750 JUMP JUMPDEST SWAP2 POP POP SWAP3 SWAP2 POP POP JUMP JUMPDEST PUSH1 0x0 DUP2 MLOAD SWAP1 POP PUSH3 0x82A DUP2 PUSH3 0xB4A JUMP JUMPDEST SWAP3 SWAP2 POP POP JUMP JUMPDEST PUSH1 0x0 DUP1 PUSH1 0x40 DUP4 DUP6 SUB SLT ISZERO PUSH3 0x844 JUMPI PUSH1 0x0 DUP1 REVERT JUMPDEST PUSH1 0x0 DUP4 ADD MLOAD PUSH8 0xFFFFFFFFFFFFFFFF DUP2 GT ISZERO PUSH3 0x85F JUMPI PUSH1 0x0 DUP1 REVERT JUMPDEST PUSH3 0x86D DUP6 DUP3 DUP7 ADD PUSH3 0x795 JUMP JUMPDEST SWAP3 POP POP PUSH1 0x20 PUSH3 0x880 DUP6 DUP3 DUP7 ADD PUSH3 0x819 JUMP JUMPDEST SWAP2 POP POP SWAP3 POP SWAP3 SWAP1 POP JUMP JUMPDEST PUSH1 0x0 PUSH3 0x899 PUSH1 0x1F DUP4 PUSH3 0x98A JUMP JUMPDEST SWAP2 POP PUSH3 0x8A6 DUP3 PUSH3 0xB21 JUMP JUMPDEST PUSH1 0x20 DUP3 ADD SWAP1 POP SWAP2 SWAP1 POP JUMP JUMPDEST PUSH1 0x0 PUSH1 0x20 DUP3 ADD SWAP1 POP DUP2 DUP2 SUB PUSH1 0x0 DUP4 ADD MSTORE PUSH3 0x8CC DUP2 PUSH3 0x88A JUMP JUMPDEST SWAP1 POP SWAP2 SWAP1 POP JUMP JUMPDEST PUSH1 0x0 PUSH3 0x8DF PUSH3 0x8F2 JUMP JUMPDEST SWAP1 POP PUSH3 0x8ED DUP3 DUP3 PUSH3 0xA1E JUMP JUMPDEST SWAP2 SWAP1 POP JUMP JUMPDEST PUSH1 0x0 PUSH1 0x40 MLOAD SWAP1 POP SWAP1 JUMP JUMPDEST PUSH1 0x0 PUSH8 0xFFFFFFFFFFFFFFFF DUP3 GT ISZERO PUSH3 0x91A JUMPI PUSH3 0x919 PUSH3 0xAE1 JUMP JUMPDEST JUMPDEST PUSH1 0x20 DUP3 MUL SWAP1 POP SWAP2 SWAP1 POP JUMP JUMPDEST PUSH1 0x0 PUSH8 0xFFFFFFFFFFFFFFFF DUP3 GT ISZERO PUSH3 0x943 JUMPI PUSH3 0x942 PUSH3 0xAE1 JUMP JUMPDEST JUMPDEST PUSH1 0x20 DUP3 MUL SWAP1 POP PUSH1 0x20 DUP2 ADD SWAP1 POP SWAP2 SWAP1 POP JUMP JUMPDEST PUSH1 0x0 PUSH8 0xFFFFFFFFFFFFFFFF DUP3 GT ISZERO PUSH3 0x972 JUMPI PUSH3 0x971 PUSH3 0xAE1 JUMP JUMPDEST JUMPDEST PUSH3 0x97D DUP3 PUSH3 0xB10 JUMP JUMPDEST SWAP1 POP PUSH1 0x20 DUP2 ADD SWAP1 POP SWAP2 SWAP1 POP JUMP JUMPDEST PUSH1 0x0 DUP3 DUP3 MSTORE PUSH1 0x20 DUP3 ADD SWAP1 POP SWAP3 SWAP2 POP POP JUMP JUMPDEST PUSH1 0x0 DUP2 SWAP1 POP SWAP2 SWAP1 POP JUMP JUMPDEST PUSH1 0x0 PUSH1 0xFF DUP3 AND SWAP1 POP SWAP2 SWAP1 POP JUMP JUMPDEST PUSH1 0x0 JUMPDEST DUP4 DUP2 LT ISZERO PUSH3 0x9D2 JUMPI DUP1 DUP3 ADD MLOAD DUP2 DUP5 ADD MSTORE PUSH1 0x20 DUP2 ADD SWAP1 POP PUSH3 0x9B5 JUMP JUMPDEST DUP4 DUP2 GT ISZERO PUSH3 0x9E2 JUMPI PUSH1 0x0 DUP5 DUP5 ADD MSTORE JUMPDEST POP POP POP POP JUMP JUMPDEST PUSH1 0x0 PUSH1 0x2 DUP3 DIV SWAP1 POP PUSH1 0x1 DUP3 AND DUP1 PUSH3 0xA01 JUMPI PUSH1 0x7F DUP3 AND SWAP2 POP JUMPDEST PUSH1 0x20 DUP3 LT DUP2 EQ ISZERO PUSH3 0xA18 JUMPI PUSH3 0xA17 PUSH3 0xAB2 JUMP JUMPDEST JUMPDEST POP SWAP2 SWAP1 POP JUMP JUMPDEST PUSH3 0xA29 DUP3 PUSH3 0xB10 JUMP JUMPDEST DUP2 ADD DUP2 DUP2 LT PUSH8 0xFFFFFFFFFFFFFFFF DUP3 GT OR ISZERO PUSH3 0xA4B JUMPI PUSH3 0xA4A PUSH3 0xAE1 JUMP JUMPDEST JUMPDEST DUP1 PUSH1 0x40 MSTORE POP POP POP JUMP JUMPDEST PUSH1 0x0 PUSH3 0xA61 DUP3 PUSH3 0x9A5 JUMP JUMPDEST SWAP2 POP PUSH1 0xFF DUP3 EQ ISZERO PUSH3 0xA78 JUMPI PUSH3 0xA77 PUSH3 0xA83 JUMP JUMPDEST JUMPDEST PUSH1 0x1 DUP3 ADD SWAP1 POP SWAP2 SWAP1 POP JUMP JUMPDEST PUSH32 0x4E487B7100000000000000000000000000000000000000000000000000000000 PUSH1 0x0 MSTORE PUSH1 0x11 PUSH1 0x4 MSTORE PUSH1 0x24 PUSH1 0x0 REVERT JUMPDEST PUSH32 0x4E487B7100000000000000000000000000000000000000000000000000000000 PUSH1 0x0 MSTORE PUSH1 0x22 PUSH1 0x4 MSTORE PUSH1 0x24 PUSH1 0x0 REVERT JUMPDEST PUSH32 0x4E487B7100000000000000000000000000000000000000000000000000000000 PUSH1 0x0 MSTORE PUSH1 0x41 PUSH1 0x4 MSTORE PUSH1 0x24 PUSH1 0x0 REVERT JUMPDEST PUSH1 0x0 PUSH1 0x1F NOT PUSH1 0x1F DUP4 ADD AND SWAP1 POP SWAP2 SWAP1 POP JUMP JUMPDEST PUSH32 0x456E642074696D65206D75737420626520696E20746865206675747572652E00 PUSH1 0x0 DUP3 ADD MSTORE POP JUMP JUMPDEST PUSH3 0xB55 DUP2 PUSH3 0x99B JUMP JUMPDEST DUP2 EQ PUSH3 0xB61 JUMPI PUSH1 0x0 DUP1 REVERT JUMPDEST POP JUMP JUMPDEST PUSH2 0x20EB DUP1 PUSH3 0xB74 PUSH1 0x0 CODECOPY PUSH1 0x0 RETURN INVALID PUSH1 0x80 PUSH1 0x40 MSTORE CALLVALUE DUP1 ISZERO PUSH2 0x10 JUMPI PUSH1 0x0 DUP1 REVERT JUMPDEST POP PUSH1 0x4 CALLDATASIZE LT PUSH2 0x7D JUMPI PUSH1 0x0 CALLDATALOAD PUSH1 0xE0 SHR DUP1 PUSH4 0x510D9645 GT PUSH2 0x5B JUMPI DUP1 PUSH4 0x510D9645 EQ PUSH2 0xDA JUMPI DUP1 PUSH4 0x7DE14242 EQ PUSH2 0xF8 JUMPI DUP1 PUSH4 0x85C56E19 EQ PUSH2 0x129 JUMPI DUP1 PUSH4 0xA3EC138D EQ PUSH2 0x145 JUMPI PUSH2 0x7D JUMP JUMPDEST DUP1 PUSH4 0x3197CBB6 EQ PUSH2 0x82 JUMPI DUP1 PUSH4 0x38DB6DD3 EQ PUSH2 0xA0 JUMPI DUP1 PUSH4 0x40EEDABB EQ PUSH2 0xBC JUMPI JUMPDEST PUSH1 0x0 DUP1 REVERT JUMPDEST PUSH2 0x8A PUSH2 0x175 JUMP JUMPDEST PUSH1 0x40 MLOAD PUSH2 0x97 SWAP2 SWAP1 PUSH2 0x1D20 JUMP JUMPDEST PUSH1 0x40 MLOAD DUP1 SWAP2 SUB SWAP1 RETURN JUMPDEST PUSH2 0xBA PUSH1 0x4 DUP1 CALLDATASIZE SUB DUP2 ADD SWAP1 PUSH2 0xB5 SWAP2 SWAP1 PUSH2 0x1907 JUMP JUMPDEST PUSH2 0x17B JUMP JUMPDEST STOP JUMPDEST PUSH2 0xC4 PUSH2 0x455 JUMP JUMPDEST PUSH1 0x40 MLOAD PUSH2 0xD1 SWAP2 SWAP1 PUSH2 0x1BD8 JUMP JUMPDEST PUSH1 0x40 MLOAD DUP1 SWAP2 SUB SWAP1 RETURN JUMPDEST PUSH2 0xE2 PUSH2 0x47B JUMP JUMPDEST PUSH1 0x40 MLOAD PUSH2 0xEF SWAP2 SWAP1 PUSH2 0x1BF3 JUMP JUMPDEST PUSH1 0x40 MLOAD DUP1 SWAP2 SUB SWAP1 RETURN JUMPDEST PUSH2 0x112 PUSH1 0x4 DUP1 CALLDATASIZE SUB DUP2 ADD SWAP1 PUSH2 0x10D SWAP2 SWAP1 PUSH2 0x1930 JUMP JUMPDEST PUSH2 0xA1A JUMP JUMPDEST PUSH1 0x40 MLOAD PUSH2 0x120 SWAP3 SWAP2 SWAP1 PUSH2 0x1C30 JUMP JUMPDEST PUSH1 0x40 MLOAD DUP1 SWAP2 SUB SWAP1 RETURN JUMPDEST PUSH2 0x143 PUSH1 0x4 DUP1 CALLDATASIZE SUB DUP2 ADD SWAP1 PUSH2 0x13E SWAP2 SWAP1 PUSH2 0x196C JUMP JUMPDEST PUSH2 0xAF4 JUMP JUMPDEST STOP JUMPDEST PUSH2 0x15F PUSH1 0x4 DUP1 CALLDATASIZE SUB DUP2 ADD SWAP1 PUSH2 0x15A SWAP2 SWAP1 PUSH2 0x1907 JUMP JUMPDEST PUSH2 0x1851 JUMP JUMPDEST PUSH1 0x40 MLOAD PUSH2 0x16C SWAP2 SWAP1 PUSH2 0x1C15 JUMP JUMPDEST PUSH1 0x40 MLOAD DUP1 SWAP2 SUB SWAP1 RETURN JUMPDEST PUSH1 0x1 SLOAD DUP2 JUMP JUMPDEST PUSH2 0x18F PUSH8 0xFA19F84E1240387F PUSH1 0xC0 SHL PUSH2 0x187C JUMP JUMPDEST PUSH2 0x1A3 PUSH8 0x2704D13DDA98DA27 PUSH1 0xC0 SHL PUSH2 0x187C JUMP JUMPDEST PUSH2 0x1B7 PUSH8 0x21BB797FA43DF4ED PUSH1 0xC0 SHL PUSH2 0x187C JUMP JUMPDEST PUSH2 0x1CB PUSH8 0xF6D9DF42E33DEDC0 PUSH1 0xC0 SHL PUSH2 0x187C JUMP JUMPDEST PUSH1 0x1 SLOAD TIMESTAMP LT PUSH2 0x20F JUMPI PUSH1 0x40 MLOAD PUSH32 0x8C379A000000000000000000000000000000000000000000000000000000000 DUP2 MSTORE PUSH1 0x4 ADD PUSH2 0x206 SWAP1 PUSH2 0x1CC0 JUMP JUMPDEST PUSH1 0x40 MLOAD DUP1 SWAP2 SUB SWAP1 REVERT JUMPDEST PUSH2 0x223 PUSH8 0x3237ACCCA4A327D9 PUSH1 0xC0 SHL PUSH2 0x187C JUMP JUMPDEST PUSH2 0x237 PUSH8 0x90FA82B3E3B11149 PUSH1 0xC0 SHL PUSH2 0x187C JUMP JUMPDEST PUSH2 0x24B PUSH8 0xB228A351027182B1 PUSH1 0xC0 SHL PUSH2 0x187C JUMP JUMPDEST PUSH2 0x25F PUSH8 0x97B1026EDD33B3E9 PUSH1 0xC0 SHL PUSH2 0x187C JUMP JUMPDEST PUSH1 0x2 PUSH1 0x0 SWAP1 SLOAD SWAP1 PUSH2 0x100 EXP SWAP1 DIV PUSH20 0xFFFFFFFFFFFFFFFFFFFFFFFFFFFFFFFFFFFFFFFF AND PUSH20 0xFFFFFFFFFFFFFFFFFFFFFFFFFFFFFFFFFFFFFFFF AND CALLER PUSH20 0xFFFFFFFFFFFFFFFFFFFFFFFFFFFFFFFFFFFFFFFF AND EQ PUSH2 0x2EF JUMPI PUSH1 0x40 MLOAD PUSH32 0x8C379A000000000000000000000000000000000000000000000000000000000 DUP2 MSTORE PUSH1 0x4 ADD PUSH2 0x2E6 SWAP1 PUSH2 0x1CA0 JUMP JUMPDEST PUSH1 0x40 MLOAD DUP1 SWAP2 SUB SWAP1 REVERT JUMPDEST PUSH2 0x303 PUSH8 0xA57702B1F5D254C0 PUSH1 0xC0 SHL PUSH2 0x187C JUMP JUMPDEST PUSH2 0x317 PUSH8 0xC5C1F8A485486FD8 PUSH1 0xC0 SHL PUSH2 0x187C JUMP JUMPDEST PUSH2 0x32B PUSH8 0xB1B099031080871 PUSH1 0xC0 SHL PUSH2 0x187C JUMP JUMPDEST PUSH2 0x33F PUSH8 0x193739134D882270 PUSH1 0xC0 SHL PUSH2 0x187C JUMP JUMPDEST PUSH1 0x3 PUSH1 0x0 DUP3 PUSH20 0xFFFFFFFFFFFFFFFFFFFFFFFFFFFFFFFFFFFFFFFF AND PUSH20 0xFFFFFFFFFFFFFFFFFFFFFFFFFFFFFFFFFFFFFFFF AND DUP2 MSTORE PUSH1 0x20 ADD SWAP1 DUP2 MSTORE PUSH1 0x20 ADD PUSH1 0x0 KECCAK256 PUSH1 0x0 ADD PUSH1 0x0 SWAP1 SLOAD SWAP1 PUSH2 0x100 EXP SWAP1 DIV PUSH1 0xFF AND ISZERO PUSH2 0x3CF JUMPI PUSH1 0x40 MLOAD PUSH32 0x8C379A000000000000000000000000000000000000000000000000000000000 DUP2 MSTORE PUSH1 0x4 ADD PUSH2 0x3C6 SWAP1 PUSH2 0x1CE0 JUMP JUMPDEST PUSH1 0x40 MLOAD DUP1 SWAP2 SUB SWAP1 REVERT JUMPDEST PUSH2 0x3E3 PUSH8 0x3315A393EEFA0548 PUSH1 0xC0 SHL PUSH2 0x187C JUMP JUMPDEST PUSH2 0x3F7 PUSH8 0x66610206C59E923E PUSH1 0xC0 SHL PUSH2 0x187C JUMP JUMPDEST PUSH1 0x1 PUSH1 0x3 PUSH1 0x0 DUP4 PUSH20 0xFFFFFFFFFFFFFFFFFFFFFFFFFFFFFFFFFFFFFFFF AND PUSH20 0xFFFFFFFFFFFFFFFFFFFFFFFFFFFFFFFFFFFFFFFF AND DUP2 MSTORE PUSH1 0x20 ADD SWAP1 DUP2 MSTORE PUSH1 0x20 ADD PUSH1 0x0 KECCAK256 PUSH1 0x0 ADD PUSH1 0x0 PUSH2 0x100 EXP DUP2 SLOAD DUP2 PUSH1 0xFF MUL NOT AND SWAP1 DUP4 ISZERO ISZERO MUL OR SWAP1 SSTORE POP POP JUMP JUMPDEST PUSH1 0x2 PUSH1 0x0 SWAP1 SLOAD SWAP1 PUSH2 0x100 EXP SWAP1 DIV PUSH20 0xFFFFFFFFFFFFFFFFFFFFFFFFFFFFFFFFFFFFFFFF AND DUP2 JUMP JUMPDEST PUSH2 0x483 PUSH2 0x187F JUMP JUMPDEST PUSH2 0x497 PUSH8 0xEEB210E5958FE332 PUSH1 0xC0 SHL PUSH2 0x187C JUMP JUMPDEST PUSH2 0x4AB PUSH8 0xB151B2C6A5E5CBF PUSH1 0xC0 SHL PUSH2 0x187C JUMP JUMPDEST PUSH2 0x4BF PUSH8 0x42EDAE9546AC4387 PUSH1 0xC0 SHL PUSH2 0x187C JUMP JUMPDEST PUSH2 0x4C7 PUSH2 0x18A6 JUMP JUMPDEST PUSH2 0x4DB PUSH8 0xD14848BD56C6B5C1 PUSH1 0xC0 SHL PUSH2 0x187C JUMP JUMPDEST PUSH2 0x4EF PUSH8 0x58C190FA27313346 PUSH1 0xC0 SHL PUSH2 0x187C JUMP JUMPDEST PUSH1 0x0 JUMPDEST PUSH1 0x5 DUP2 PUSH1 0xFF AND LT ISZERO PUSH2 0x7F7 JUMPI PUSH2 0x512 PUSH8 0x69DBE7B3D2DC39CB PUSH1 0xC0 SHL PUSH2 0x187C JUMP JUMPDEST PUSH2 0x526 PUSH8 0xFD1054A1434403E PUSH1 0xC0 SHL PUSH2 0x187C JUMP JUMPDEST PUSH1 0x0 PUSH32 0xFFFFFFFFFFFFFFFFFFFFFFFFFFFFFFFFFFFFFFFFFFFFFFFFFFFFFFFFFFFFFFFF SWAP1 POP PUSH2 0x55F PUSH8 0x481D8E75537776BD PUSH1 0xC0 SHL PUSH2 0x187C JUMP JUMPDEST PUSH2 0x573 PUSH8 0xCF20813FF54177E6 PUSH1 0xC0 SHL PUSH2 0x187C JUMP JUMPDEST PUSH1 0x0 JUMPDEST PUSH1 0x4 DUP4 PUSH1 0xFF AND PUSH1 0x5 DUP2 LT PUSH2 0x5B3 JUMPI PUSH32 0x4E487B7100000000000000000000000000000000000000000000000000000000 PUSH1 0x0 MSTORE PUSH1 0x32 PUSH1 0x4 MSTORE PUSH1 0x24 PUSH1 0x0 REVERT JUMPDEST ADD DUP1 SLOAD SWAP1 POP DUP2 PUSH1 0xFF AND LT ISZERO PUSH2 0x7E2 JUMPI PUSH2 0x5D6 PUSH8 0x5BF18AEBB13350DD PUSH1 0xC0 SHL PUSH2 0x187C JUMP JUMPDEST PUSH2 0x5EA PUSH8 0x3F687476BC0C5398 PUSH1 0xC0 SHL PUSH2 0x187C JUMP JUMPDEST DUP2 PUSH1 0x1 SIGNEXTEND PUSH1 0x4 DUP5 PUSH1 0xFF AND PUSH1 0x5 DUP2 LT PUSH2 0x62B JUMPI PUSH32 0x4E487B7100000000000000000000000000000000000000000000000000000000 PUSH1 0x0 MSTORE PUSH1 0x32 PUSH1 0x4 MSTORE PUSH1 0x24 PUSH1 0x0 REVERT JUMPDEST ADD DUP3 PUSH1 0xFF AND DUP2 SLOAD DUP2 LT PUSH2 0x667 JUMPI PUSH32 0x4E487B7100000000000000000000000000000000000000000000000000000000 PUSH1 0x0 MSTORE PUSH1 0x32 PUSH1 0x4 MSTORE PUSH1 0x24 PUSH1 0x0 REVERT JUMPDEST SWAP1 PUSH1 0x0 MSTORE PUSH1 0x20 PUSH1 0x0 KECCAK256 SWAP1 PUSH1 0x2 MUL ADD PUSH1 0x1 ADD PUSH1 0x0 SWAP1 SLOAD SWAP1 PUSH2 0x100 EXP SWAP1 DIV PUSH2 0xFFFF AND PUSH1 0x1 SIGNEXTEND SGT ISZERO PUSH2 0x7BA JUMPI PUSH2 0x6A4 PUSH8 0x2748B61C41A6BB0E PUSH1 0xC0 SHL PUSH2 0x187C JUMP JUMPDEST PUSH2 0x6B8 PUSH8 0x81044C6A1A84A03B PUSH1 0xC0 SHL PUSH2 0x187C JUMP JUMPDEST PUSH1 0x4 DUP4 PUSH1 0xFF AND PUSH1 0x5 DUP2 LT PUSH2 0x6F5 JUMPI PUSH32 0x4E487B7100000000000000000000000000000000000000000000000000000000 PUSH1 0x0 MSTORE PUSH1 0x32 PUSH1 0x4 MSTORE PUSH1 0x24 PUSH1 0x0 REVERT JUMPDEST ADD DUP2 PUSH1 0xFF AND DUP2 SLOAD DUP2 LT PUSH2 0x731 JUMPI PUSH32 0x4E487B7100000000000000000000000000000000000000000000000000000000 PUSH1 0x0 MSTORE PUSH1 0x32 PUSH1 0x4 MSTORE PUSH1 0x24 PUSH1 0x0 REVERT JUMPDEST SWAP1 PUSH1 0x0 MSTORE PUSH1 0x20 PUSH1 0x0 KECCAK256 SWAP1 PUSH1 0x2 MUL ADD PUSH1 0x1 ADD PUSH1 0x0 SWAP1 SLOAD SWAP1 PUSH2 0x100 EXP SWAP1 DIV PUSH2 0xFFFF AND SWAP2 POP PUSH2 0x767 PUSH8 0x41452C49E7D9ECEC PUSH1 0xC0 SHL PUSH2 0x187C JUMP JUMPDEST DUP1 DUP5 DUP5 PUSH1 0xFF AND PUSH1 0x5 DUP2 LT PUSH2 0x7A4 JUMPI PUSH32 0x4E487B7100000000000000000000000000000000000000000000000000000000 PUSH1 0x0 MSTORE PUSH1 0x32 PUSH1 0x4 MSTORE PUSH1 0x24 PUSH1 0x0 REVERT JUMPDEST PUSH1 0x20 MUL ADD SWAP1 PUSH1 0xFF AND SWAP1 DUP2 PUSH1 0xFF AND DUP2 MSTORE POP POP PUSH2 0x7CF JUMP JUMPDEST PUSH2 0x7CE PUSH8 0xB58D1AA78014FC6 PUSH1 0xC0 SHL PUSH2 0x187C JUMP JUMPDEST JUMPDEST DUP1 DUP1 PUSH2 0x7DA SWAP1 PUSH2 0x1E95 JUMP JUMPDEST SWAP2 POP POP PUSH2 0x576 JUMP JUMPDEST POP POP DUP1 DUP1 PUSH2 0x7EF SWAP1 PUSH2 0x1E95 JUMP JUMPDEST SWAP2 POP POP PUSH2 0x4F2 JUMP JUMPDEST POP PUSH2 0x80C PUSH8 0x26A7879137738E1C PUSH1 0xC0 SHL PUSH2 0x187C JUMP JUMPDEST PUSH2 0x820 PUSH8 0x341C83B8477DEB9F PUSH1 0xC0 SHL PUSH2 0x187C JUMP JUMPDEST PUSH1 0x0 JUMPDEST PUSH1 0x5 DUP2 PUSH1 0xFF AND LT ISZERO PUSH2 0x9ED JUMPI PUSH2 0x843 PUSH8 0x809C01FB1922DDDC PUSH1 0xC0 SHL PUSH2 0x187C JUMP JUMPDEST PUSH1 0x4 DUP2 PUSH1 0xFF AND PUSH1 0x5 DUP2 LT PUSH2 0x880 JUMPI PUSH32 0x4E487B7100000000000000000000000000000000000000000000000000000000 PUSH1 0x0 MSTORE PUSH1 0x32 PUSH1 0x4 MSTORE PUSH1 0x24 PUSH1 0x0 REVERT JUMPDEST ADD DUP3 DUP3 PUSH1 0xFF AND PUSH1 0x5 DUP2 LT PUSH2 0x8BD JUMPI PUSH32 0x4E487B7100000000000000000000000000000000000000000000000000000000 PUSH1 0x0 MSTORE PUSH1 0x32 PUSH1 0x4 MSTORE PUSH1 0x24 PUSH1 0x0 REVERT JUMPDEST PUSH1 0x20 MUL ADD MLOAD PUSH1 0xFF AND DUP2 SLOAD DUP2 LT PUSH2 0x8FC JUMPI PUSH32 0x4E487B7100000000000000000000000000000000000000000000000000000000 PUSH1 0x0 MSTORE PUSH1 0x32 PUSH1 0x4 MSTORE PUSH1 0x24 PUSH1 0x0 REVERT JUMPDEST SWAP1 PUSH1 0x0 MSTORE PUSH1 0x20 PUSH1 0x0 KECCAK256 SWAP1 PUSH1 0x2 MUL ADD PUSH1 0x0 ADD DUP1 SLOAD PUSH2 0x918 SWAP1 PUSH2 0x1E63 JUMP JUMPDEST DUP1 PUSH1 0x1F ADD PUSH1 0x20 DUP1 SWAP2 DIV MUL PUSH1 0x20 ADD PUSH1 0x40 MLOAD SWAP1 DUP2 ADD PUSH1 0x40 MSTORE DUP1 SWAP3 SWAP2 SWAP1 DUP2 DUP2 MSTORE PUSH1 0x20 ADD DUP3 DUP1 SLOAD PUSH2 0x944 SWAP1 PUSH2 0x1E63 JUMP JUMPDEST DUP1 ISZERO PUSH2 0x991 JUMPI DUP1 PUSH1 0x1F LT PUSH2 0x966 JUMPI PUSH2 0x100 DUP1 DUP4 SLOAD DIV MUL DUP4 MSTORE SWAP2 PUSH1 0x20 ADD SWAP2 PUSH2 0x991 JUMP JUMPDEST DUP3 ADD SWAP2 SWAP1 PUSH1 0x0 MSTORE PUSH1 0x20 PUSH1 0x0 KECCAK256 SWAP1 JUMPDEST DUP2 SLOAD DUP2 MSTORE SWAP1 PUSH1 0x1 ADD SWAP1 PUSH1 0x20 ADD DUP1 DUP4 GT PUSH2 0x974 JUMPI DUP3 SWAP1 SUB PUSH1 0x1F AND DUP3 ADD SWAP2 JUMPDEST POP POP POP POP POP DUP4 DUP3 PUSH1 0xFF AND PUSH1 0x5 DUP2 LT PUSH2 0x9D2 JUMPI PUSH32 0x4E487B7100000000000000000000000000000000000000000000000000000000 PUSH1 0x0 MSTORE PUSH1 0x32 PUSH1 0x4 MSTORE PUSH1 0x24 PUSH1 0x0 REVERT JUMPDEST PUSH1 0x20 MUL ADD DUP2 SWAP1 MSTORE POP DUP1 DUP1 PUSH2 0x9E5 SWAP1 PUSH2 0x1E95 JUMP JUMPDEST SWAP2 POP POP PUSH2 0x823 JUMP JUMPDEST POP PUSH2 0xA02 PUSH8 0x357C8026E3B506B9 PUSH1 0xC0 SHL PUSH2 0x187C JUMP JUMPDEST PUSH2 0xA16 PUSH8 0x53BC4956FF528701 PUSH1 0xC0 SHL PUSH2 0x187C JUMP JUMPDEST POP SWAP1 JUMP JUMPDEST PUSH1 0x4 DUP3 PUSH1 0x5 DUP2 LT PUSH2 0xA2A JUMPI PUSH1 0x0 DUP1 REVERT JUMPDEST ADD DUP2 DUP2 SLOAD DUP2 LT PUSH2 0xA39 JUMPI PUSH1 0x0 DUP1 REVERT JUMPDEST SWAP1 PUSH1 0x0 MSTORE PUSH1 0x20 PUSH1 0x0 KECCAK256 SWAP1 PUSH1 0x2 MUL ADD PUSH1 0x0 SWAP2 POP SWAP2 POP POP DUP1 PUSH1 0x0 ADD DUP1 SLOAD PUSH2 0xA5D SWAP1 PUSH2 0x1E63 JUMP JUMPDEST DUP1 PUSH1 0x1F ADD PUSH1 0x20 DUP1 SWAP2 DIV MUL PUSH1 0x20 ADD PUSH1 0x40 MLOAD SWAP1 DUP2 ADD PUSH1 0x40 MSTORE DUP1 SWAP3 SWAP2 SWAP1 DUP2 DUP2 MSTORE PUSH1 0x20 ADD DUP3 DUP1 SLOAD PUSH2 0xA89 SWAP1 PUSH2 0x1E63 JUMP JUMPDEST DUP1 ISZERO PUSH2 0xAD6 JUMPI DUP1 PUSH1 0x1F LT PUSH2 0xAAB JUMPI PUSH2 0x100 DUP1 DUP4 SLOAD DIV MUL DUP4 MSTORE SWAP2 PUSH1 0x20 ADD SWAP2 PUSH2 0xAD6 JUMP JUMPDEST DUP3 ADD SWAP2 SWAP1 PUSH1 0x0 MSTORE PUSH1 0x20 PUSH1 0x0 KECCAK256 SWAP1 JUMPDEST DUP2 SLOAD DUP2 MSTORE SWAP1 PUSH1 0x1 ADD SWAP1 PUSH1 0x20 ADD DUP1 DUP4 GT PUSH2 0xAB9 JUMPI DUP3 SWAP1 SUB PUSH1 0x1F AND DUP3 ADD SWAP2 JUMPDEST POP POP POP POP POP SWAP1 DUP1 PUSH1 0x1 ADD PUSH1 0x0 SWAP1 SLOAD SWAP1 PUSH2 0x100 EXP SWAP1 DIV PUSH2 0xFFFF AND SWAP1 POP DUP3 JUMP JUMPDEST PUSH2 0xB08 PUSH8 0x2B1063ED3337A6DA PUSH1 0xC0 SHL PUSH2 0x187C JUMP JUMPDEST PUSH2 0xB1C PUSH8 0xD4A0A67F908D7BB0 PUSH1 0xC0 SHL PUSH2 0x187C JUMP JUMPDEST PUSH2 0xB30 PUSH8 0x195A66FE0EB8744E PUSH1 0xC0 SHL PUSH2 0x187C JUMP JUMPDEST PUSH2 0xB44 PUSH8 0x329E1C9610AA2821 PUSH1 0xC0 SHL PUSH2 0x187C JUMP JUMPDEST PUSH1 0x1 SLOAD TIMESTAMP LT PUSH2 0xB88 JUMPI PUSH1 0x40 MLOAD PUSH32 0x8C379A000000000000000000000000000000000000000000000000000000000 DUP2 MSTORE PUSH1 0x4 ADD PUSH2 0xB7F SWAP1 PUSH2 0x1CC0 JUMP JUMPDEST PUSH1 0x40 MLOAD DUP1 SWAP2 SUB SWAP1 REVERT JUMPDEST PUSH2 0xB9C PUSH8 0x44773AAF3ADF2D45 PUSH1 0xC0 SHL PUSH2 0x187C JUMP JUMPDEST PUSH2 0xBB0 PUSH8 0xBC0B82B273C86252 PUSH1 0xC0 SHL PUSH2 0x187C JUMP JUMPDEST PUSH2 0xBC4 PUSH8 0x9D5F8BE5AACA4B97 PUSH1 0xC0 SHL PUSH2 0x187C JUMP JUMPDEST PUSH2 0xBD8 PUSH8 0xDDBFB81F88CEA8EC PUSH1 0xC0 SHL PUSH2 0x187C JUMP JUMPDEST PUSH1 0x3 PUSH1 0x0 CALLER PUSH20 0xFFFFFFFFFFFFFFFFFFFFFFFFFFFFFFFFFFFFFFFF AND PUSH20 0xFFFFFFFFFFFFFFFFFFFFFFFFFFFFFFFFFFFFFFFF AND DUP2 MSTORE PUSH1 0x20 ADD SWAP1 DUP2 MSTORE PUSH1 0x20 ADD PUSH1 0x0 KECCAK256 PUSH1 0x0 ADD PUSH1 0x0 SWAP1 SLOAD SWAP1 PUSH2 0x100 EXP SWAP1 DIV PUSH1 0xFF AND PUSH2 0xC67 JUMPI PUSH1 0x40 MLOAD PUSH32 0x8C379A000000000000000000000000000000000000000000000000000000000 DUP2 MSTORE PUSH1 0x4 ADD PUSH2 0xC5E SWAP1 PUSH2 0x1C80 JUMP JUMPDEST PUSH1 0x40 MLOAD DUP1 SWAP2 SUB SWAP1 REVERT JUMPDEST PUSH2 0xC7B PUSH8 0x4C8EDCDAF79BE0FF PUSH1 0xC0 SHL PUSH2 0x187C JUMP JUMPDEST PUSH2 0xC8F PUSH8 0x21702A3D712CD417 PUSH1 0xC0 SHL PUSH2 0x187C JUMP JUMPDEST PUSH2 0xCA3 PUSH8 0x6A8841ABC3901A99 PUSH1 0xC0 SHL PUSH2 0x187C JUMP JUMPDEST PUSH2 0xCB7 PUSH8 0xD322A25383681974 PUSH1 0xC0 SHL PUSH2 0x187C JUMP JUMPDEST PUSH1 0x3 PUSH1 0x0 CALLER PUSH20 0xFFFFFFFFFFFFFFFFFFFFFFFFFFFFFFFFFFFFFFFF AND PUSH20 0xFFFFFFFFFFFFFFFFFFFFFFFFFFFFFFFFFFFFFFFF AND DUP2 MSTORE PUSH1 0x20 ADD SWAP1 DUP2 MSTORE PUSH1 0x20 ADD PUSH1 0x0 KECCAK256 PUSH1 0x1 ADD DUP5 PUSH1 0xFF AND PUSH1 0x5 DUP2 LT PUSH2 0xD34 JUMPI PUSH32 0x4E487B7100000000000000000000000000000000000000000000000000000000 PUSH1 0x0 MSTORE PUSH1 0x32 PUSH1 0x4 MSTORE PUSH1 0x24 PUSH1 0x0 REVERT JUMPDEST ADD PUSH1 0x0 PUSH1 0x3 DUP2 LT PUSH2 0xD6E JUMPI PUSH32 0x4E487B7100000000000000000000000000000000000000000000000000000000 PUSH1 0x0 MSTORE PUSH1 0x32 PUSH1 0x4 MSTORE PUSH1 0x24 PUSH1 0x0 REVERT JUMPDEST PUSH1 0x20 SWAP2 DUP3 DUP3 DIV ADD SWAP2 SWAP1 MOD SWAP1 SLOAD SWAP1 PUSH2 0x100 EXP SWAP1 DIV PUSH1 0xFF AND ISZERO PUSH2 0xDC4 JUMPI PUSH1 0x40 MLOAD PUSH32 0x8C379A000000000000000000000000000000000000000000000000000000000 DUP2 MSTORE PUSH1 0x4 ADD PUSH2 0xDBB SWAP1 PUSH2 0x1C60 JUMP JUMPDEST PUSH1 0x40 MLOAD DUP1 SWAP2 SUB SWAP1 REVERT JUMPDEST PUSH2 0xDD8 PUSH8 0x18A4672567EF66E6 PUSH1 0xC0 SHL PUSH2 0x187C JUMP JUMPDEST PUSH2 0xDEC PUSH8 0x62FE2719093500AE PUSH1 0xC0 SHL PUSH2 0x187C JUMP JUMPDEST PUSH2 0xE00 PUSH8 0xC1AA1AB66EE81C97 PUSH1 0xC0 SHL PUSH2 0x187C JUMP JUMPDEST PUSH2 0xE14 PUSH8 0xD5A5DEE2B2A5B862 PUSH1 0xC0 SHL PUSH2 0x187C JUMP JUMPDEST PUSH1 0x4 DUP5 PUSH1 0xFF AND PUSH1 0x5 DUP2 LT PUSH2 0xE51 JUMPI PUSH32 0x4E487B7100000000000000000000000000000000000000000000000000000000 PUSH1 0x0 MSTORE PUSH1 0x32 PUSH1 0x4 MSTORE PUSH1 0x24 PUSH1 0x0 REVERT JUMPDEST ADD DUP1 SLOAD SWAP1 POP DUP4 PUSH1 0xFF AND LT DUP1 ISZERO PUSH2 0xEAA JUMPI POP PUSH1 0x4 DUP5 PUSH1 0xFF AND PUSH1 0x5 DUP2 LT PUSH2 0xE9F JUMPI PUSH32 0x4E487B7100000000000000000000000000000000000000000000000000000000 PUSH1 0x0 MSTORE PUSH1 0x32 PUSH1 0x4 MSTORE PUSH1 0x24 PUSH1 0x0 REVERT JUMPDEST ADD DUP1 SLOAD SWAP1 POP DUP3 PUSH1 0xFF AND LT JUMPDEST DUP1 ISZERO PUSH2 0xEF9 JUMPI POP PUSH1 0x4 DUP5 PUSH1 0xFF AND PUSH1 0x5 DUP2 LT PUSH2 0xEEE JUMPI PUSH32 0x4E487B7100000000000000000000000000000000000000000000000000000000 PUSH1 0x0 MSTORE PUSH1 0x32 PUSH1 0x4 MSTORE PUSH1 0x24 PUSH1 0x0 REVERT JUMPDEST ADD DUP1 SLOAD SWAP1 POP DUP2 PUSH1 0xFF AND LT JUMPDEST PUSH2 0xF38 JUMPI PUSH1 0x40 MLOAD PUSH32 0x8C379A000000000000000000000000000000000000000000000000000000000 DUP2 MSTORE PUSH1 0x4 ADD PUSH2 0xF2F SWAP1 PUSH2 0x1D00 JUMP JUMPDEST PUSH1 0x40 MLOAD DUP1 SWAP2 SUB SWAP1 REVERT JUMPDEST PUSH2 0xF4C PUSH8 0x84DF2F660C94E838 PUSH1 0xC0 SHL PUSH2 0x187C JUMP JUMPDEST PUSH2 0xF60 PUSH8 0x8FBF5D11E58F2F46 PUSH1 0xC0 SHL PUSH2 0x187C JUMP JUMPDEST PUSH1 0x1 PUSH1 0x3 PUSH1 0x0 CALLER PUSH20 0xFFFFFFFFFFFFFFFFFFFFFFFFFFFFFFFFFFFFFFFF AND PUSH20 0xFFFFFFFFFFFFFFFFFFFFFFFFFFFFFFFFFFFFFFFF AND DUP2 MSTORE PUSH1 0x20 ADD SWAP1 DUP2 MSTORE PUSH1 0x20 ADD PUSH1 0x0 KECCAK256 PUSH1 0x1 ADD DUP6 PUSH1 0xFF AND PUSH1 0x5 DUP2 LT PUSH2 0xFDF JUMPI PUSH32 0x4E487B7100000000000000000000000000000000000000000000000000000000 PUSH1 0x0 MSTORE PUSH1 0x32 PUSH1 0x4 MSTORE PUSH1 0x24 PUSH1 0x0 REVERT JUMPDEST ADD PUSH1 0x0 PUSH1 0x3 DUP2 LT PUSH2 0x1019 JUMPI PUSH32 0x4E487B7100000000000000000000000000000000000000000000000000000000 PUSH1 0x0 MSTORE PUSH1 0x32 PUSH1 0x4 MSTORE PUSH1 0x24 PUSH1 0x0 REVERT JUMPDEST PUSH1 0x20 SWAP2 DUP3 DUP3 DIV ADD SWAP2 SWAP1 MOD PUSH2 0x100 EXP DUP2 SLOAD DUP2 PUSH1 0xFF MUL NOT AND SWAP1 DUP4 ISZERO ISZERO MUL OR SWAP1 SSTORE POP PUSH2 0x104C PUSH8 0x20C90C69658A6ED PUSH1 0xC0 SHL PUSH2 0x187C JUMP JUMPDEST DUP3 PUSH1 0x3 PUSH1 0x0 CALLER PUSH20 0xFFFFFFFFFFFFFFFFFFFFFFFFFFFFFFFFFFFFFFFF AND PUSH20 0xFFFFFFFFFFFFFFFFFFFFFFFFFFFFFFFFFFFFFFFF AND DUP2 MSTORE PUSH1 0x20 ADD SWAP1 DUP2 MSTORE PUSH1 0x20 ADD PUSH1 0x0 KECCAK256 PUSH1 0x6 ADD DUP6 PUSH1 0xFF AND PUSH1 0x5 DUP2 LT PUSH2 0x10CA JUMPI PUSH32 0x4E487B7100000000000000000000000000000000000000000000000000000000 PUSH1 0x0 MSTORE PUSH1 0x32 PUSH1 0x4 MSTORE PUSH1 0x24 PUSH1 0x0 REVERT JUMPDEST ADD PUSH1 0x0 PUSH1 0x3 DUP2 LT PUSH2 0x1104 JUMPI PUSH32 0x4E487B7100000000000000000000000000000000000000000000000000000000 PUSH1 0x0 MSTORE PUSH1 0x32 PUSH1 0x4 MSTORE PUSH1 0x24 PUSH1 0x0 REVERT JUMPDEST PUSH1 0x20 SWAP2 DUP3 DUP3 DIV ADD SWAP2 SWAP1 MOD PUSH2 0x100 EXP DUP2 SLOAD DUP2 PUSH1 0xFF MUL NOT AND SWAP1 DUP4 PUSH1 0xFF AND MUL OR SWAP1 SSTORE POP PUSH2 0x1138 PUSH8 0x44FC023763750F3B PUSH1 0xC0 SHL PUSH2 0x187C JUMP JUMPDEST PUSH1 0x0 DUP1 PUSH1 0x3 DUP2 LT PUSH2 0x1172 JUMPI PUSH32 0x4E487B7100000000000000000000000000000000000000000000000000000000 PUSH1 0x0 MSTORE PUSH1 0x32 PUSH1 0x4 MSTORE PUSH1 0x24 PUSH1 0x0 REVERT JUMPDEST PUSH1 0x20 SWAP2 DUP3 DUP3 DIV ADD SWAP2 SWAP1 MOD SWAP1 SLOAD SWAP1 PUSH2 0x100 EXP SWAP1 DIV PUSH1 0xFF AND PUSH1 0xFF AND PUSH1 0x4 DUP6 PUSH1 0xFF AND PUSH1 0x5 DUP2 LT PUSH2 0x11C8 JUMPI PUSH32 0x4E487B7100000000000000000000000000000000000000000000000000000000 PUSH1 0x0 MSTORE PUSH1 0x32 PUSH1 0x4 MSTORE PUSH1 0x24 PUSH1 0x0 REVERT JUMPDEST ADD DUP5 PUSH1 0xFF AND DUP2 SLOAD DUP2 LT PUSH2 0x1204 JUMPI PUSH32 0x4E487B7100000000000000000000000000000000000000000000000000000000 PUSH1 0x0 MSTORE PUSH1 0x32 PUSH1 0x4 MSTORE PUSH1 0x24 PUSH1 0x0 REVERT JUMPDEST SWAP1 PUSH1 0x0 MSTORE PUSH1 0x20 PUSH1 0x0 KECCAK256 SWAP1 PUSH1 0x2 MUL ADD PUSH1 0x1 ADD PUSH1 0x0 DUP3 DUP3 DUP3 SWAP1 SLOAD SWAP1 PUSH2 0x100 EXP SWAP1 DIV PUSH2 0xFFFF AND PUSH2 0x1231 SWAP2 SWAP1 PUSH2 0x1D95 JUMP JUMPDEST SWAP3 POP PUSH2 0x100 EXP DUP2 SLOAD DUP2 PUSH2 0xFFFF MUL NOT AND SWAP1 DUP4 PUSH2 0xFFFF AND MUL OR SWAP1 SSTORE POP PUSH2 0x125F PUSH8 0x46E6A6100AEBF82E PUSH1 0xC0 SHL PUSH2 0x187C JUMP JUMPDEST PUSH1 0x1 PUSH1 0x3 PUSH1 0x0 CALLER PUSH20 0xFFFFFFFFFFFFFFFFFFFFFFFFFFFFFFFFFFFFFFFF AND PUSH20 0xFFFFFFFFFFFFFFFFFFFFFFFFFFFFFFFFFFFFFFFF AND DUP2 MSTORE PUSH1 0x20 ADD SWAP1 DUP2 MSTORE PUSH1 0x20 ADD PUSH1 0x0 KECCAK256 PUSH1 0x1 ADD DUP6 PUSH1 0xFF AND PUSH1 0x5 DUP2 LT PUSH2 0x12DE JUMPI PUSH32 0x4E487B7100000000000000000000000000000000000000000000000000000000 PUSH1 0x0 MSTORE PUSH1 0x32 PUSH1 0x4 MSTORE PUSH1 0x24 PUSH1 0x0 REVERT JUMPDEST ADD PUSH1 0x1 PUSH1 0x3 DUP2 LT PUSH2 0x1318 JUMPI PUSH32 0x4E487B7100000000000000000000000000000000000000000000000000000000 PUSH1 0x0 MSTORE PUSH1 0x32 PUSH1 0x4 MSTORE PUSH1 0x24 PUSH1 0x0 REVERT JUMPDEST PUSH1 0x20 SWAP2 DUP3 DUP3 DIV ADD SWAP2 SWAP1 MOD PUSH2 0x100 EXP DUP2 SLOAD DUP2 PUSH1 0xFF MUL NOT AND SWAP1 DUP4 ISZERO ISZERO MUL OR SWAP1 SSTORE POP PUSH2 0x134B PUSH8 0x250EEB54C277FB64 PUSH1 0xC0 SHL PUSH2 0x187C JUMP JUMPDEST DUP2 PUSH1 0x3 PUSH1 0x0 CALLER PUSH20 0xFFFFFFFFFFFFFFFFFFFFFFFFFFFFFFFFFFFFFFFF AND PUSH20 0xFFFFFFFFFFFFFFFFFFFFFFFFFFFFFFFFFFFFFFFF AND DUP2 MSTORE PUSH1 0x20 ADD SWAP1 DUP2 MSTORE PUSH1 0x20 ADD PUSH1 0x0 KECCAK256 PUSH1 0x6 ADD DUP6 PUSH1 0xFF AND PUSH1 0x5 DUP2 LT PUSH2 0x13C9 JUMPI PUSH32 0x4E487B7100000000000000000000000000000000000000000000000000000000 PUSH1 0x0 MSTORE PUSH1 0x32 PUSH1 0x4 MSTORE PUSH1 0x24 PUSH1 0x0 REVERT JUMPDEST ADD PUSH1 0x1 PUSH1 0x3 DUP2 LT PUSH2 0x1403 JUMPI PUSH32 0x4E487B7100000000000000000000000000000000000000000000000000000000 PUSH1 0x0 MSTORE PUSH1 0x32 PUSH1 0x4 MSTORE PUSH1 0x24 PUSH1 0x0 REVERT JUMPDEST PUSH1 0x20 SWAP2 DUP3 DUP3 DIV ADD SWAP2 SWAP1 MOD PUSH2 0x100 EXP DUP2 SLOAD DUP2 PUSH1 0xFF MUL NOT AND SWAP1 DUP4 PUSH1 0xFF AND MUL OR SWAP1 SSTORE POP PUSH2 0x1437 PUSH8 0x81FC72DBD10BD0B8 PUSH1 0xC0 SHL PUSH2 0x187C JUMP JUMPDEST PUSH1 0x0 PUSH1 0x1 PUSH1 0x3 DUP2 LT PUSH2 0x1472 JUMPI PUSH32 0x4E487B7100000000000000000000000000000000000000000000000000000000 PUSH1 0x0 MSTORE PUSH1 0x32 PUSH1 0x4 MSTORE PUSH1 0x24 PUSH1 0x0 REVERT JUMPDEST PUSH1 0x20 SWAP2 DUP3 DUP3 DIV ADD SWAP2 SWAP1 MOD SWAP1 SLOAD SWAP1 PUSH2 0x100 EXP SWAP1 DIV PUSH1 0xFF AND PUSH1 0xFF AND PUSH1 0x4 DUP6 PUSH1 0xFF AND PUSH1 0x5 DUP2 LT PUSH2 0x14C8 JUMPI PUSH32 0x4E487B7100000000000000000000000000000000000000000000000000000000 PUSH1 0x0 MSTORE PUSH1 0x32 PUSH1 0x4 MSTORE PUSH1 0x24 PUSH1 0x0 REVERT JUMPDEST ADD DUP4 PUSH1 0xFF AND DUP2 SLOAD DUP2 LT PUSH2 0x1504 JUMPI PUSH32 0x4E487B7100000000000000000000000000000000000000000000000000000000 PUSH1 0x0 MSTORE PUSH1 0x32 PUSH1 0x4 MSTORE PUSH1 0x24 PUSH1 0x0 REVERT JUMPDEST SWAP1 PUSH1 0x0 MSTORE PUSH1 0x20 PUSH1 0x0 KECCAK256 SWAP1 PUSH1 0x2 MUL ADD PUSH1 0x1 ADD PUSH1 0x0 DUP3 DUP3 DUP3 SWAP1 SLOAD SWAP1 PUSH2 0x100 EXP SWAP1 DIV PUSH2 0xFFFF AND PUSH2 0x1531 SWAP2 SWAP1 PUSH2 0x1D95 JUMP JUMPDEST SWAP3 POP PUSH2 0x100 EXP DUP2 SLOAD DUP2 PUSH2 0xFFFF MUL NOT AND SWAP1 DUP4 PUSH2 0xFFFF AND MUL OR SWAP1 SSTORE POP PUSH2 0x155F PUSH8 0x5C6EA253FAE1DEB3 PUSH1 0xC0 SHL PUSH2 0x187C JUMP JUMPDEST PUSH1 0x1 PUSH1 0x3 PUSH1 0x0 CALLER PUSH20 0xFFFFFFFFFFFFFFFFFFFFFFFFFFFFFFFFFFFFFFFF AND PUSH20 0xFFFFFFFFFFFFFFFFFFFFFFFFFFFFFFFFFFFFFFFF AND DUP2 MSTORE PUSH1 0x20 ADD SWAP1 DUP2 MSTORE PUSH1 0x20 ADD PUSH1 0x0 KECCAK256 PUSH1 0x1 ADD DUP6 PUSH1 0xFF AND PUSH1 0x5 DUP2 LT PUSH2 0x15DE JUMPI PUSH32 0x4E487B7100000000000000000000000000000000000000000000000000000000 PUSH1 0x0 MSTORE PUSH1 0x32 PUSH1 0x4 MSTORE PUSH1 0x24 PUSH1 0x0 REVERT JUMPDEST ADD PUSH1 0x2 PUSH1 0x3 DUP2 LT PUSH2 0x1618 JUMPI PUSH32 0x4E487B7100000000000000000000000000000000000000000000000000000000 PUSH1 0x0 MSTORE PUSH1 0x32 PUSH1 0x4 MSTORE PUSH1 0x24 PUSH1 0x0 REVERT JUMPDEST PUSH1 0x20 SWAP2 DUP3 DUP3 DIV ADD SWAP2 SWAP1 MOD PUSH2 0x100 EXP DUP2 SLOAD DUP2 PUSH1 0xFF MUL NOT AND SWAP1 DUP4 ISZERO ISZERO MUL OR SWAP1 SSTORE POP PUSH2 0x164B PUSH8 0xA28BA0F7A3B6BE8F PUSH1 0xC0 SHL PUSH2 0x187C JUMP JUMPDEST DUP1 PUSH1 0x3 PUSH1 0x0 CALLER PUSH20 0xFFFFFFFFFFFFFFFFFFFFFFFFFFFFFFFFFFFFFFFF AND PUSH20 0xFFFFFFFFFFFFFFFFFFFFFFFFFFFFFFFFFFFFFFFF AND DUP2 MSTORE PUSH1 0x20 ADD SWAP1 DUP2 MSTORE PUSH1 0x20 ADD PUSH1 0x0 KECCAK256 PUSH1 0x6 ADD DUP6 PUSH1 0xFF AND PUSH1 0x5 DUP2 LT PUSH2 0x16C9 JUMPI PUSH32 0x4E487B7100000000000000000000000000000000000000000000000000000000 PUSH1 0x0 MSTORE PUSH1 0x32 PUSH1 0x4 MSTORE PUSH1 0x24 PUSH1 0x0 REVERT JUMPDEST ADD PUSH1 0x2 PUSH1 0x3 DUP2 LT PUSH2 0x1703 JUMPI PUSH32 0x4E487B7100000000000000000000000000000000000000000000000000000000 PUSH1 0x0 MSTORE PUSH1 0x32 PUSH1 0x4 MSTORE PUSH1 0x24 PUSH1 0x0 REVERT JUMPDEST PUSH1 0x20 SWAP2 DUP3 DUP3 DIV ADD SWAP2 SWAP1 MOD PUSH2 0x100 EXP DUP2 SLOAD DUP2 PUSH1 0xFF MUL NOT AND SWAP1 DUP4 PUSH1 0xFF AND MUL OR SWAP1 SSTORE POP PUSH2 0x1737 PUSH8 0xFC92F7180DA2CD7F PUSH1 0xC0 SHL PUSH2 0x187C JUMP JUMPDEST PUSH1 0x0 PUSH1 0x2 PUSH1 0x3 DUP2 LT PUSH2 0x1772 JUMPI PUSH32 0x4E487B7100000000000000000000000000000000000000000000000000000000 PUSH1 0x0 MSTORE PUSH1 0x32 PUSH1 0x4 MSTORE PUSH1 0x24 PUSH1 0x0 REVERT JUMPDEST PUSH1 0x20 SWAP2 DUP3 DUP3 DIV ADD SWAP2 SWAP1 MOD SWAP1 SLOAD SWAP1 PUSH2 0x100 EXP SWAP1 DIV PUSH1 0xFF AND PUSH1 0xFF AND PUSH1 0x4 DUP6 PUSH1 0xFF AND PUSH1 0x5 DUP2 LT PUSH2 0x17C8 JUMPI PUSH32 0x4E487B7100000000000000000000000000000000000000000000000000000000 PUSH1 0x0 MSTORE PUSH1 0x32 PUSH1 0x4 MSTORE PUSH1 0x24 PUSH1 0x0 REVERT JUMPDEST ADD DUP3 PUSH1 0xFF AND DUP2 SLOAD DUP2 LT PUSH2 0x1804 JUMPI PUSH32 0x4E487B7100000000000000000000000000000000000000000000000000000000 PUSH1 0x0 MSTORE PUSH1 0x32 PUSH1 0x4 MSTORE PUSH1 0x24 PUSH1 0x0 REVERT JUMPDEST SWAP1 PUSH1 0x0 MSTORE PUSH1 0x20 PUSH1 0x0 KECCAK256 SWAP1 PUSH1 0x2 MUL ADD PUSH1 0x1 ADD PUSH1 0x0 DUP3 DUP3 DUP3 SWAP1 SLOAD SWAP1 PUSH2 0x100 EXP SWAP1 DIV PUSH2 0xFFFF AND PUSH2 0x1831 SWAP2 SWAP1 PUSH2 0x1D95 JUMP JUMPDEST SWAP3 POP PUSH2 0x100 EXP DUP2 SLOAD DUP2 PUSH2 0xFFFF MUL NOT AND SWAP1 DUP4 PUSH2 0xFFFF AND MUL OR SWAP1 SSTORE POP POP POP POP POP JUMP JUMPDEST PUSH1 0x3 PUSH1 0x20 MSTORE DUP1 PUSH1 0x0 MSTORE PUSH1 0x40 PUSH1 0x0 KECCAK256 PUSH1 0x0 SWAP2 POP SWAP1 POP DUP1 PUSH1 0x0 ADD PUSH1 0x0 SWAP1 SLOAD SWAP1 PUSH2 0x100 EXP SWAP1 DIV PUSH1 0xFF AND SWAP1 POP DUP2 JUMP JUMPDEST POP JUMP JUMPDEST PUSH1 0x40 MLOAD DUP1 PUSH1 0xA0 ADD PUSH1 0x40 MSTORE DUP1 PUSH1 0x5 SWAP1 JUMPDEST PUSH1 0x60 DUP2 MSTORE PUSH1 0x20 ADD SWAP1 PUSH1 0x1 SWAP1 SUB SWAP1 DUP2 PUSH2 0x188E JUMPI SWAP1 POP POP SWAP1 JUMP JUMPDEST PUSH1 0x40 MLOAD DUP1 PUSH1 0xA0 ADD PUSH1 0x40 MSTORE DUP1 PUSH1 0x5 SWAP1 PUSH1 0x20 DUP3 MUL DUP1 CALLDATASIZE DUP4 CALLDATACOPY DUP1 DUP3 ADD SWAP2 POP POP SWAP1 POP POP SWAP1 JUMP JUMPDEST PUSH1 0x0 DUP2 CALLDATALOAD SWAP1 POP PUSH2 0x18D7 DUP2 PUSH2 0x2070 JUMP JUMPDEST SWAP3 SWAP2 POP POP JUMP JUMPDEST PUSH1 0x0 DUP2 CALLDATALOAD SWAP1 POP PUSH2 0x18EC DUP2 PUSH2 0x2087 JUMP JUMPDEST SWAP3 SWAP2 POP POP JUMP JUMPDEST PUSH1 0x0 DUP2 CALLDATALOAD SWAP1 POP PUSH2 0x1901 DUP2 PUSH2 0x209E JUMP JUMPDEST SWAP3 SWAP2 POP POP JUMP JUMPDEST PUSH1 0x0 PUSH1 0x20 DUP3 DUP5 SUB SLT ISZERO PUSH2 0x1919 JUMPI PUSH1 0x0 DUP1 REVERT JUMPDEST PUSH1 0x0 PUSH2 0x1927 DUP5 DUP3 DUP6 ADD PUSH2 0x18C8 JUMP JUMPDEST SWAP2 POP POP SWAP3 SWAP2 POP POP JUMP JUMPDEST PUSH1 0x0 DUP1 PUSH1 0x40 DUP4 DUP6 SUB SLT ISZERO PUSH2 0x1943 JUMPI PUSH1 0x0 DUP1 REVERT JUMPDEST PUSH1 0x0 PUSH2 0x1951 DUP6 DUP3 DUP7 ADD PUSH2 0x18DD JUMP JUMPDEST SWAP3 POP POP PUSH1 0x20 PUSH2 0x1962 DUP6 DUP3 DUP7 ADD PUSH2 0x18DD JUMP JUMPDEST SWAP2 POP POP SWAP3 POP SWAP3 SWAP1 POP JUMP JUMPDEST PUSH1 0x0 DUP1 PUSH1 0x0 DUP1 PUSH1 0x80 DUP6 DUP8 SUB SLT ISZERO PUSH2 0x1982 JUMPI PUSH1 0x0 DUP1 REVERT JUMPDEST PUSH1 0x0 PUSH2 0x1990 DUP8 DUP3 DUP9 ADD PUSH2 0x18F2 JUMP JUMPDEST SWAP5 POP POP PUSH1 0x20 PUSH2 0x19A1 DUP8 DUP3 DUP9 ADD PUSH2 0x18F2 JUMP JUMPDEST SWAP4 POP POP PUSH1 0x40 PUSH2 0x19B2 DUP8 DUP3 DUP9 ADD PUSH2 0x18F2 JUMP JUMPDEST SWAP3 POP POP PUSH1 0x60 PUSH2 0x19C3 DUP8 DUP3 DUP9 ADD PUSH2 0x18F2 JUMP JUMPDEST SWAP2 POP POP SWAP3 SWAP6 SWAP2 SWAP5 POP SWAP3 POP JUMP JUMPDEST PUSH1 0x0 PUSH2 0x19DB DUP4 DUP4 PUSH2 0x1A76 JUMP JUMPDEST SWAP1 POP SWAP3 SWAP2 POP POP JUMP JUMPDEST PUSH2 0x19EC DUP2 PUSH2 0x1DCD JUMP JUMPDEST DUP3 MSTORE POP POP JUMP JUMPDEST PUSH1 0x0 PUSH2 0x19FD DUP3 PUSH2 0x1D45 JUMP JUMPDEST PUSH2 0x1A07 DUP2 DUP6 PUSH2 0x1D68 JUMP JUMPDEST SWAP4 POP DUP4 PUSH1 0x20 DUP3 MUL DUP6 ADD PUSH2 0x1A19 DUP6 PUSH2 0x1D3B JUMP JUMPDEST DUP1 PUSH1 0x0 JUMPDEST DUP6 DUP2 LT ISZERO PUSH2 0x1A55 JUMPI DUP5 DUP5 SUB DUP10 MSTORE DUP2 MLOAD PUSH2 0x1A36 DUP6 DUP3 PUSH2 0x19CF JUMP JUMPDEST SWAP5 POP PUSH2 0x1A41 DUP4 PUSH2 0x1D5B JUMP JUMPDEST SWAP3 POP PUSH1 0x20 DUP11 ADD SWAP10 POP POP PUSH1 0x1 DUP2 ADD SWAP1 POP PUSH2 0x1A1D JUMP JUMPDEST POP DUP3 SWAP8 POP DUP8 SWAP6 POP POP POP POP POP POP SWAP3 SWAP2 POP POP JUMP JUMPDEST PUSH2 0x1A70 DUP2 PUSH2 0x1DDF JUMP JUMPDEST DUP3 MSTORE POP POP JUMP JUMPDEST PUSH1 0x0 PUSH2 0x1A81 DUP3 PUSH2 0x1D50 JUMP JUMPDEST PUSH2 0x1A8B DUP2 DUP6 PUSH2 0x1D73 JUMP JUMPDEST SWAP4 POP PUSH2 0x1A9B DUP2 DUP6 PUSH1 0x20 DUP7 ADD PUSH2 0x1E30 JUMP JUMPDEST PUSH2 0x1AA4 DUP2 PUSH2 0x1F1D JUMP JUMPDEST DUP5 ADD SWAP2 POP POP SWAP3 SWAP2 POP POP JUMP JUMPDEST PUSH1 0x0 PUSH2 0x1ABA DUP3 PUSH2 0x1D50 JUMP JUMPDEST PUSH2 0x1AC4 DUP2 DUP6 PUSH2 0x1D84 JUMP JUMPDEST SWAP4 POP PUSH2 0x1AD4 DUP2 DUP6 PUSH1 0x20 DUP7 ADD PUSH2 0x1E30 JUMP JUMPDEST PUSH2 0x1ADD DUP2 PUSH2 0x1F1D JUMP JUMPDEST DUP5 ADD SWAP2 POP POP SWAP3 SWAP2 POP POP JUMP JUMPDEST PUSH1 0x0 PUSH2 0x1AF5 PUSH1 0x29 DUP4 PUSH2 0x1D84 JUMP JUMPDEST SWAP2 POP PUSH2 0x1B00 DUP3 PUSH2 0x1F2E JUMP JUMPDEST PUSH1 0x40 DUP3 ADD SWAP1 POP SWAP2 SWAP1 POP JUMP JUMPDEST PUSH1 0x0 PUSH2 0x1B18 PUSH1 0x20 DUP4 PUSH2 0x1D84 JUMP JUMPDEST SWAP2 POP PUSH2 0x1B23 DUP3 PUSH2 0x1F7D JUMP JUMPDEST PUSH1 0x20 DUP3 ADD SWAP1 POP SWAP2 SWAP1 POP JUMP JUMPDEST PUSH1 0x0 PUSH2 0x1B3B PUSH1 0x31 DUP4 PUSH2 0x1D84 JUMP JUMPDEST SWAP2 POP PUSH2 0x1B46 DUP3 PUSH2 0x1FA6 JUMP JUMPDEST PUSH1 0x40 DUP3 ADD SWAP1 POP SWAP2 SWAP1 POP JUMP JUMPDEST PUSH1 0x0 PUSH2 0x1B5E PUSH1 0x13 DUP4 PUSH2 0x1D84 JUMP JUMPDEST SWAP2 POP PUSH2 0x1B69 DUP3 PUSH2 0x1FF5 JUMP JUMPDEST PUSH1 0x20 DUP3 ADD SWAP1 POP SWAP2 SWAP1 POP JUMP JUMPDEST PUSH1 0x0 PUSH2 0x1B81 PUSH1 0x1C DUP4 PUSH2 0x1D84 JUMP JUMPDEST SWAP2 POP PUSH2 0x1B8C DUP3 PUSH2 0x201E JUMP JUMPDEST PUSH1 0x20 DUP3 ADD SWAP1 POP SWAP2 SWAP1 POP JUMP JUMPDEST PUSH1 0x0 PUSH2 0x1BA4 PUSH1 0x19 DUP4 PUSH2 0x1D84 JUMP JUMPDEST SWAP2 POP PUSH2 0x1BAF DUP3 PUSH2 0x2047 JUMP JUMPDEST PUSH1 0x20 DUP3 ADD SWAP1 POP SWAP2 SWAP1 POP JUMP JUMPDEST PUSH2 0x1BC3 DUP2 PUSH2 0x1DEB JUMP JUMPDEST DUP3 MSTORE POP POP JUMP JUMPDEST PUSH2 0x1BD2 DUP2 PUSH2 0x1E19 JUMP JUMPDEST DUP3 MSTORE POP POP JUMP JUMPDEST PUSH1 0x0 PUSH1 0x20 DUP3 ADD SWAP1 POP PUSH2 0x1BED PUSH1 0x0 DUP4 ADD DUP5 PUSH2 0x19E3 JUMP JUMPDEST SWAP3 SWAP2 POP POP JUMP JUMPDEST PUSH1 0x0 PUSH1 0x20 DUP3 ADD SWAP1 POP DUP2 DUP2 SUB PUSH1 0x0 DUP4 ADD MSTORE PUSH2 0x1C0D DUP2 DUP5 PUSH2 0x19F2 JUMP JUMPDEST SWAP1 POP SWAP3 SWAP2 POP POP JUMP JUMPDEST PUSH1 0x0 PUSH1 0x20 DUP3 ADD SWAP1 POP PUSH2 0x1C2A PUSH1 0x0 DUP4 ADD DUP5 PUSH2 0x1A67 JUMP JUMPDEST SWAP3 SWAP2 POP POP JUMP JUMPDEST PUSH1 0x0 PUSH1 0x40 DUP3 ADD SWAP1 POP DUP2 DUP2 SUB PUSH1 0x0 DUP4 ADD MSTORE PUSH2 0x1C4A DUP2 DUP6 PUSH2 0x1AAF JUMP JUMPDEST SWAP1 POP PUSH2 0x1C59 PUSH1 0x20 DUP4 ADD DUP5 PUSH2 0x1BBA JUMP JUMPDEST SWAP4 SWAP3 POP POP POP JUMP JUMPDEST PUSH1 0x0 PUSH1 0x20 DUP3 ADD SWAP1 POP DUP2 DUP2 SUB PUSH1 0x0 DUP4 ADD MSTORE PUSH2 0x1C79 DUP2 PUSH2 0x1AE8 JUMP JUMPDEST SWAP1 POP SWAP2 SWAP1 POP JUMP JUMPDEST PUSH1 0x0 PUSH1 0x20 DUP3 ADD SWAP1 POP DUP2 DUP2 SUB PUSH1 0x0 DUP4 ADD MSTORE PUSH2 0x1C99 DUP2 PUSH2 0x1B0B JUMP JUMPDEST SWAP1 POP SWAP2 SWAP1 POP JUMP JUMPDEST PUSH1 0x0 PUSH1 0x20 DUP3 ADD SWAP1 POP DUP2 DUP2 SUB PUSH1 0x0 DUP4 ADD MSTORE PUSH2 0x1CB9 DUP2 PUSH2 0x1B2E JUMP JUMPDEST SWAP1 POP SWAP2 SWAP1 POP JUMP JUMPDEST PUSH1 0x0 PUSH1 0x20 DUP3 ADD SWAP1 POP DUP2 DUP2 SUB PUSH1 0x0 DUP4 ADD MSTORE PUSH2 0x1CD9 DUP2 PUSH2 0x1B51 JUMP JUMPDEST SWAP1 POP SWAP2 SWAP1 POP JUMP JUMPDEST PUSH1 0x0 PUSH1 0x20 DUP3 ADD SWAP1 POP DUP2 DUP2 SUB PUSH1 0x0 DUP4 ADD MSTORE PUSH2 0x1CF9 DUP2 PUSH2 0x1B74 JUMP JUMPDEST SWAP1 POP SWAP2 SWAP1 POP JUMP JUMPDEST PUSH1 0x0 PUSH1 0x20 DUP3 ADD SWAP1 POP DUP2 DUP2 SUB PUSH1 0x0 DUP4 ADD MSTORE PUSH2 0x1D19 DUP2 PUSH2 0x1B97 JUMP JUMPDEST SWAP1 POP SWAP2 SWAP1 POP JUMP JUMPDEST PUSH1 0x0 PUSH1 0x20 DUP3 ADD SWAP1 POP PUSH2 0x1D35 PUSH1 0x0 DUP4 ADD DUP5 PUSH2 0x1BC9 JUMP JUMPDEST SWAP3 SWAP2 POP POP JUMP JUMPDEST PUSH1 0x0 DUP2 SWAP1 POP SWAP2 SWAP1 POP JUMP JUMPDEST PUSH1 0x0 PUSH1 0x5 SWAP1 POP SWAP2 SWAP1 POP JUMP JUMPDEST PUSH1 0x0 DUP2 MLOAD SWAP1 POP SWAP2 SWAP1 POP JUMP JUMPDEST PUSH1 0x0 PUSH1 0x20 DUP3 ADD SWAP1 POP SWAP2 SWAP1 POP JUMP JUMPDEST PUSH1 0x0 DUP2 SWAP1 POP SWAP3 SWAP2 POP POP JUMP JUMPDEST PUSH1 0x0 DUP3 DUP3 MSTORE PUSH1 0x20 DUP3 ADD SWAP1 POP SWAP3 SWAP2 POP POP JUMP JUMPDEST PUSH1 0x0 DUP3 DUP3 MSTORE PUSH1 0x20 DUP3 ADD SWAP1 POP SWAP3 SWAP2 POP POP JUMP JUMPDEST PUSH1 0x0 PUSH2 0x1DA0 DUP3 PUSH2 0x1DEB JUMP JUMPDEST SWAP2 POP PUSH2 0x1DAB DUP4 PUSH2 0x1DEB JUMP JUMPDEST SWAP3 POP DUP3 PUSH2 0xFFFF SUB DUP3 GT ISZERO PUSH2 0x1DC2 JUMPI PUSH2 0x1DC1 PUSH2 0x1EBF JUMP JUMPDEST JUMPDEST DUP3 DUP3 ADD SWAP1 POP SWAP3 SWAP2 POP POP JUMP JUMPDEST PUSH1 0x0 PUSH2 0x1DD8 DUP3 PUSH2 0x1DF9 JUMP JUMPDEST SWAP1 POP SWAP2 SWAP1 POP JUMP JUMPDEST PUSH1 0x0 DUP2 ISZERO ISZERO SWAP1 POP SWAP2 SWAP1 POP JUMP JUMPDEST PUSH1 0x0 PUSH2 0xFFFF DUP3 AND SWAP1 POP SWAP2 SWAP1 POP JUMP JUMPDEST PUSH1 0x0 PUSH20 0xFFFFFFFFFFFFFFFFFFFFFFFFFFFFFFFFFFFFFFFF DUP3 AND SWAP1 POP SWAP2 SWAP1 POP JUMP JUMPDEST PUSH1 0x0 DUP2 SWAP1 POP SWAP2 SWAP1 POP JUMP JUMPDEST PUSH1 0x0 PUSH1 0xFF DUP3 AND SWAP1 POP SWAP2 SWAP1 POP JUMP JUMPDEST PUSH1 0x0 JUMPDEST DUP4 DUP2 LT ISZERO PUSH2 0x1E4E JUMPI DUP1 DUP3 ADD MLOAD DUP2 DUP5 ADD MSTORE PUSH1 0x20 DUP2 ADD SWAP1 POP PUSH2 0x1E33 JUMP JUMPDEST DUP4 DUP2 GT ISZERO PUSH2 0x1E5D JUMPI PUSH1 0x0 DUP5 DUP5 ADD MSTORE JUMPDEST POP POP POP POP JUMP JUMPDEST PUSH1 0x0 PUSH1 0x2 DUP3 DIV SWAP1 POP PUSH1 0x1 DUP3 AND DUP1 PUSH2 0x1E7B JUMPI PUSH1 0x7F DUP3 AND SWAP2 POP JUMPDEST PUSH1 0x20 DUP3 LT DUP2 EQ ISZERO PUSH2 0x1E8F JUMPI PUSH2 0x1E8E PUSH2 0x1EEE JUMP JUMPDEST JUMPDEST POP SWAP2 SWAP1 POP JUMP JUMPDEST PUSH1 0x0 PUSH2 0x1EA0 DUP3 PUSH2 0x1E23 JUMP JUMPDEST SWAP2 POP PUSH1 0xFF DUP3 EQ ISZERO PUSH2 0x1EB4 JUMPI PUSH2 0x1EB3 PUSH2 0x1EBF JUMP JUMPDEST JUMPDEST PUSH1 0x1 DUP3 ADD SWAP1 POP SWAP2 SWAP1 POP JUMP JUMPDEST PUSH32 0x4E487B7100000000000000000000000000000000000000000000000000000000 PUSH1 0x0 MSTORE PUSH1 0x11 PUSH1 0x4 MSTORE PUSH1 0x24 PUSH1 0x0 REVERT JUMPDEST PUSH32 0x4E487B7100000000000000000000000000000000000000000000000000000000 PUSH1 0x0 MSTORE PUSH1 0x22 PUSH1 0x4 MSTORE PUSH1 0x24 PUSH1 0x0 REVERT JUMPDEST PUSH1 0x0 PUSH1 0x1F NOT PUSH1 0x1F DUP4 ADD AND SWAP1 POP SWAP2 SWAP1 POP JUMP JUMPDEST PUSH32 0x596F75206861766520616C726561647920766F74656420666F72207468697320 PUSH1 0x0 DUP3 ADD MSTORE PUSH32 0x706F736974696F6E2E0000000000000000000000000000000000000000000000 PUSH1 0x20 DUP3 ADD MSTORE POP JUMP JUMPDEST PUSH32 0x4F6E6C79207265676973746572656420766F746572732063616E20766F74652E PUSH1 0x0 DUP3 ADD MSTORE POP JUMP JUMPDEST PUSH32 0x4F6E6C792074686520656C656374696F6E206C65616465722063616E20677261 PUSH1 0x0 DUP3 ADD MSTORE PUSH32 0x6E7420766F74696E67207269676874732E000000000000000000000000000000 PUSH1 0x20 DUP3 ADD MSTORE POP JUMP JUMPDEST PUSH32 0x456C656374696F6E2068617320656E6465642E00000000000000000000000000 PUSH1 0x0 DUP3 ADD MSTORE POP JUMP JUMPDEST PUSH32 0x566F74657220697320616C726561647920726567697374657265642E00000000 PUSH1 0x0 DUP3 ADD MSTORE POP JUMP JUMPDEST PUSH32 0x43616E64696461746520646F6573206E6F742065786973742E00000000000000 PUSH1 0x0 DUP3 ADD MSTORE POP JUMP JUMPDEST PUSH2 0x2079 DUP2 PUSH2 0x1DCD JUMP JUMPDEST DUP2 EQ PUSH2 0x2084 JUMPI PUSH1 0x0 DUP1 REVERT JUMPDEST POP JUMP JUMPDEST PUSH2 0x2090 DUP2 PUSH2 0x1E19 JUMP JUMPDEST DUP2 EQ PUSH2 0x209B JUMPI PUSH1 0x0 DUP1 REVERT JUMPDEST POP JUMP JUMPDEST PUSH2 0x20A7 DUP2 PUSH2 0x1E23 JUMP JUMPDEST DUP2 EQ PUSH2 0x20B2 JUMPI PUSH1 0x0 DUP1 REVERT JUMPDEST POP JUMP INVALID LOG2 PUSH5 0x6970667358 0x22 SLT KECCAK256 0x4E 0x4D SAR CREATE2 PUSH3 0x8DEB35 0xE MSTORE8 0xA6 0x2F NOT 0xAA LOG1 0xA6 0xDF 0x22 COINBASE 0xAB 0xB7 STATICCALL POP PUSH31 0xA153D25743965DAF64736F6C63430008040033000000000000000000000000 "},"methodIdentifiers":{"candidates(uint256,uint256)":"7de14242","castVote(uint8,uint8,uint8,uint8)":"85c56e19","endTime()":"3197cbb6","leader()":"40eedabb","registerVoter(address)":"38db6dd3","voters(address)":"a3ec138d","winningCandidatesName()":"510d9645"}}}}}