{
  "_format": "hh-sol-artifact-1",
  "contractName": "Election",
  "sourceName": "contracts/Election.sol",
  "abi": [
    {
      "inputs": [
        {
          "internalType": "string[][5]",
          "name": "_candidateNames",
          "type": "string[][5]"
        },
        {
          "internalType": "uint256",
          "name": "_endTime",
          "type": "uint256"
        }
      ],
      "stateMutability": "nonpayable",
      "type": "constructor"
    },
    {
      "inputs": [
        {
          "internalType": "uint256",
          "name": "",
          "type": "uint256"
        },
        {
          "internalType": "uint256",
          "name": "",
          "type": "uint256"
        }
      ],
      "name": "candidates",
      "outputs": [
        {
          "internalType": "string",
          "name": "name",
          "type": "string"
        },
        {
          "internalType": "uint16",
          "name": "votes",
          "type": "uint16"
        }
      ],
      "stateMutability": "view",
      "type": "function"
    },
    {
      "inputs": [
        {
          "internalType": "uint8",
          "name": "position",
          "type": "uint8"
        },
        {
          "internalType": "uint8",
          "name": "preference1",
          "type": "uint8"
        },
        {
          "internalType": "uint8",
          "name": "preference2",
          "type": "uint8"
        },
        {
          "internalType": "uint8",
          "name": "preference3",
          "type": "uint8"
        }
      ],
      "name": "castVote",
      "outputs": [],
      "stateMutability": "nonpayable",
      "type": "function"
    },
    {
      "inputs": [],
      "name": "endTime",
      "outputs": [
        {
          "internalType": "uint256",
          "name": "",
          "type": "uint256"
        }
      ],
      "stateMutability": "view",
      "type": "function"
    },
    {
      "inputs": [],
      "name": "leader",
      "outputs": [
        {
          "internalType": "address",
          "name": "",
          "type": "address"
        }
      ],
      "stateMutability": "view",
      "type": "function"
    },
    {
      "inputs": [
        {
          "internalType": "address",
          "name": "voter",
          "type": "address"
        }
      ],
      "name": "registerVoter",
      "outputs": [],
      "stateMutability": "nonpayable",
      "type": "function"
    },
    {
      "inputs": [
        {
          "internalType": "address",
          "name": "",
          "type": "address"
        }
      ],
      "name": "voters",
      "outputs": [
        {
          "internalType": "bool",
          "name": "registered",
          "type": "bool"
        }
      ],
      "stateMutability": "view",
      "type": "function"
    },
    {
      "inputs": [],
      "name": "winningCandidate",
      "outputs": [
        {
          "internalType": "uint8[5]",
          "name": "winningCandidates_",
          "type": "uint8[5]"
        }
      ],
      "stateMutability": "view",
      "type": "function"
    },
    {
      "inputs": [],
      "name": "winningCandidatesName",
      "outputs": [
        {
          "internalType": "string[5]",
          "name": "winnersName_",
          "type": "string[5]"
        }
      ],
      "stateMutability": "view",
      "type": "function"
    }
  ],
  "bytecode": "0x60806040526040518060600160405280600560ff168152602001600360ff168152602001600160ff1681525060009060036200003d9291906200035d565b503480156200004b57600080fd5b5060405162002704380380620027048339818101604052810190620000719190620006a5565b804210620000b6576040517f08c379a0000000000000000000000000000000000000000000000000000000008152600401620000ad9062000726565b60405180910390fd5b33600260006101000a81548173ffffffffffffffffffffffffffffffffffffffff021916908373ffffffffffffffffffffffffffffffffffffffff160217905550600160036000600260009054906101000a900473ffffffffffffffffffffffffffffffffffffffff1673ffffffffffffffffffffffffffffffffffffffff1673ffffffffffffffffffffffffffffffffffffffff16815260200190815260200160002060000160006101000a81548160ff02191690831515021790555060005b60058160ff1610156200034d5760005b838260ff1660058110620001c4577f4e487b7100000000000000000000000000000000000000000000000000000000600052603260045260246000fd5b6020020151518160ff161015620003365760048260ff166005811062000213577f4e487b7100000000000000000000000000000000000000000000000000000000600052603260045260246000fd5b016040518060400160405280868560ff16600581106200025c577f4e487b7100000000000000000000000000000000000000000000000000000000600052603260045260246000fd5b60200201518460ff16815181106200029d577f4e487b7100000000000000000000000000000000000000000000000000000000600052603260045260246000fd5b60200260200101518152602001600061ffff1681525090806001815401808255809150506001900390600052602060002090600202016000909190919091506000820151816000019080519060200190620002fa929190620003fe565b5060208201518160010160006101000a81548161ffff021916908361ffff160217905550505080806200032d90620008c9565b91505062000187565b5080806200034490620008c9565b91505062000177565b50806001819055505050620009d9565b826003601f01602090048101928215620003eb5791602002820160005b83821115620003ba57835183826101000a81548160ff021916908360ff16021790555092602001926001016020816000010492830192600103026200037a565b8015620003e95782816101000a81549060ff0219169055600101602081600001049283019260010302620003ba565b505b509050620003fa91906200048f565b5090565b8280546200040c906200085d565b90600052602060002090601f0160209004810192826200043057600085556200047c565b82601f106200044b57805160ff19168380011785556200047c565b828001600101855582156200047c579182015b828111156200047b5782518255916020019190600101906200045e565b5b5090506200048b91906200048f565b5090565b5b80821115620004aa57600081600090555060010162000490565b5090565b6000620004c5620004bf8462000771565b62000748565b90508082856020860282011115620004dc57600080fd5b60005b858110156200052b57815167ffffffffffffffff8111156200050057600080fd5b8086016200050f898262000634565b85526020850194506020840193505050600181019050620004df565b5050509392505050565b60006200054c62000546846200079a565b62000748565b905080838252602082019050828560208602820111156200056c57600080fd5b60005b85811015620005bb57815167ffffffffffffffff8111156200059057600080fd5b8086016200059f898262000661565b855260208501945060208401935050506001810190506200056f565b5050509392505050565b6000620005dc620005d684620007c9565b62000748565b905082815260208101848484011115620005f557600080fd5b6200060284828562000827565b509392505050565b600082601f8301126200061c57600080fd5b60056200062b848285620004ae565b91505092915050565b600082601f8301126200064657600080fd5b81516200065884826020860162000535565b91505092915050565b600082601f8301126200067357600080fd5b815162000685848260208601620005c5565b91505092915050565b6000815190506200069f81620009bf565b92915050565b60008060408385031215620006b957600080fd5b600083015167ffffffffffffffff811115620006d457600080fd5b620006e2858286016200060a565b9250506020620006f5858286016200068e565b9150509250929050565b60006200070e601f83620007ff565b91506200071b8262000996565b602082019050919050565b600060208201905081810360008301526200074181620006ff565b9050919050565b60006200075462000767565b905062000762828262000893565b919050565b6000604051905090565b600067ffffffffffffffff8211156200078f576200078e62000956565b5b602082029050919050565b600067ffffffffffffffff821115620007b857620007b762000956565b5b602082029050602081019050919050565b600067ffffffffffffffff821115620007e757620007e662000956565b5b620007f28262000985565b9050602081019050919050565b600082825260208201905092915050565b6000819050919050565b600060ff82169050919050565b60005b83811015620008475780820151818401526020810190506200082a565b8381111562000857576000848401525b50505050565b600060028204905060018216806200087657607f821691505b602082108114156200088d576200088c62000927565b5b50919050565b6200089e8262000985565b810181811067ffffffffffffffff82111715620008c057620008bf62000956565b5b80604052505050565b6000620008d6826200081a565b915060ff821415620008ed57620008ec620008f8565b5b600182019050919050565b7f4e487b7100000000000000000000000000000000000000000000000000000000600052601160045260246000fd5b7f4e487b7100000000000000000000000000000000000000000000000000000000600052602260045260246000fd5b7f4e487b7100000000000000000000000000000000000000000000000000000000600052604160045260246000fd5b6000601f19601f8301169050919050565b7f456e642074696d65206d75737420626520696e20746865206675747572652e00600082015250565b620009ca8162000810565b8114620009d657600080fd5b50565b611d1b80620009e96000396000f3fe608060405234801561001057600080fd5b50600436106100885760003560e01c80637de142421161005b5780637de142421461010357806385c56e1914610134578063a3ec138d14610150578063d28178d71461018057610088565b80633197cbb61461008d57806338db6dd3146100ab57806340eedabb146100c7578063510d9645146100e5575b600080fd5b61009561019e565b6040516100a29190611923565b60405180910390f35b6100c560048036038101906100c09190611471565b6101a4565b005b6100cf610366565b6040516100dc91906117c0565b60405180910390f35b6100ed61038c565b6040516100fa91906117db565b60405180910390f35b61011d6004803603810190610118919061149a565b61055e565b60405161012b929190611833565b60405180910390f35b61014e600480360381019061014991906114d6565b610638565b005b61016a60048036038101906101659190611471565b61118d565b6040516101779190611818565b60405180910390f35b6101886111b8565b60405161019591906117fd565b60405180910390f35b60015481565b60015442106101e8576040517f08c379a00000000000000000000000000000000000000000000000000000000081526004016101df906118c3565b60405180910390fd5b600260009054906101000a900473ffffffffffffffffffffffffffffffffffffffff1673ffffffffffffffffffffffffffffffffffffffff163373ffffffffffffffffffffffffffffffffffffffff1614610278576040517f08c379a000000000000000000000000000000000000000000000000000000000815260040161026f906118a3565b60405180910390fd5b600360008273ffffffffffffffffffffffffffffffffffffffff1673ffffffffffffffffffffffffffffffffffffffff16815260200190815260200160002060000160009054906101000a900460ff1615610308576040517f08c379a00000000000000000000000000000000000000000000000000000000081526004016102ff906118e3565b60405180910390fd5b6001600360008373ffffffffffffffffffffffffffffffffffffffff1673ffffffffffffffffffffffffffffffffffffffff16815260200190815260200160002060000160006101000a81548160ff02191690831515021790555050565b600260009054906101000a900473ffffffffffffffffffffffffffffffffffffffff1681565b6103946113e9565b600061039e6111b8565b905060005b60058160ff1610156105595760048160ff16600581106103ec577f4e487b7100000000000000000000000000000000000000000000000000000000600052603260045260246000fd5b01828260ff1660058110610429577f4e487b7100000000000000000000000000000000000000000000000000000000600052603260045260246000fd5b602002015160ff1681548110610468577f4e487b7100000000000000000000000000000000000000000000000000000000600052603260045260246000fd5b9060005260206000209060020201600001805461048490611a93565b80601f01602080910402602001604051908101604052809291908181526020018280546104b090611a93565b80156104fd5780601f106104d2576101008083540402835291602001916104fd565b820191906000526020600020905b8154815290600101906020018083116104e057829003601f168201915b5050505050838260ff166005811061053e577f4e487b7100000000000000000000000000000000000000000000000000000000600052603260045260246000fd5b6020020181905250808061055190611ac5565b9150506103a3565b505090565b6004826005811061056e57600080fd5b01818154811061057d57600080fd5b9060005260206000209060020201600091509150508060000180546105a190611a93565b80601f01602080910402602001604051908101604052809291908181526020018280546105cd90611a93565b801561061a5780601f106105ef5761010080835404028352916020019161061a565b820191906000526020600020905b8154815290600101906020018083116105fd57829003601f168201915b5050505050908060010160009054906101000a900461ffff16905082565b600154421061067c576040517f08c379a0000000000000000000000000000000000000000000000000000000008152600401610673906118c3565b60405180910390fd5b600360003373ffffffffffffffffffffffffffffffffffffffff1673ffffffffffffffffffffffffffffffffffffffff16815260200190815260200160002060000160009054906101000a900460ff1661070b576040517f08c379a000000000000000000000000000000000000000000000000000000000815260040161070290611883565b60405180910390fd5b600360003373ffffffffffffffffffffffffffffffffffffffff1673ffffffffffffffffffffffffffffffffffffffff1681526020019081526020016000206001018460ff1660058110610788577f4e487b7100000000000000000000000000000000000000000000000000000000600052603260045260246000fd5b016000600381106107c2577f4e487b7100000000000000000000000000000000000000000000000000000000600052603260045260246000fd5b602091828204019190069054906101000a900460ff1615610818576040517f08c379a000000000000000000000000000000000000000000000000000000000815260040161080f90611863565b60405180910390fd5b60048460ff1660058110610855577f4e487b7100000000000000000000000000000000000000000000000000000000600052603260045260246000fd5b01805490508360ff161080156108ae575060048460ff16600581106108a3577f4e487b7100000000000000000000000000000000000000000000000000000000600052603260045260246000fd5b01805490508260ff16105b80156108fd575060048460ff16600581106108f2577f4e487b7100000000000000000000000000000000000000000000000000000000600052603260045260246000fd5b01805490508160ff16105b61093c576040517f08c379a000000000000000000000000000000000000000000000000000000000815260040161093390611903565b60405180910390fd5b6001600360003373ffffffffffffffffffffffffffffffffffffffff1673ffffffffffffffffffffffffffffffffffffffff1681526020019081526020016000206001018560ff16600581106109bb577f4e487b7100000000000000000000000000000000000000000000000000000000600052603260045260246000fd5b016000600381106109f5577f4e487b7100000000000000000000000000000000000000000000000000000000600052603260045260246000fd5b602091828204019190066101000a81548160ff02191690831515021790555082600360003373ffffffffffffffffffffffffffffffffffffffff1673ffffffffffffffffffffffffffffffffffffffff1681526020019081526020016000206006018560ff1660058110610a92577f4e487b7100000000000000000000000000000000000000000000000000000000600052603260045260246000fd5b01600060038110610acc577f4e487b7100000000000000000000000000000000000000000000000000000000600052603260045260246000fd5b602091828204019190066101000a81548160ff021916908360ff16021790555060008060038110610b26577f4e487b7100000000000000000000000000000000000000000000000000000000600052603260045260246000fd5b602091828204019190069054906101000a900460ff1660ff1660048560ff1660058110610b7c577f4e487b7100000000000000000000000000000000000000000000000000000000600052603260045260246000fd5b018460ff1681548110610bb8577f4e487b7100000000000000000000000000000000000000000000000000000000600052603260045260246000fd5b906000526020600020906002020160010160008282829054906101000a900461ffff16610be591906119c5565b92506101000a81548161ffff021916908361ffff1602179055506001600360003373ffffffffffffffffffffffffffffffffffffffff1673ffffffffffffffffffffffffffffffffffffffff1681526020019081526020016000206001018560ff1660058110610c7e577f4e487b7100000000000000000000000000000000000000000000000000000000600052603260045260246000fd5b01600160038110610cb8577f4e487b7100000000000000000000000000000000000000000000000000000000600052603260045260246000fd5b602091828204019190066101000a81548160ff02191690831515021790555081600360003373ffffffffffffffffffffffffffffffffffffffff1673ffffffffffffffffffffffffffffffffffffffff1681526020019081526020016000206006018560ff1660058110610d55577f4e487b7100000000000000000000000000000000000000000000000000000000600052603260045260246000fd5b01600160038110610d8f577f4e487b7100000000000000000000000000000000000000000000000000000000600052603260045260246000fd5b602091828204019190066101000a81548160ff021916908360ff1602179055506000600160038110610dea577f4e487b7100000000000000000000000000000000000000000000000000000000600052603260045260246000fd5b602091828204019190069054906101000a900460ff1660ff1660048560ff1660058110610e40577f4e487b7100000000000000000000000000000000000000000000000000000000600052603260045260246000fd5b018360ff1681548110610e7c577f4e487b7100000000000000000000000000000000000000000000000000000000600052603260045260246000fd5b906000526020600020906002020160010160008282829054906101000a900461ffff16610ea991906119c5565b92506101000a81548161ffff021916908361ffff1602179055506001600360003373ffffffffffffffffffffffffffffffffffffffff1673ffffffffffffffffffffffffffffffffffffffff1681526020019081526020016000206001018560ff1660058110610f42577f4e487b7100000000000000000000000000000000000000000000000000000000600052603260045260246000fd5b01600260038110610f7c577f4e487b7100000000000000000000000000000000000000000000000000000000600052603260045260246000fd5b602091828204019190066101000a81548160ff02191690831515021790555080600360003373ffffffffffffffffffffffffffffffffffffffff1673ffffffffffffffffffffffffffffffffffffffff1681526020019081526020016000206006018560ff1660058110611019577f4e487b7100000000000000000000000000000000000000000000000000000000600052603260045260246000fd5b01600260038110611053577f4e487b7100000000000000000000000000000000000000000000000000000000600052603260045260246000fd5b602091828204019190066101000a81548160ff021916908360ff16021790555060006002600381106110ae577f4e487b7100000000000000000000000000000000000000000000000000000000600052603260045260246000fd5b602091828204019190069054906101000a900460ff1660ff1660048560ff1660058110611104577f4e487b7100000000000000000000000000000000000000000000000000000000600052603260045260246000fd5b018260ff1681548110611140577f4e487b7100000000000000000000000000000000000000000000000000000000600052603260045260246000fd5b906000526020600020906002020160010160008282829054906101000a900461ffff1661116d91906119c5565b92506101000a81548161ffff021916908361ffff16021790555050505050565b60036020528060005260406000206000915090508060000160009054906101000a900460ff16905081565b6111c0611410565b6111c8611410565b60005b60058160ff1610156113e1576000805b60048360ff1660058110611218577f4e487b7100000000000000000000000000000000000000000000000000000000600052603260045260246000fd5b01805490508160ff1610156113cc578161ffff1660048460ff1660058110611269577f4e487b7100000000000000000000000000000000000000000000000000000000600052603260045260246000fd5b018260ff16815481106112a5577f4e487b7100000000000000000000000000000000000000000000000000000000600052603260045260246000fd5b906000526020600020906002020160010160009054906101000a900461ffff1661ffff1611156113b95760048360ff166005811061130c577f4e487b7100000000000000000000000000000000000000000000000000000000600052603260045260246000fd5b018160ff1681548110611348577f4e487b7100000000000000000000000000000000000000000000000000000000600052603260045260246000fd5b906000526020600020906002020160010160009054906101000a900461ffff16915080848460ff16600581106113a7577f4e487b7100000000000000000000000000000000000000000000000000000000600052603260045260246000fd5b602002019060ff16908160ff16815250505b80806113c490611ac5565b9150506111db565b505080806113d990611ac5565b9150506111cb565b508091505090565b6040518060a001604052806005905b60608152602001906001900390816113f85790505090565b6040518060a00160405280600590602082028036833780820191505090505090565b60008135905061144181611ca0565b92915050565b60008135905061145681611cb7565b92915050565b60008135905061146b81611cce565b92915050565b60006020828403121561148357600080fd5b600061149184828501611432565b91505092915050565b600080604083850312156114ad57600080fd5b60006114bb85828601611447565b92505060206114cc85828601611447565b9150509250929050565b600080600080608085870312156114ec57600080fd5b60006114fa8782880161145c565b945050602061150b8782880161145c565b935050604061151c8782880161145c565b925050606061152d8782880161145c565b91505092959194509250565b6000611545838361164f565b905092915050565b600061155983836117b1565b60208301905092915050565b61156e816119fd565b82525050565b600061157f82611952565b611589818561198d565b93508360208202850161159b8561193e565b8060005b858110156115d757848403895281516115b88582611539565b94506115c383611973565b925060208a0199505060018101905061159f565b50829750879550505050505092915050565b6115f28161195d565b6115fc8184611998565b925061160782611948565b8060005b8381101561163857815161161f878261154d565b965061162a83611980565b92505060018101905061160b565b505050505050565b61164981611a0f565b82525050565b600061165a82611968565b61166481856119a3565b9350611674818560208601611a60565b61167d81611b4d565b840191505092915050565b600061169382611968565b61169d81856119b4565b93506116ad818560208601611a60565b6116b681611b4d565b840191505092915050565b60006116ce6029836119b4565b91506116d982611b5e565b604082019050919050565b60006116f16020836119b4565b91506116fc82611bad565b602082019050919050565b60006117146031836119b4565b915061171f82611bd6565b604082019050919050565b60006117376013836119b4565b915061174282611c25565b602082019050919050565b600061175a601c836119b4565b915061176582611c4e565b602082019050919050565b600061177d6019836119b4565b915061178882611c77565b602082019050919050565b61179c81611a1b565b82525050565b6117ab81611a49565b82525050565b6117ba81611a53565b82525050565b60006020820190506117d56000830184611565565b92915050565b600060208201905081810360008301526117f58184611574565b905092915050565b600060a08201905061181260008301846115e9565b92915050565b600060208201905061182d6000830184611640565b92915050565b6000604082019050818103600083015261184d8185611688565b905061185c6020830184611793565b9392505050565b6000602082019050818103600083015261187c816116c1565b9050919050565b6000602082019050818103600083015261189c816116e4565b9050919050565b600060208201905081810360008301526118bc81611707565b9050919050565b600060208201905081810360008301526118dc8161172a565b9050919050565b600060208201905081810360008301526118fc8161174d565b9050919050565b6000602082019050818103600083015261191c81611770565b9050919050565b600060208201905061193860008301846117a2565b92915050565b6000819050919050565b6000819050919050565b600060059050919050565b600060059050919050565b600081519050919050565b6000602082019050919050565b6000602082019050919050565b600081905092915050565b600081905092915050565b600082825260208201905092915050565b600082825260208201905092915050565b60006119d082611a1b565b91506119db83611a1b565b92508261ffff038211156119f2576119f1611aef565b5b828201905092915050565b6000611a0882611a29565b9050919050565b60008115159050919050565b600061ffff82169050919050565b600073ffffffffffffffffffffffffffffffffffffffff82169050919050565b6000819050919050565b600060ff82169050919050565b60005b83811015611a7e578082015181840152602081019050611a63565b83811115611a8d576000848401525b50505050565b60006002820490506001821680611aab57607f821691505b60208210811415611abf57611abe611b1e565b5b50919050565b6000611ad082611a53565b915060ff821415611ae457611ae3611aef565b5b600182019050919050565b7f4e487b7100000000000000000000000000000000000000000000000000000000600052601160045260246000fd5b7f4e487b7100000000000000000000000000000000000000000000000000000000600052602260045260246000fd5b6000601f19601f8301169050919050565b7f596f75206861766520616c726561647920766f74656420666f7220746869732060008201527f706f736974696f6e2e0000000000000000000000000000000000000000000000602082015250565b7f4f6e6c79207265676973746572656420766f746572732063616e20766f74652e600082015250565b7f4f6e6c792074686520656c656374696f6e206c65616465722063616e2067726160008201527f6e7420766f74696e67207269676874732e000000000000000000000000000000602082015250565b7f456c656374696f6e2068617320656e6465642e00000000000000000000000000600082015250565b7f566f74657220697320616c726561647920726567697374657265642e00000000600082015250565b7f43616e64696461746520646f6573206e6f742065786973742e00000000000000600082015250565b611ca9816119fd565b8114611cb457600080fd5b50565b611cc081611a49565b8114611ccb57600080fd5b50565b611cd781611a53565b8114611ce257600080fd5b5056fea26469706673582212208e0ae66568580679b79b104bc2fb8c3161a475aaa4f9b9a8d3df3e2d26015f9c64736f6c63430008040033",
  "linkReferences": {},
  "deployedLinkReferences": {}
}