{
  "_format": "hh-sol-artifact-1",
  "contractName": "Election",
  "sourceName": "contracts/Election.sol",
  "abi": [
    {
      "inputs": [
        {
          "internalType": "string[][5]",
          "name": "_candidateNames",
          "type": "string[][5]"
        },
        {
          "internalType": "uint256",
          "name": "_endTime",
          "type": "uint256"
        }
      ],
      "stateMutability": "nonpayable",
      "type": "constructor"
    },
    {
      "inputs": [
        {
          "internalType": "uint256",
          "name": "",
          "type": "uint256"
        },
        {
          "internalType": "uint256",
          "name": "",
          "type": "uint256"
        }
      ],
      "name": "candidates",
      "outputs": [
        {
          "internalType": "string",
          "name": "name",
          "type": "string"
        },
        {
          "internalType": "uint16",
          "name": "votes",
          "type": "uint16"
        }
      ],
      "stateMutability": "view",
      "type": "function"
    },
    {
      "inputs": [
        {
          "internalType": "uint8",
          "name": "position",
          "type": "uint8"
        },
        {
          "internalType": "uint8",
          "name": "preference1",
          "type": "uint8"
        },
        {
          "internalType": "uint8",
          "name": "preference2",
          "type": "uint8"
        },
        {
          "internalType": "uint8",
          "name": "preference3",
          "type": "uint8"
        }
      ],
      "name": "castVote",
      "outputs": [],
      "stateMutability": "nonpayable",
      "type": "function"
    },
    {
      "inputs": [],
      "name": "endTime",
      "outputs": [
        {
          "internalType": "uint256",
          "name": "",
          "type": "uint256"
        }
      ],
      "stateMutability": "view",
      "type": "function"
    },
    {
      "inputs": [],
      "name": "leader",
      "outputs": [
        {
          "internalType": "address",
          "name": "",
          "type": "address"
        }
      ],
      "stateMutability": "view",
      "type": "function"
    },
    {
      "inputs": [
        {
          "internalType": "address",
          "name": "voter",
          "type": "address"
        }
      ],
      "name": "registerVoter",
      "outputs": [],
      "stateMutability": "nonpayable",
      "type": "function"
    },
    {
      "inputs": [
        {
          "internalType": "address",
          "name": "",
          "type": "address"
        }
      ],
      "name": "voters",
      "outputs": [
        {
          "internalType": "bool",
          "name": "registered",
          "type": "bool"
        }
      ],
      "stateMutability": "view",
      "type": "function"
    },
    {
      "inputs": [],
      "name": "winningCandidatesName",
      "outputs": [
        {
          "internalType": "string[5]",
          "name": "winnersName_",
          "type": "string[5]"
        }
      ],
      "stateMutability": "view",
      "type": "function"
    }
  ],
  "bytecode": "0x60806040526040518060600160405280600560ff168152602001600360ff168152602001600160ff1681525060009060036200003d929190620004e8565b503480156200004b57600080fd5b5060405162002c5f38038062002c5f833981810160405281019062000071919062000830565b6200008d67fd4907c404d4f1c560c01b620004e560201b60201c565b620000a967954864630132028860c01b620004e560201b60201c565b620000c5673c6266ba82d8a9e460c01b620004e560201b60201c565b620000e1671a5f0ccd7f01c96760c01b620004e560201b60201c565b80421062000126576040517f08c379a00000000000000000000000000000000000000000000000000000000081526004016200011d90620008b1565b60405180910390fd5b62000142676ee9a4fac53e46d960c01b620004e560201b60201c565b6200015e672578affc1810140f60c01b620004e560201b60201c565b33600260006101000a81548173ffffffffffffffffffffffffffffffffffffffff021916908373ffffffffffffffffffffffffffffffffffffffff160217905550620001bb6744a3fb09bec4c63860c01b620004e560201b60201c565b600160036000600260009054906101000a900473ffffffffffffffffffffffffffffffffffffffff1673ffffffffffffffffffffffffffffffffffffffff1673ffffffffffffffffffffffffffffffffffffffff16815260200190815260200160002060000160006101000a81548160ff0219169083151502179055506200025467f5718717f99625e160c01b620004e560201b60201c565b6200027067219a87491c73bf9060c01b620004e560201b60201c565b60005b60058160ff161015620004b9576200029c67cb274db2c2686b6660c01b620004e560201b60201c565b620002b867c2ca3c32b3b918c960c01b620004e560201b60201c565b60005b838260ff1660058110620002f8577f4e487b7100000000000000000000000000000000000000000000000000000000600052603260045260246000fd5b6020020151518160ff161015620004a257620003256782906fec2d48e92460c01b620004e560201b60201c565b62000341678f61b03f6edb03e460c01b620004e560201b60201c565b60048260ff16600581106200037f577f4e487b7100000000000000000000000000000000000000000000000000000000600052603260045260246000fd5b016040518060400160405280868560ff1660058110620003c8577f4e487b7100000000000000000000000000000000000000000000000000000000600052603260045260246000fd5b60200201518460ff168151811062000409577f4e487b7100000000000000000000000000000000000000000000000000000000600052603260045260246000fd5b60200260200101518152602001600061ffff16815250908060018154018082558091505060019003906000526020600020906002020160009091909190915060008201518160000190805190602001906200046692919062000589565b5060208201518160010160006101000a81548161ffff021916908361ffff16021790555050508080620004999062000a54565b915050620002bb565b508080620004b09062000a54565b91505062000273565b50620004d6673235bd9ae1beb36860c01b620004e560201b60201c565b80600181905550505062000b64565b50565b826003601f01602090048101928215620005765791602002820160005b838211156200054557835183826101000a81548160ff021916908360ff160217905550926020019260010160208160000104928301926001030262000505565b8015620005745782816101000a81549060ff021916905560010160208160000104928301926001030262000545565b505b5090506200058591906200061a565b5090565b8280546200059790620009e8565b90600052602060002090601f016020900481019282620005bb576000855562000607565b82601f10620005d657805160ff191683800117855562000607565b8280016001018555821562000607579182015b8281111562000606578251825591602001919060010190620005e9565b5b5090506200061691906200061a565b5090565b5b80821115620006355760008160009055506001016200061b565b5090565b6000620006506200064a84620008fc565b620008d3565b905080828560208602820111156200066757600080fd5b60005b85811015620006b657815167ffffffffffffffff8111156200068b57600080fd5b8086016200069a8982620007bf565b855260208501945060208401935050506001810190506200066a565b5050509392505050565b6000620006d7620006d18462000925565b620008d3565b90508083825260208201905082856020860282011115620006f757600080fd5b60005b858110156200074657815167ffffffffffffffff8111156200071b57600080fd5b8086016200072a8982620007ec565b85526020850194506020840193505050600181019050620006fa565b5050509392505050565b600062000767620007618462000954565b620008d3565b9050828152602081018484840111156200078057600080fd5b6200078d848285620009b2565b509392505050565b600082601f830112620007a757600080fd5b6005620007b684828562000639565b91505092915050565b600082601f830112620007d157600080fd5b8151620007e3848260208601620006c0565b91505092915050565b600082601f830112620007fe57600080fd5b81516200081084826020860162000750565b91505092915050565b6000815190506200082a8162000b4a565b92915050565b600080604083850312156200084457600080fd5b600083015167ffffffffffffffff8111156200085f57600080fd5b6200086d8582860162000795565b9250506020620008808582860162000819565b9150509250929050565b600062000899601f836200098a565b9150620008a68262000b21565b602082019050919050565b60006020820190508181036000830152620008cc816200088a565b9050919050565b6000620008df620008f2565b9050620008ed828262000a1e565b919050565b6000604051905090565b600067ffffffffffffffff8211156200091a576200091962000ae1565b5b602082029050919050565b600067ffffffffffffffff82111562000943576200094262000ae1565b5b602082029050602081019050919050565b600067ffffffffffffffff82111562000972576200097162000ae1565b5b6200097d8262000b10565b9050602081019050919050565b600082825260208201905092915050565b6000819050919050565b600060ff82169050919050565b60005b83811015620009d2578082015181840152602081019050620009b5565b83811115620009e2576000848401525b50505050565b6000600282049050600182168062000a0157607f821691505b6020821081141562000a185762000a1762000ab2565b5b50919050565b62000a298262000b10565b810181811067ffffffffffffffff8211171562000a4b5762000a4a62000ae1565b5b80604052505050565b600062000a6182620009a5565b915060ff82141562000a785762000a7762000a83565b5b600182019050919050565b7f4e487b7100000000000000000000000000000000000000000000000000000000600052601160045260246000fd5b7f4e487b7100000000000000000000000000000000000000000000000000000000600052602260045260246000fd5b7f4e487b7100000000000000000000000000000000000000000000000000000000600052604160045260246000fd5b6000601f19601f8301169050919050565b7f456e642074696d65206d75737420626520696e20746865206675747572652e00600082015250565b62000b55816200099b565b811462000b6157600080fd5b50565b6120eb8062000b746000396000f3fe608060405234801561001057600080fd5b506004361061007d5760003560e01c8063510d96451161005b578063510d9645146100da5780637de14242146100f857806385c56e1914610129578063a3ec138d146101455761007d565b80633197cbb61461008257806338db6dd3146100a057806340eedabb146100bc575b600080fd5b61008a610175565b6040516100979190611d20565b60405180910390f35b6100ba60048036038101906100b59190611907565b61017b565b005b6100c4610455565b6040516100d19190611bd8565b60405180910390f35b6100e261047b565b6040516100ef9190611bf3565b60405180910390f35b610112600480360381019061010d9190611930565b610a1a565b604051610120929190611c30565b60405180910390f35b610143600480360381019061013e919061196c565b610af4565b005b61015f600480360381019061015a9190611907565b611851565b60405161016c9190611c15565b60405180910390f35b60015481565b61018f67fa19f84e1240387f60c01b61187c565b6101a3672704d13dda98da2760c01b61187c565b6101b76721bb797fa43df4ed60c01b61187c565b6101cb67f6d9df42e33dedc060c01b61187c565b600154421061020f576040517f08c379a000000000000000000000000000000000000000000000000000000000815260040161020690611cc0565b60405180910390fd5b610223673237accca4a327d960c01b61187c565b6102376790fa82b3e3b1114960c01b61187c565b61024b67b228a351027182b160c01b61187c565b61025f6797b1026edd33b3e960c01b61187c565b600260009054906101000a900473ffffffffffffffffffffffffffffffffffffffff1673ffffffffffffffffffffffffffffffffffffffff163373ffffffffffffffffffffffffffffffffffffffff16146102ef576040517f08c379a00000000000000000000000000000000000000000000000000000000081526004016102e690611ca0565b60405180910390fd5b61030367a57702b1f5d254c060c01b61187c565b61031767c5c1f8a485486fd860c01b61187c565b61032b670b1b09903108087160c01b61187c565b61033f67193739134d88227060c01b61187c565b600360008273ffffffffffffffffffffffffffffffffffffffff1673ffffffffffffffffffffffffffffffffffffffff16815260200190815260200160002060000160009054906101000a900460ff16156103cf576040517f08c379a00000000000000000000000000000000000000000000000000000000081526004016103c690611ce0565b60405180910390fd5b6103e3673315a393eefa054860c01b61187c565b6103f76766610206c59e923e60c01b61187c565b6001600360008373ffffffffffffffffffffffffffffffffffffffff1673ffffffffffffffffffffffffffffffffffffffff16815260200190815260200160002060000160006101000a81548160ff02191690831515021790555050565b600260009054906101000a900473ffffffffffffffffffffffffffffffffffffffff1681565b61048361187f565b61049767eeb210e5958fe33260c01b61187c565b6104ab670b151b2c6a5e5cbf60c01b61187c565b6104bf6742edae9546ac438760c01b61187c565b6104c76118a6565b6104db67d14848bd56c6b5c160c01b61187c565b6104ef6758c190fa2731334660c01b61187c565b60005b60058160ff1610156107f7576105126769dbe7b3d2dc39cb60c01b61187c565b610526670fd1054a1434403e60c01b61187c565b60007fffffffffffffffffffffffffffffffffffffffffffffffffffffffffffffffff905061055f67481d8e75537776bd60c01b61187c565b61057367cf20813ff54177e660c01b61187c565b60005b60048360ff16600581106105b3577f4e487b7100000000000000000000000000000000000000000000000000000000600052603260045260246000fd5b01805490508160ff1610156107e2576105d6675bf18aebb13350dd60c01b61187c565b6105ea673f687476bc0c539860c01b61187c565b8160010b60048460ff166005811061062b577f4e487b7100000000000000000000000000000000000000000000000000000000600052603260045260246000fd5b018260ff1681548110610667577f4e487b7100000000000000000000000000000000000000000000000000000000600052603260045260246000fd5b906000526020600020906002020160010160009054906101000a900461ffff1660010b13156107ba576106a4672748b61c41a6bb0e60c01b61187c565b6106b86781044c6a1a84a03b60c01b61187c565b60048360ff16600581106106f5577f4e487b7100000000000000000000000000000000000000000000000000000000600052603260045260246000fd5b018160ff1681548110610731577f4e487b7100000000000000000000000000000000000000000000000000000000600052603260045260246000fd5b906000526020600020906002020160010160009054906101000a900461ffff1691506107676741452c49e7d9ecec60c01b61187c565b80848460ff16600581106107a4577f4e487b7100000000000000000000000000000000000000000000000000000000600052603260045260246000fd5b602002019060ff16908160ff16815250506107cf565b6107ce670b58d1aa78014fc660c01b61187c565b5b80806107da90611e95565b915050610576565b505080806107ef90611e95565b9150506104f2565b5061080c6726a7879137738e1c60c01b61187c565b61082067341c83b8477deb9f60c01b61187c565b60005b60058160ff1610156109ed5761084367809c01fb1922dddc60c01b61187c565b60048160ff1660058110610880577f4e487b7100000000000000000000000000000000000000000000000000000000600052603260045260246000fd5b01828260ff16600581106108bd577f4e487b7100000000000000000000000000000000000000000000000000000000600052603260045260246000fd5b602002015160ff16815481106108fc577f4e487b7100000000000000000000000000000000000000000000000000000000600052603260045260246000fd5b9060005260206000209060020201600001805461091890611e63565b80601f016020809104026020016040519081016040528092919081815260200182805461094490611e63565b80156109915780601f1061096657610100808354040283529160200191610991565b820191906000526020600020905b81548152906001019060200180831161097457829003601f168201915b5050505050838260ff16600581106109d2577f4e487b7100000000000000000000000000000000000000000000000000000000600052603260045260246000fd5b602002018190525080806109e590611e95565b915050610823565b50610a0267357c8026e3b506b960c01b61187c565b610a166753bc4956ff52870160c01b61187c565b5090565b60048260058110610a2a57600080fd5b018181548110610a3957600080fd5b906000526020600020906002020160009150915050806000018054610a5d90611e63565b80601f0160208091040260200160405190810160405280929190818152602001828054610a8990611e63565b8015610ad65780601f10610aab57610100808354040283529160200191610ad6565b820191906000526020600020905b815481529060010190602001808311610ab957829003601f168201915b5050505050908060010160009054906101000a900461ffff16905082565b610b08672b1063ed3337a6da60c01b61187c565b610b1c67d4a0a67f908d7bb060c01b61187c565b610b3067195a66fe0eb8744e60c01b61187c565b610b4467329e1c9610aa282160c01b61187c565b6001544210610b88576040517f08c379a0000000000000000000000000000000000000000000000000000000008152600401610b7f90611cc0565b60405180910390fd5b610b9c6744773aaf3adf2d4560c01b61187c565b610bb067bc0b82b273c8625260c01b61187c565b610bc4679d5f8be5aaca4b9760c01b61187c565b610bd867ddbfb81f88cea8ec60c01b61187c565b600360003373ffffffffffffffffffffffffffffffffffffffff1673ffffffffffffffffffffffffffffffffffffffff16815260200190815260200160002060000160009054906101000a900460ff16610c67576040517f08c379a0000000000000000000000000000000000000000000000000000000008152600401610c5e90611c80565b60405180910390fd5b610c7b674c8edcdaf79be0ff60c01b61187c565b610c8f6721702a3d712cd41760c01b61187c565b610ca3676a8841abc3901a9960c01b61187c565b610cb767d322a2538368197460c01b61187c565b600360003373ffffffffffffffffffffffffffffffffffffffff1673ffffffffffffffffffffffffffffffffffffffff1681526020019081526020016000206001018460ff1660058110610d34577f4e487b7100000000000000000000000000000000000000000000000000000000600052603260045260246000fd5b01600060038110610d6e577f4e487b7100000000000000000000000000000000000000000000000000000000600052603260045260246000fd5b602091828204019190069054906101000a900460ff1615610dc4576040517f08c379a0000000000000000000000000000000000000000000000000000000008152600401610dbb90611c60565b60405180910390fd5b610dd86718a4672567ef66e660c01b61187c565b610dec6762fe2719093500ae60c01b61187c565b610e0067c1aa1ab66ee81c9760c01b61187c565b610e1467d5a5dee2b2a5b86260c01b61187c565b60048460ff1660058110610e51577f4e487b7100000000000000000000000000000000000000000000000000000000600052603260045260246000fd5b01805490508360ff16108015610eaa575060048460ff1660058110610e9f577f4e487b7100000000000000000000000000000000000000000000000000000000600052603260045260246000fd5b01805490508260ff16105b8015610ef9575060048460ff1660058110610eee577f4e487b7100000000000000000000000000000000000000000000000000000000600052603260045260246000fd5b01805490508160ff16105b610f38576040517f08c379a0000000000000000000000000000000000000000000000000000000008152600401610f2f90611d00565b60405180910390fd5b610f4c6784df2f660c94e83860c01b61187c565b610f60678fbf5d11e58f2f4660c01b61187c565b6001600360003373ffffffffffffffffffffffffffffffffffffffff1673ffffffffffffffffffffffffffffffffffffffff1681526020019081526020016000206001018560ff1660058110610fdf577f4e487b7100000000000000000000000000000000000000000000000000000000600052603260045260246000fd5b01600060038110611019577f4e487b7100000000000000000000000000000000000000000000000000000000600052603260045260246000fd5b602091828204019190066101000a81548160ff02191690831515021790555061104c67020c90c69658a6ed60c01b61187c565b82600360003373ffffffffffffffffffffffffffffffffffffffff1673ffffffffffffffffffffffffffffffffffffffff1681526020019081526020016000206006018560ff16600581106110ca577f4e487b7100000000000000000000000000000000000000000000000000000000600052603260045260246000fd5b01600060038110611104577f4e487b7100000000000000000000000000000000000000000000000000000000600052603260045260246000fd5b602091828204019190066101000a81548160ff021916908360ff1602179055506111386744fc023763750f3b60c01b61187c565b60008060038110611172577f4e487b7100000000000000000000000000000000000000000000000000000000600052603260045260246000fd5b602091828204019190069054906101000a900460ff1660ff1660048560ff16600581106111c8577f4e487b7100000000000000000000000000000000000000000000000000000000600052603260045260246000fd5b018460ff1681548110611204577f4e487b7100000000000000000000000000000000000000000000000000000000600052603260045260246000fd5b906000526020600020906002020160010160008282829054906101000a900461ffff166112319190611d95565b92506101000a81548161ffff021916908361ffff16021790555061125f6746e6a6100aebf82e60c01b61187c565b6001600360003373ffffffffffffffffffffffffffffffffffffffff1673ffffffffffffffffffffffffffffffffffffffff1681526020019081526020016000206001018560ff16600581106112de577f4e487b7100000000000000000000000000000000000000000000000000000000600052603260045260246000fd5b01600160038110611318577f4e487b7100000000000000000000000000000000000000000000000000000000600052603260045260246000fd5b602091828204019190066101000a81548160ff02191690831515021790555061134b67250eeb54c277fb6460c01b61187c565b81600360003373ffffffffffffffffffffffffffffffffffffffff1673ffffffffffffffffffffffffffffffffffffffff1681526020019081526020016000206006018560ff16600581106113c9577f4e487b7100000000000000000000000000000000000000000000000000000000600052603260045260246000fd5b01600160038110611403577f4e487b7100000000000000000000000000000000000000000000000000000000600052603260045260246000fd5b602091828204019190066101000a81548160ff021916908360ff1602179055506114376781fc72dbd10bd0b860c01b61187c565b6000600160038110611472577f4e487b7100000000000000000000000000000000000000000000000000000000600052603260045260246000fd5b602091828204019190069054906101000a900460ff1660ff1660048560ff16600581106114c8577f4e487b7100000000000000000000000000000000000000000000000000000000600052603260045260246000fd5b018360ff1681548110611504577f4e487b7100000000000000000000000000000000000000000000000000000000600052603260045260246000fd5b906000526020600020906002020160010160008282829054906101000a900461ffff166115319190611d95565b92506101000a81548161ffff021916908361ffff16021790555061155f675c6ea253fae1deb360c01b61187c565b6001600360003373ffffffffffffffffffffffffffffffffffffffff1673ffffffffffffffffffffffffffffffffffffffff1681526020019081526020016000206001018560ff16600581106115de577f4e487b7100000000000000000000000000000000000000000000000000000000600052603260045260246000fd5b01600260038110611618577f4e487b7100000000000000000000000000000000000000000000000000000000600052603260045260246000fd5b602091828204019190066101000a81548160ff02191690831515021790555061164b67a28ba0f7a3b6be8f60c01b61187c565b80600360003373ffffffffffffffffffffffffffffffffffffffff1673ffffffffffffffffffffffffffffffffffffffff1681526020019081526020016000206006018560ff16600581106116c9577f4e487b7100000000000000000000000000000000000000000000000000000000600052603260045260246000fd5b01600260038110611703577f4e487b7100000000000000000000000000000000000000000000000000000000600052603260045260246000fd5b602091828204019190066101000a81548160ff021916908360ff16021790555061173767fc92f7180da2cd7f60c01b61187c565b6000600260038110611772577f4e487b7100000000000000000000000000000000000000000000000000000000600052603260045260246000fd5b602091828204019190069054906101000a900460ff1660ff1660048560ff16600581106117c8577f4e487b7100000000000000000000000000000000000000000000000000000000600052603260045260246000fd5b018260ff1681548110611804577f4e487b7100000000000000000000000000000000000000000000000000000000600052603260045260246000fd5b906000526020600020906002020160010160008282829054906101000a900461ffff166118319190611d95565b92506101000a81548161ffff021916908361ffff16021790555050505050565b60036020528060005260406000206000915090508060000160009054906101000a900460ff16905081565b50565b6040518060a001604052806005905b606081526020019060019003908161188e5790505090565b6040518060a00160405280600590602082028036833780820191505090505090565b6000813590506118d781612070565b92915050565b6000813590506118ec81612087565b92915050565b6000813590506119018161209e565b92915050565b60006020828403121561191957600080fd5b6000611927848285016118c8565b91505092915050565b6000806040838503121561194357600080fd5b6000611951858286016118dd565b9250506020611962858286016118dd565b9150509250929050565b6000806000806080858703121561198257600080fd5b6000611990878288016118f2565b94505060206119a1878288016118f2565b93505060406119b2878288016118f2565b92505060606119c3878288016118f2565b91505092959194509250565b60006119db8383611a76565b905092915050565b6119ec81611dcd565b82525050565b60006119fd82611d45565b611a078185611d68565b935083602082028501611a1985611d3b565b8060005b85811015611a555784840389528151611a3685826119cf565b9450611a4183611d5b565b925060208a01995050600181019050611a1d565b50829750879550505050505092915050565b611a7081611ddf565b82525050565b6000611a8182611d50565b611a8b8185611d73565b9350611a9b818560208601611e30565b611aa481611f1d565b840191505092915050565b6000611aba82611d50565b611ac48185611d84565b9350611ad4818560208601611e30565b611add81611f1d565b840191505092915050565b6000611af5602983611d84565b9150611b0082611f2e565b604082019050919050565b6000611b18602083611d84565b9150611b2382611f7d565b602082019050919050565b6000611b3b603183611d84565b9150611b4682611fa6565b604082019050919050565b6000611b5e601383611d84565b9150611b6982611ff5565b602082019050919050565b6000611b81601c83611d84565b9150611b8c8261201e565b602082019050919050565b6000611ba4601983611d84565b9150611baf82612047565b602082019050919050565b611bc381611deb565b82525050565b611bd281611e19565b82525050565b6000602082019050611bed60008301846119e3565b92915050565b60006020820190508181036000830152611c0d81846119f2565b905092915050565b6000602082019050611c2a6000830184611a67565b92915050565b60006040820190508181036000830152611c4a8185611aaf565b9050611c596020830184611bba565b9392505050565b60006020820190508181036000830152611c7981611ae8565b9050919050565b60006020820190508181036000830152611c9981611b0b565b9050919050565b60006020820190508181036000830152611cb981611b2e565b9050919050565b60006020820190508181036000830152611cd981611b51565b9050919050565b60006020820190508181036000830152611cf981611b74565b9050919050565b60006020820190508181036000830152611d1981611b97565b9050919050565b6000602082019050611d356000830184611bc9565b92915050565b6000819050919050565b600060059050919050565b600081519050919050565b6000602082019050919050565b600081905092915050565b600082825260208201905092915050565b600082825260208201905092915050565b6000611da082611deb565b9150611dab83611deb565b92508261ffff03821115611dc257611dc1611ebf565b5b828201905092915050565b6000611dd882611df9565b9050919050565b60008115159050919050565b600061ffff82169050919050565b600073ffffffffffffffffffffffffffffffffffffffff82169050919050565b6000819050919050565b600060ff82169050919050565b60005b83811015611e4e578082015181840152602081019050611e33565b83811115611e5d576000848401525b50505050565b60006002820490506001821680611e7b57607f821691505b60208210811415611e8f57611e8e611eee565b5b50919050565b6000611ea082611e23565b915060ff821415611eb457611eb3611ebf565b5b600182019050919050565b7f4e487b7100000000000000000000000000000000000000000000000000000000600052601160045260246000fd5b7f4e487b7100000000000000000000000000000000000000000000000000000000600052602260045260246000fd5b6000601f19601f8301169050919050565b7f596f75206861766520616c726561647920766f74656420666f7220746869732060008201527f706f736974696f6e2e0000000000000000000000000000000000000000000000602082015250565b7f4f6e6c79207265676973746572656420766f746572732063616e20766f74652e600082015250565b7f4f6e6c792074686520656c656374696f6e206c65616465722063616e2067726160008201527f6e7420766f74696e67207269676874732e000000000000000000000000000000602082015250565b7f456c656374696f6e2068617320656e6465642e00000000000000000000000000600082015250565b7f566f74657220697320616c726561647920726567697374657265642e00000000600082015250565b7f43616e64696461746520646f6573206e6f742065786973742e00000000000000600082015250565b61207981611dcd565b811461208457600080fd5b50565b61209081611e19565b811461209b57600080fd5b50565b6120a781611e23565b81146120b257600080fd5b5056fea26469706673582212204e4d1df5628deb350e53a62f19aaa1a6df2241abb7fa507ea153d25743965daf64736f6c63430008040033",
  "linkReferences": {},
  "deployedLinkReferences": {}
}