{
  "_format": "hh-sol-artifact-1",
  "contractName": "Election",
  "sourceName": "contracts/Election.sol",
  "abi": [
    {
      "inputs": [
        {
          "internalType": "string[][5]",
          "name": "_candidateNames",
          "type": "string[][5]"
        },
        {
          "internalType": "uint256",
          "name": "_endTime",
          "type": "uint256"
        }
      ],
      "stateMutability": "nonpayable",
      "type": "constructor"
    },
    {
      "inputs": [
        {
          "internalType": "uint256",
          "name": "",
          "type": "uint256"
        },
        {
          "internalType": "uint256",
          "name": "",
          "type": "uint256"
        }
      ],
      "name": "candidates",
      "outputs": [
        {
          "internalType": "string",
          "name": "name",
          "type": "string"
        },
        {
          "internalType": "uint16",
          "name": "votes",
          "type": "uint16"
        }
      ],
      "stateMutability": "view",
      "type": "function"
    },
    {
      "inputs": [
        {
          "internalType": "uint8",
          "name": "position",
          "type": "uint8"
        },
        {
          "internalType": "uint8",
          "name": "preference",
          "type": "uint8"
        },
        {
          "internalType": "uint8",
          "name": "candidate",
          "type": "uint8"
        }
      ],
      "name": "castVote",
      "outputs": [],
      "stateMutability": "nonpayable",
      "type": "function"
    },
    {
      "inputs": [],
      "name": "endTime",
      "outputs": [
        {
          "internalType": "uint256",
          "name": "",
          "type": "uint256"
        }
      ],
      "stateMutability": "view",
      "type": "function"
    },
    {
      "inputs": [],
      "name": "leader",
      "outputs": [
        {
          "internalType": "address",
          "name": "",
          "type": "address"
        }
      ],
      "stateMutability": "view",
      "type": "function"
    },
    {
      "inputs": [
        {
          "internalType": "address",
          "name": "voter",
          "type": "address"
        }
      ],
      "name": "registerVoter",
      "outputs": [],
      "stateMutability": "nonpayable",
      "type": "function"
    },
    {
      "inputs": [
        {
          "internalType": "address",
          "name": "",
          "type": "address"
        }
      ],
      "name": "voters",
      "outputs": [
        {
          "internalType": "bool",
          "name": "registered",
          "type": "bool"
        }
      ],
      "stateMutability": "view",
      "type": "function"
    },
    {
      "inputs": [],
      "name": "winningCandidate",
      "outputs": [
        {
          "internalType": "uint8[5]",
          "name": "winningCandidates_",
          "type": "uint8[5]"
        }
      ],
      "stateMutability": "view",
      "type": "function"
    },
    {
      "inputs": [],
      "name": "winningCandidatesName",
      "outputs": [
        {
          "internalType": "string[5]",
          "name": "winnersName_",
          "type": "string[5]"
        }
      ],
      "stateMutability": "view",
      "type": "function"
    }
  ],
  "bytecode": "0x60806040526040518060600160405280600560ff168152602001600360ff168152602001600160ff1681525060009060036200003d9291906200035d565b503480156200004b57600080fd5b5060405162002365380380620023658339818101604052810190620000719190620006a5565b804210620000b6576040517f08c379a0000000000000000000000000000000000000000000000000000000008152600401620000ad9062000726565b60405180910390fd5b33600260006101000a81548173ffffffffffffffffffffffffffffffffffffffff021916908373ffffffffffffffffffffffffffffffffffffffff160217905550600160036000600260009054906101000a900473ffffffffffffffffffffffffffffffffffffffff1673ffffffffffffffffffffffffffffffffffffffff1673ffffffffffffffffffffffffffffffffffffffff16815260200190815260200160002060000160006101000a81548160ff02191690831515021790555060005b60058160ff1610156200034d5760005b838260ff1660058110620001c4577f4e487b7100000000000000000000000000000000000000000000000000000000600052603260045260246000fd5b6020020151518160ff161015620003365760048260ff166005811062000213577f4e487b7100000000000000000000000000000000000000000000000000000000600052603260045260246000fd5b016040518060400160405280868560ff16600581106200025c577f4e487b7100000000000000000000000000000000000000000000000000000000600052603260045260246000fd5b60200201518460ff16815181106200029d577f4e487b7100000000000000000000000000000000000000000000000000000000600052603260045260246000fd5b60200260200101518152602001600061ffff1681525090806001815401808255809150506001900390600052602060002090600202016000909190919091506000820151816000019080519060200190620002fa929190620003fe565b5060208201518160010160006101000a81548161ffff021916908361ffff160217905550505080806200032d90620008c9565b91505062000187565b5080806200034490620008c9565b91505062000177565b50806001819055505050620009d9565b826003601f01602090048101928215620003eb5791602002820160005b83821115620003ba57835183826101000a81548160ff021916908360ff16021790555092602001926001016020816000010492830192600103026200037a565b8015620003e95782816101000a81549060ff0219169055600101602081600001049283019260010302620003ba565b505b509050620003fa91906200048f565b5090565b8280546200040c906200085d565b90600052602060002090601f0160209004810192826200043057600085556200047c565b82601f106200044b57805160ff19168380011785556200047c565b828001600101855582156200047c579182015b828111156200047b5782518255916020019190600101906200045e565b5b5090506200048b91906200048f565b5090565b5b80821115620004aa57600081600090555060010162000490565b5090565b6000620004c5620004bf8462000771565b62000748565b90508082856020860282011115620004dc57600080fd5b60005b858110156200052b57815167ffffffffffffffff8111156200050057600080fd5b8086016200050f898262000634565b85526020850194506020840193505050600181019050620004df565b5050509392505050565b60006200054c62000546846200079a565b62000748565b905080838252602082019050828560208602820111156200056c57600080fd5b60005b85811015620005bb57815167ffffffffffffffff8111156200059057600080fd5b8086016200059f898262000661565b855260208501945060208401935050506001810190506200056f565b5050509392505050565b6000620005dc620005d684620007c9565b62000748565b905082815260208101848484011115620005f557600080fd5b6200060284828562000827565b509392505050565b600082601f8301126200061c57600080fd5b60056200062b848285620004ae565b91505092915050565b600082601f8301126200064657600080fd5b81516200065884826020860162000535565b91505092915050565b600082601f8301126200067357600080fd5b815162000685848260208601620005c5565b91505092915050565b6000815190506200069f81620009bf565b92915050565b60008060408385031215620006b957600080fd5b600083015167ffffffffffffffff811115620006d457600080fd5b620006e2858286016200060a565b9250506020620006f5858286016200068e565b9150509250929050565b60006200070e601f83620007ff565b91506200071b8262000996565b602082019050919050565b600060208201905081810360008301526200074181620006ff565b9050919050565b60006200075462000767565b905062000762828262000893565b919050565b6000604051905090565b600067ffffffffffffffff8211156200078f576200078e62000956565b5b602082029050919050565b600067ffffffffffffffff821115620007b857620007b762000956565b5b602082029050602081019050919050565b600067ffffffffffffffff821115620007e757620007e662000956565b5b620007f28262000985565b9050602081019050919050565b600082825260208201905092915050565b6000819050919050565b600060ff82169050919050565b60005b83811015620008475780820151818401526020810190506200082a565b8381111562000857576000848401525b50505050565b600060028204905060018216806200087657607f821691505b602082108114156200088d576200088c62000927565b5b50919050565b6200089e8262000985565b810181811067ffffffffffffffff82111715620008c057620008bf62000956565b5b80604052505050565b6000620008d6826200081a565b915060ff821415620008ed57620008ec620008f8565b5b600182019050919050565b7f4e487b7100000000000000000000000000000000000000000000000000000000600052601160045260246000fd5b7f4e487b7100000000000000000000000000000000000000000000000000000000600052602260045260246000fd5b7f4e487b7100000000000000000000000000000000000000000000000000000000600052604160045260246000fd5b6000601f19601f8301169050919050565b7f456e642074696d65206d75737420626520696e20746865206675747572652e00600082015250565b620009ca8162000810565b8114620009d657600080fd5b50565b61197c80620009e96000396000f3fe608060405234801561001057600080fd5b50600436106100885760003560e01c80637de142421161005b5780637de1424214610103578063a3ec138d14610134578063c6953d6214610164578063d28178d71461018057610088565b80633197cbb61461008d57806338db6dd3146100ab57806340eedabb146100c7578063510d9645146100e5575b600080fd5b61009561019e565b6040516100a2919061150c565b60405180910390f35b6100c560048036038101906100c09190610fe8565b6101a4565b005b6100cf610366565b6040516100dc9190611369565b60405180910390f35b6100ed61038c565b6040516100fa9190611384565b60405180910390f35b61011d60048036038101906101189190611011565b61055e565b60405161012b9291906113dc565b60405180910390f35b61014e60048036038101906101499190610fe8565b610638565b60405161015b91906113c1565b60405180910390f35b61017e6004803603810190610179919061104d565b610663565b005b610188610cea565b60405161019591906113a6565b60405180910390f35b60015481565b60015442106101e8576040517f08c379a00000000000000000000000000000000000000000000000000000000081526004016101df906114ac565b60405180910390fd5b600260009054906101000a900473ffffffffffffffffffffffffffffffffffffffff1673ffffffffffffffffffffffffffffffffffffffff163373ffffffffffffffffffffffffffffffffffffffff1614610278576040517f08c379a000000000000000000000000000000000000000000000000000000000815260040161026f9061148c565b60405180910390fd5b600360008273ffffffffffffffffffffffffffffffffffffffff1673ffffffffffffffffffffffffffffffffffffffff16815260200190815260200160002060000160009054906101000a900460ff1615610308576040517f08c379a00000000000000000000000000000000000000000000000000000000081526004016102ff906114cc565b60405180910390fd5b6001600360008373ffffffffffffffffffffffffffffffffffffffff1673ffffffffffffffffffffffffffffffffffffffff16815260200190815260200160002060000160006101000a81548160ff02191690831515021790555050565b600260009054906101000a900473ffffffffffffffffffffffffffffffffffffffff1681565b610394610f60565b600061039e610cea565b905060005b60058160ff1610156105595760048160ff16600581106103ec577f4e487b7100000000000000000000000000000000000000000000000000000000600052603260045260246000fd5b01828260ff1660058110610429577f4e487b7100000000000000000000000000000000000000000000000000000000600052603260045260246000fd5b602002015160ff1681548110610468577f4e487b7100000000000000000000000000000000000000000000000000000000600052603260045260246000fd5b906000526020600020906002020160000180546104849061167c565b80601f01602080910402602001604051908101604052809291908181526020018280546104b09061167c565b80156104fd5780601f106104d2576101008083540402835291602001916104fd565b820191906000526020600020905b8154815290600101906020018083116104e057829003601f168201915b5050505050838260ff166005811061053e577f4e487b7100000000000000000000000000000000000000000000000000000000600052603260045260246000fd5b60200201819052508080610551906116ae565b9150506103a3565b505090565b6004826005811061056e57600080fd5b01818154811061057d57600080fd5b9060005260206000209060020201600091509150508060000180546105a19061167c565b80601f01602080910402602001604051908101604052809291908181526020018280546105cd9061167c565b801561061a5780601f106105ef5761010080835404028352916020019161061a565b820191906000526020600020905b8154815290600101906020018083116105fd57829003601f168201915b5050505050908060010160009054906101000a900461ffff16905082565b60036020528060005260406000206000915090508060000160009054906101000a900460ff16905081565b60015442106106a7576040517f08c379a000000000000000000000000000000000000000000000000000000000815260040161069e906114ac565b60405180910390fd5b600360003373ffffffffffffffffffffffffffffffffffffffff1673ffffffffffffffffffffffffffffffffffffffff16815260200190815260200160002060000160009054906101000a900460ff16610736576040517f08c379a000000000000000000000000000000000000000000000000000000000815260040161072d9061142c565b60405180910390fd5b600360003373ffffffffffffffffffffffffffffffffffffffff1673ffffffffffffffffffffffffffffffffffffffff1681526020019081526020016000206001018360ff16600581106107b3577f4e487b7100000000000000000000000000000000000000000000000000000000600052603260045260246000fd5b018260ff16600381106107ef577f4e487b7100000000000000000000000000000000000000000000000000000000600052603260045260246000fd5b602091828204019190069054906101000a900460ff1615610845576040517f08c379a000000000000000000000000000000000000000000000000000000000815260040161083c9061140c565b60405180910390fd5b60048360ff1660058110610882577f4e487b7100000000000000000000000000000000000000000000000000000000600052603260045260246000fd5b01805490508160ff16106108cb576040517f08c379a00000000000000000000000000000000000000000000000000000000081526004016108c2906114ec565b60405180910390fd5b60006001905060005b8360ff168160ff1610156109d95760001515600360003373ffffffffffffffffffffffffffffffffffffffff1673ffffffffffffffffffffffffffffffffffffffff1681526020019081526020016000206001018660ff1660058110610963577f4e487b7100000000000000000000000000000000000000000000000000000000600052603260045260246000fd5b018260ff166003811061099f577f4e487b7100000000000000000000000000000000000000000000000000000000600052603260045260246000fd5b602091828204019190069054906101000a900460ff16151514156109c657600091506109d9565b80806109d1906116ae565b9150506108d4565b5080610a1a576040517f08c379a0000000000000000000000000000000000000000000000000000000008152600401610a119061146c565b60405180910390fd5b6001600360003373ffffffffffffffffffffffffffffffffffffffff1673ffffffffffffffffffffffffffffffffffffffff1681526020019081526020016000206001018560ff1660058110610a99577f4e487b7100000000000000000000000000000000000000000000000000000000600052603260045260246000fd5b018460ff1660038110610ad5577f4e487b7100000000000000000000000000000000000000000000000000000000600052603260045260246000fd5b602091828204019190066101000a81548160ff02191690831515021790555081600360003373ffffffffffffffffffffffffffffffffffffffff1673ffffffffffffffffffffffffffffffffffffffff1681526020019081526020016000206006018560ff1660058110610b72577f4e487b7100000000000000000000000000000000000000000000000000000000600052603260045260246000fd5b018460ff1660038110610bae577f4e487b7100000000000000000000000000000000000000000000000000000000600052603260045260246000fd5b602091828204019190066101000a81548160ff021916908360ff16021790555060008360ff1660038110610c0b577f4e487b7100000000000000000000000000000000000000000000000000000000600052603260045260246000fd5b602091828204019190069054906101000a900460ff1660ff1660048560ff1660058110610c61577f4e487b7100000000000000000000000000000000000000000000000000000000600052603260045260246000fd5b018360ff1681548110610c9d577f4e487b7100000000000000000000000000000000000000000000000000000000600052603260045260246000fd5b906000526020600020906002020160010160008282829054906101000a900461ffff16610cca91906115ae565b92506101000a81548161ffff021916908361ffff16021790555050505050565b610cf2610f87565b600154421015610d37576040517f08c379a0000000000000000000000000000000000000000000000000000000008152600401610d2e9061144c565b60405180910390fd5b610d3f610f87565b60005b60058160ff161015610f58576000805b60048360ff1660058110610d8f577f4e487b7100000000000000000000000000000000000000000000000000000000600052603260045260246000fd5b01805490508160ff161015610f43578161ffff1660048460ff1660058110610de0577f4e487b7100000000000000000000000000000000000000000000000000000000600052603260045260246000fd5b018260ff1681548110610e1c577f4e487b7100000000000000000000000000000000000000000000000000000000600052603260045260246000fd5b906000526020600020906002020160010160009054906101000a900461ffff1661ffff161115610f305760048360ff1660058110610e83577f4e487b7100000000000000000000000000000000000000000000000000000000600052603260045260246000fd5b018160ff1681548110610ebf577f4e487b7100000000000000000000000000000000000000000000000000000000600052603260045260246000fd5b906000526020600020906002020160010160009054906101000a900461ffff16915080848460ff1660058110610f1e577f4e487b7100000000000000000000000000000000000000000000000000000000600052603260045260246000fd5b602002019060ff16908160ff16815250505b8080610f3b906116ae565b915050610d52565b50508080610f50906116ae565b915050610d42565b508091505090565b6040518060a001604052806005905b6060815260200190600190039081610f6f5790505090565b6040518060a00160405280600590602082028036833780820191505090505090565b600081359050610fb881611901565b92915050565b600081359050610fcd81611918565b92915050565b600081359050610fe28161192f565b92915050565b600060208284031215610ffa57600080fd5b600061100884828501610fa9565b91505092915050565b6000806040838503121561102457600080fd5b600061103285828601610fbe565b925050602061104385828601610fbe565b9150509250929050565b60008060006060848603121561106257600080fd5b600061107086828701610fd3565b935050602061108186828701610fd3565b925050604061109286828701610fd3565b9150509250925092565b60006110a883836111b2565b905092915050565b60006110bc838361135a565b60208301905092915050565b6110d1816115e6565b82525050565b60006110e28261153b565b6110ec8185611576565b9350836020820285016110fe85611527565b8060005b8581101561113a578484038952815161111b858261109c565b94506111268361155c565b925060208a01995050600181019050611102565b50829750879550505050505092915050565b61115581611546565b61115f8184611581565b925061116a82611531565b8060005b8381101561119b57815161118287826110b0565b965061118d83611569565b92505060018101905061116e565b505050505050565b6111ac816115f8565b82525050565b60006111bd82611551565b6111c7818561158c565b93506111d7818560208601611649565b6111e081611736565b840191505092915050565b60006111f682611551565b611200818561159d565b9350611210818560208601611649565b61121981611736565b840191505092915050565b600061123160388361159d565b915061123c82611747565b604082019050919050565b600061125460208361159d565b915061125f82611796565b602082019050919050565b6000611277601b8361159d565b9150611282826117bf565b602082019050919050565b600061129a60328361159d565b91506112a5826117e8565b604082019050919050565b60006112bd60318361159d565b91506112c882611837565b604082019050919050565b60006112e060138361159d565b91506112eb82611886565b602082019050919050565b6000611303601c8361159d565b915061130e826118af565b602082019050919050565b600061132660198361159d565b9150611331826118d8565b602082019050919050565b61134581611604565b82525050565b61135481611632565b82525050565b6113638161163c565b82525050565b600060208201905061137e60008301846110c8565b92915050565b6000602082019050818103600083015261139e81846110d7565b905092915050565b600060a0820190506113bb600083018461114c565b92915050565b60006020820190506113d660008301846111a3565b92915050565b600060408201905081810360008301526113f681856111eb565b9050611405602083018461133c565b9392505050565b6000602082019050818103600083015261142581611224565b9050919050565b6000602082019050818103600083015261144581611247565b9050919050565b600060208201905081810360008301526114658161126a565b9050919050565b600060208201905081810360008301526114858161128d565b9050919050565b600060208201905081810360008301526114a5816112b0565b9050919050565b600060208201905081810360008301526114c5816112d3565b9050919050565b600060208201905081810360008301526114e5816112f6565b9050919050565b6000602082019050818103600083015261150581611319565b9050919050565b6000602082019050611521600083018461134b565b92915050565b6000819050919050565b6000819050919050565b600060059050919050565b600060059050919050565b600081519050919050565b6000602082019050919050565b6000602082019050919050565b600081905092915050565b600081905092915050565b600082825260208201905092915050565b600082825260208201905092915050565b60006115b982611604565b91506115c483611604565b92508261ffff038211156115db576115da6116d8565b5b828201905092915050565b60006115f182611612565b9050919050565b60008115159050919050565b600061ffff82169050919050565b600073ffffffffffffffffffffffffffffffffffffffff82169050919050565b6000819050919050565b600060ff82169050919050565b60005b8381101561166757808201518184015260208101905061164c565b83811115611676576000848401525b50505050565b6000600282049050600182168061169457607f821691505b602082108114156116a8576116a7611707565b5b50919050565b60006116b98261163c565b915060ff8214156116cd576116cc6116d8565b5b600182019050919050565b7f4e487b7100000000000000000000000000000000000000000000000000000000600052601160045260246000fd5b7f4e487b7100000000000000000000000000000000000000000000000000000000600052602260045260246000fd5b6000601f19601f8301169050919050565b7f596f75206861766520616c726561647920766f74656420666f7220746869732060008201527f706f736974696f6e20616e6420707265666572656e63652e0000000000000000602082015250565b7f4f6e6c79207265676973746572656420766f746572732063616e20766f74652e600082015250565b7f456c656374696f6e20686173206e6f7420656e646564207965742e0000000000600082015250565b7f596f752068617665206e6f7420766f74656420666f722074686520707265766960008201527f6f757320707265666572656e63652873292e0000000000000000000000000000602082015250565b7f4f6e6c792074686520656c656374696f6e206c65616465722063616e2067726160008201527f6e7420766f74696e67207269676874732e000000000000000000000000000000602082015250565b7f456c656374696f6e2068617320656e6465642e00000000000000000000000000600082015250565b7f566f74657220697320616c726561647920726567697374657265642e00000000600082015250565b7f43616e64696461746520646f6573206e6f742065786973742e00000000000000600082015250565b61190a816115e6565b811461191557600080fd5b50565b61192181611632565b811461192c57600080fd5b50565b6119388161163c565b811461194357600080fd5b5056fea26469706673582212204f0d71c96440a28254b13f2091ff22b45682ecc24217bdfd898013f48892567e64736f6c63430008040033",
  "linkReferences": {},
  "deployedLinkReferences": {}
}