{
  "_format": "hh-sol-artifact-1",
  "contractName": "Election",
  "sourceName": "contracts/Election.sol",
  "abi": [
    {
      "inputs": [
        {
          "internalType": "string[][5]",
          "name": "_candidateNames",
          "type": "string[][5]"
        },
        {
          "internalType": "uint256",
          "name": "_endTime",
          "type": "uint256"
        }
      ],
      "stateMutability": "nonpayable",
      "type": "constructor"
    },
    {
      "inputs": [
        {
          "internalType": "uint256",
          "name": "",
          "type": "uint256"
        },
        {
          "internalType": "uint256",
          "name": "",
          "type": "uint256"
        }
      ],
      "name": "candidates",
      "outputs": [
        {
          "internalType": "string",
          "name": "name",
          "type": "string"
        },
        {
          "internalType": "uint16",
          "name": "votes",
          "type": "uint16"
        }
      ],
      "stateMutability": "view",
      "type": "function"
    },
    {
      "inputs": [
        {
          "internalType": "uint8",
          "name": "position",
          "type": "uint8"
        },
        {
          "internalType": "uint8",
          "name": "preference1",
          "type": "uint8"
        },
        {
          "internalType": "uint8",
          "name": "preference2",
          "type": "uint8"
        },
        {
          "internalType": "uint8",
          "name": "preference3",
          "type": "uint8"
        }
      ],
      "name": "castVote",
      "outputs": [],
      "stateMutability": "nonpayable",
      "type": "function"
    },
    {
      "inputs": [],
      "name": "endTime",
      "outputs": [
        {
          "internalType": "uint256",
          "name": "",
          "type": "uint256"
        }
      ],
      "stateMutability": "view",
      "type": "function"
    },
    {
      "inputs": [],
      "name": "leader",
      "outputs": [
        {
          "internalType": "address",
          "name": "",
          "type": "address"
        }
      ],
      "stateMutability": "view",
      "type": "function"
    },
    {
      "inputs": [
        {
          "internalType": "address",
          "name": "voter",
          "type": "address"
        }
      ],
      "name": "registerVoter",
      "outputs": [],
      "stateMutability": "nonpayable",
      "type": "function"
    },
    {
      "inputs": [
        {
          "internalType": "address",
          "name": "",
          "type": "address"
        }
      ],
      "name": "voters",
      "outputs": [
        {
          "internalType": "bool",
          "name": "registered",
          "type": "bool"
        }
      ],
      "stateMutability": "view",
      "type": "function"
    },
    {
      "inputs": [],
      "name": "winningCandidatesName",
      "outputs": [
        {
          "internalType": "string[5]",
          "name": "winnersName_",
          "type": "string[5]"
        }
      ],
      "stateMutability": "view",
      "type": "function"
    }
  ],
  "bytecode": "0x60806040526040518060600160405280600560ff168152602001600360ff168152602001600160ff1681525060009060036200003d9291906200035d565b503480156200004b57600080fd5b506040516200261c3803806200261c8339818101604052810190620000719190620006a5565b804210620000b6576040517f08c379a0000000000000000000000000000000000000000000000000000000008152600401620000ad9062000726565b60405180910390fd5b33600260006101000a81548173ffffffffffffffffffffffffffffffffffffffff021916908373ffffffffffffffffffffffffffffffffffffffff160217905550600160036000600260009054906101000a900473ffffffffffffffffffffffffffffffffffffffff1673ffffffffffffffffffffffffffffffffffffffff1673ffffffffffffffffffffffffffffffffffffffff16815260200190815260200160002060000160006101000a81548160ff02191690831515021790555060005b60058160ff1610156200034d5760005b838260ff1660058110620001c4577f4e487b7100000000000000000000000000000000000000000000000000000000600052603260045260246000fd5b6020020151518160ff161015620003365760048260ff166005811062000213577f4e487b7100000000000000000000000000000000000000000000000000000000600052603260045260246000fd5b016040518060400160405280868560ff16600581106200025c577f4e487b7100000000000000000000000000000000000000000000000000000000600052603260045260246000fd5b60200201518460ff16815181106200029d577f4e487b7100000000000000000000000000000000000000000000000000000000600052603260045260246000fd5b60200260200101518152602001600061ffff1681525090806001815401808255809150506001900390600052602060002090600202016000909190919091506000820151816000019080519060200190620002fa929190620003fe565b5060208201518160010160006101000a81548161ffff021916908361ffff160217905550505080806200032d90620008c9565b91505062000187565b5080806200034490620008c9565b91505062000177565b50806001819055505050620009d9565b826003601f01602090048101928215620003eb5791602002820160005b83821115620003ba57835183826101000a81548160ff021916908360ff16021790555092602001926001016020816000010492830192600103026200037a565b8015620003e95782816101000a81549060ff0219169055600101602081600001049283019260010302620003ba565b505b509050620003fa91906200048f565b5090565b8280546200040c906200085d565b90600052602060002090601f0160209004810192826200043057600085556200047c565b82601f106200044b57805160ff19168380011785556200047c565b828001600101855582156200047c579182015b828111156200047b5782518255916020019190600101906200045e565b5b5090506200048b91906200048f565b5090565b5b80821115620004aa57600081600090555060010162000490565b5090565b6000620004c5620004bf8462000771565b62000748565b90508082856020860282011115620004dc57600080fd5b60005b858110156200052b57815167ffffffffffffffff8111156200050057600080fd5b8086016200050f898262000634565b85526020850194506020840193505050600181019050620004df565b5050509392505050565b60006200054c62000546846200079a565b62000748565b905080838252602082019050828560208602820111156200056c57600080fd5b60005b85811015620005bb57815167ffffffffffffffff8111156200059057600080fd5b8086016200059f898262000661565b855260208501945060208401935050506001810190506200056f565b5050509392505050565b6000620005dc620005d684620007c9565b62000748565b905082815260208101848484011115620005f557600080fd5b6200060284828562000827565b509392505050565b600082601f8301126200061c57600080fd5b60056200062b848285620004ae565b91505092915050565b600082601f8301126200064657600080fd5b81516200065884826020860162000535565b91505092915050565b600082601f8301126200067357600080fd5b815162000685848260208601620005c5565b91505092915050565b6000815190506200069f81620009bf565b92915050565b60008060408385031215620006b957600080fd5b600083015167ffffffffffffffff811115620006d457600080fd5b620006e2858286016200060a565b9250506020620006f5858286016200068e565b9150509250929050565b60006200070e601f83620007ff565b91506200071b8262000996565b602082019050919050565b600060208201905081810360008301526200074181620006ff565b9050919050565b60006200075462000767565b905062000762828262000893565b919050565b6000604051905090565b600067ffffffffffffffff8211156200078f576200078e62000956565b5b602082029050919050565b600067ffffffffffffffff821115620007b857620007b762000956565b5b602082029050602081019050919050565b600067ffffffffffffffff821115620007e757620007e662000956565b5b620007f28262000985565b9050602081019050919050565b600082825260208201905092915050565b6000819050919050565b600060ff82169050919050565b60005b83811015620008475780820151818401526020810190506200082a565b8381111562000857576000848401525b50505050565b600060028204905060018216806200087657607f821691505b602082108114156200088d576200088c62000927565b5b50919050565b6200089e8262000985565b810181811067ffffffffffffffff82111715620008c057620008bf62000956565b5b80604052505050565b6000620008d6826200081a565b915060ff821415620008ed57620008ec620008f8565b5b600182019050919050565b7f4e487b7100000000000000000000000000000000000000000000000000000000600052601160045260246000fd5b7f4e487b7100000000000000000000000000000000000000000000000000000000600052602260045260246000fd5b7f4e487b7100000000000000000000000000000000000000000000000000000000600052604160045260246000fd5b6000601f19601f8301169050919050565b7f456e642074696d65206d75737420626520696e20746865206675747572652e00600082015250565b620009ca8162000810565b8114620009d657600080fd5b50565b611c3380620009e96000396000f3fe608060405234801561001057600080fd5b506004361061007d5760003560e01c8063510d96451161005b578063510d9645146100da5780637de14242146100f857806385c56e1914610129578063a3ec138d146101455761007d565b80633197cbb61461008257806338db6dd3146100a057806340eedabb146100bc575b600080fd5b61008a610175565b6040516100979190611868565b60405180910390f35b6100ba60048036038101906100b5919061144f565b61017b565b005b6100c461033d565b6040516100d19190611720565b60405180910390f35b6100e2610363565b6040516100ef919061173b565b60405180910390f35b610112600480360381019061010d9190611478565b61076d565b604051610120929190611778565b60405180910390f35b610143600480360381019061013e91906114b4565b610847565b005b61015f600480360381019061015a919061144f565b61139c565b60405161016c919061175d565b60405180910390f35b60015481565b60015442106101bf576040517f08c379a00000000000000000000000000000000000000000000000000000000081526004016101b690611808565b60405180910390fd5b600260009054906101000a900473ffffffffffffffffffffffffffffffffffffffff1673ffffffffffffffffffffffffffffffffffffffff163373ffffffffffffffffffffffffffffffffffffffff161461024f576040517f08c379a0000000000000000000000000000000000000000000000000000000008152600401610246906117e8565b60405180910390fd5b600360008273ffffffffffffffffffffffffffffffffffffffff1673ffffffffffffffffffffffffffffffffffffffff16815260200190815260200160002060000160009054906101000a900460ff16156102df576040517f08c379a00000000000000000000000000000000000000000000000000000000081526004016102d690611828565b60405180910390fd5b6001600360008373ffffffffffffffffffffffffffffffffffffffff1673ffffffffffffffffffffffffffffffffffffffff16815260200190815260200160002060000160006101000a81548160ff02191690831515021790555050565b600260009054906101000a900473ffffffffffffffffffffffffffffffffffffffff1681565b61036b6113c7565b6103736113ee565b60005b60058160ff1610156105ae5760007fffffffffffffffffffffffffffffffffffffffffffffffffffffffffffffffff905060005b60048360ff16600581106103e7577f4e487b7100000000000000000000000000000000000000000000000000000000600052603260045260246000fd5b01805490508160ff161015610599578160010b60048460ff1660058110610437577f4e487b7100000000000000000000000000000000000000000000000000000000600052603260045260246000fd5b018260ff1681548110610473577f4e487b7100000000000000000000000000000000000000000000000000000000600052603260045260246000fd5b906000526020600020906002020160010160009054906101000a900461ffff1660010b13156105865760048360ff16600581106104d9577f4e487b7100000000000000000000000000000000000000000000000000000000600052603260045260246000fd5b018160ff1681548110610515577f4e487b7100000000000000000000000000000000000000000000000000000000600052603260045260246000fd5b906000526020600020906002020160010160009054906101000a900461ffff16915080848460ff1660058110610574577f4e487b7100000000000000000000000000000000000000000000000000000000600052603260045260246000fd5b602002019060ff16908160ff16815250505b8080610591906119dd565b9150506103aa565b505080806105a6906119dd565b915050610376565b5060005b60058160ff1610156107685760048160ff16600581106105fb577f4e487b7100000000000000000000000000000000000000000000000000000000600052603260045260246000fd5b01828260ff1660058110610638577f4e487b7100000000000000000000000000000000000000000000000000000000600052603260045260246000fd5b602002015160ff1681548110610677577f4e487b7100000000000000000000000000000000000000000000000000000000600052603260045260246000fd5b90600052602060002090600202016000018054610693906119ab565b80601f01602080910402602001604051908101604052809291908181526020018280546106bf906119ab565b801561070c5780601f106106e15761010080835404028352916020019161070c565b820191906000526020600020905b8154815290600101906020018083116106ef57829003601f168201915b5050505050838260ff166005811061074d577f4e487b7100000000000000000000000000000000000000000000000000000000600052603260045260246000fd5b60200201819052508080610760906119dd565b9150506105b2565b505090565b6004826005811061077d57600080fd5b01818154811061078c57600080fd5b9060005260206000209060020201600091509150508060000180546107b0906119ab565b80601f01602080910402602001604051908101604052809291908181526020018280546107dc906119ab565b80156108295780601f106107fe57610100808354040283529160200191610829565b820191906000526020600020905b81548152906001019060200180831161080c57829003601f168201915b5050505050908060010160009054906101000a900461ffff16905082565b600154421061088b576040517f08c379a000000000000000000000000000000000000000000000000000000000815260040161088290611808565b60405180910390fd5b600360003373ffffffffffffffffffffffffffffffffffffffff1673ffffffffffffffffffffffffffffffffffffffff16815260200190815260200160002060000160009054906101000a900460ff1661091a576040517f08c379a0000000000000000000000000000000000000000000000000000000008152600401610911906117c8565b60405180910390fd5b600360003373ffffffffffffffffffffffffffffffffffffffff1673ffffffffffffffffffffffffffffffffffffffff1681526020019081526020016000206001018460ff1660058110610997577f4e487b7100000000000000000000000000000000000000000000000000000000600052603260045260246000fd5b016000600381106109d1577f4e487b7100000000000000000000000000000000000000000000000000000000600052603260045260246000fd5b602091828204019190069054906101000a900460ff1615610a27576040517f08c379a0000000000000000000000000000000000000000000000000000000008152600401610a1e906117a8565b60405180910390fd5b60048460ff1660058110610a64577f4e487b7100000000000000000000000000000000000000000000000000000000600052603260045260246000fd5b01805490508360ff16108015610abd575060048460ff1660058110610ab2577f4e487b7100000000000000000000000000000000000000000000000000000000600052603260045260246000fd5b01805490508260ff16105b8015610b0c575060048460ff1660058110610b01577f4e487b7100000000000000000000000000000000000000000000000000000000600052603260045260246000fd5b01805490508160ff16105b610b4b576040517f08c379a0000000000000000000000000000000000000000000000000000000008152600401610b4290611848565b60405180910390fd5b6001600360003373ffffffffffffffffffffffffffffffffffffffff1673ffffffffffffffffffffffffffffffffffffffff1681526020019081526020016000206001018560ff1660058110610bca577f4e487b7100000000000000000000000000000000000000000000000000000000600052603260045260246000fd5b01600060038110610c04577f4e487b7100000000000000000000000000000000000000000000000000000000600052603260045260246000fd5b602091828204019190066101000a81548160ff02191690831515021790555082600360003373ffffffffffffffffffffffffffffffffffffffff1673ffffffffffffffffffffffffffffffffffffffff1681526020019081526020016000206006018560ff1660058110610ca1577f4e487b7100000000000000000000000000000000000000000000000000000000600052603260045260246000fd5b01600060038110610cdb577f4e487b7100000000000000000000000000000000000000000000000000000000600052603260045260246000fd5b602091828204019190066101000a81548160ff021916908360ff16021790555060008060038110610d35577f4e487b7100000000000000000000000000000000000000000000000000000000600052603260045260246000fd5b602091828204019190069054906101000a900460ff1660ff1660048560ff1660058110610d8b577f4e487b7100000000000000000000000000000000000000000000000000000000600052603260045260246000fd5b018460ff1681548110610dc7577f4e487b7100000000000000000000000000000000000000000000000000000000600052603260045260246000fd5b906000526020600020906002020160010160008282829054906101000a900461ffff16610df491906118dd565b92506101000a81548161ffff021916908361ffff1602179055506001600360003373ffffffffffffffffffffffffffffffffffffffff1673ffffffffffffffffffffffffffffffffffffffff1681526020019081526020016000206001018560ff1660058110610e8d577f4e487b7100000000000000000000000000000000000000000000000000000000600052603260045260246000fd5b01600160038110610ec7577f4e487b7100000000000000000000000000000000000000000000000000000000600052603260045260246000fd5b602091828204019190066101000a81548160ff02191690831515021790555081600360003373ffffffffffffffffffffffffffffffffffffffff1673ffffffffffffffffffffffffffffffffffffffff1681526020019081526020016000206006018560ff1660058110610f64577f4e487b7100000000000000000000000000000000000000000000000000000000600052603260045260246000fd5b01600160038110610f9e577f4e487b7100000000000000000000000000000000000000000000000000000000600052603260045260246000fd5b602091828204019190066101000a81548160ff021916908360ff1602179055506000600160038110610ff9577f4e487b7100000000000000000000000000000000000000000000000000000000600052603260045260246000fd5b602091828204019190069054906101000a900460ff1660ff1660048560ff166005811061104f577f4e487b7100000000000000000000000000000000000000000000000000000000600052603260045260246000fd5b018360ff168154811061108b577f4e487b7100000000000000000000000000000000000000000000000000000000600052603260045260246000fd5b906000526020600020906002020160010160008282829054906101000a900461ffff166110b891906118dd565b92506101000a81548161ffff021916908361ffff1602179055506001600360003373ffffffffffffffffffffffffffffffffffffffff1673ffffffffffffffffffffffffffffffffffffffff1681526020019081526020016000206001018560ff1660058110611151577f4e487b7100000000000000000000000000000000000000000000000000000000600052603260045260246000fd5b0160026003811061118b577f4e487b7100000000000000000000000000000000000000000000000000000000600052603260045260246000fd5b602091828204019190066101000a81548160ff02191690831515021790555080600360003373ffffffffffffffffffffffffffffffffffffffff1673ffffffffffffffffffffffffffffffffffffffff1681526020019081526020016000206006018560ff1660058110611228577f4e487b7100000000000000000000000000000000000000000000000000000000600052603260045260246000fd5b01600260038110611262577f4e487b7100000000000000000000000000000000000000000000000000000000600052603260045260246000fd5b602091828204019190066101000a81548160ff021916908360ff16021790555060006002600381106112bd577f4e487b7100000000000000000000000000000000000000000000000000000000600052603260045260246000fd5b602091828204019190069054906101000a900460ff1660ff1660048560ff1660058110611313577f4e487b7100000000000000000000000000000000000000000000000000000000600052603260045260246000fd5b018260ff168154811061134f577f4e487b7100000000000000000000000000000000000000000000000000000000600052603260045260246000fd5b906000526020600020906002020160010160008282829054906101000a900461ffff1661137c91906118dd565b92506101000a81548161ffff021916908361ffff16021790555050505050565b60036020528060005260406000206000915090508060000160009054906101000a900460ff16905081565b6040518060a001604052806005905b60608152602001906001900390816113d65790505090565b6040518060a00160405280600590602082028036833780820191505090505090565b60008135905061141f81611bb8565b92915050565b60008135905061143481611bcf565b92915050565b60008135905061144981611be6565b92915050565b60006020828403121561146157600080fd5b600061146f84828501611410565b91505092915050565b6000806040838503121561148b57600080fd5b600061149985828601611425565b92505060206114aa85828601611425565b9150509250929050565b600080600080608085870312156114ca57600080fd5b60006114d88782880161143a565b94505060206114e98782880161143a565b93505060406114fa8782880161143a565b925050606061150b8782880161143a565b91505092959194509250565b600061152383836115be565b905092915050565b61153481611915565b82525050565b60006115458261188d565b61154f81856118b0565b93508360208202850161156185611883565b8060005b8581101561159d578484038952815161157e8582611517565b9450611589836118a3565b925060208a01995050600181019050611565565b50829750879550505050505092915050565b6115b881611927565b82525050565b60006115c982611898565b6115d381856118bb565b93506115e3818560208601611978565b6115ec81611a65565b840191505092915050565b600061160282611898565b61160c81856118cc565b935061161c818560208601611978565b61162581611a65565b840191505092915050565b600061163d6029836118cc565b915061164882611a76565b604082019050919050565b60006116606020836118cc565b915061166b82611ac5565b602082019050919050565b60006116836031836118cc565b915061168e82611aee565b604082019050919050565b60006116a66013836118cc565b91506116b182611b3d565b602082019050919050565b60006116c9601c836118cc565b91506116d482611b66565b602082019050919050565b60006116ec6019836118cc565b91506116f782611b8f565b602082019050919050565b61170b81611933565b82525050565b61171a81611961565b82525050565b6000602082019050611735600083018461152b565b92915050565b60006020820190508181036000830152611755818461153a565b905092915050565b600060208201905061177260008301846115af565b92915050565b6000604082019050818103600083015261179281856115f7565b90506117a16020830184611702565b9392505050565b600060208201905081810360008301526117c181611630565b9050919050565b600060208201905081810360008301526117e181611653565b9050919050565b6000602082019050818103600083015261180181611676565b9050919050565b6000602082019050818103600083015261182181611699565b9050919050565b60006020820190508181036000830152611841816116bc565b9050919050565b60006020820190508181036000830152611861816116df565b9050919050565b600060208201905061187d6000830184611711565b92915050565b6000819050919050565b600060059050919050565b600081519050919050565b6000602082019050919050565b600081905092915050565b600082825260208201905092915050565b600082825260208201905092915050565b60006118e882611933565b91506118f383611933565b92508261ffff0382111561190a57611909611a07565b5b828201905092915050565b600061192082611941565b9050919050565b60008115159050919050565b600061ffff82169050919050565b600073ffffffffffffffffffffffffffffffffffffffff82169050919050565b6000819050919050565b600060ff82169050919050565b60005b8381101561199657808201518184015260208101905061197b565b838111156119a5576000848401525b50505050565b600060028204905060018216806119c357607f821691505b602082108114156119d7576119d6611a36565b5b50919050565b60006119e88261196b565b915060ff8214156119fc576119fb611a07565b5b600182019050919050565b7f4e487b7100000000000000000000000000000000000000000000000000000000600052601160045260246000fd5b7f4e487b7100000000000000000000000000000000000000000000000000000000600052602260045260246000fd5b6000601f19601f8301169050919050565b7f596f75206861766520616c726561647920766f74656420666f7220746869732060008201527f706f736974696f6e2e0000000000000000000000000000000000000000000000602082015250565b7f4f6e6c79207265676973746572656420766f746572732063616e20766f74652e600082015250565b7f4f6e6c792074686520656c656374696f6e206c65616465722063616e2067726160008201527f6e7420766f74696e67207269676874732e000000000000000000000000000000602082015250565b7f456c656374696f6e2068617320656e6465642e00000000000000000000000000600082015250565b7f566f74657220697320616c726561647920726567697374657265642e00000000600082015250565b7f43616e64696461746520646f6573206e6f742065786973742e00000000000000600082015250565b611bc181611915565b8114611bcc57600080fd5b50565b611bd881611961565b8114611be357600080fd5b50565b611bef8161196b565b8114611bfa57600080fd5b5056fea264697066735822122065f21dd77431fa813de536a694ee7915a8e643585bec3a7343e35f0da9df3c9064736f6c63430008040033",
  "linkReferences": {},
  "deployedLinkReferences": {}
}