{
  "_format": "hh-sol-artifact-1",
  "contractName": "Election",
  "sourceName": "contracts/Election.sol",
  "abi": [
    {
      "inputs": [
        {
          "internalType": "string[][5]",
          "name": "_candidateNames",
          "type": "string[][5]"
        }
      ],
      "stateMutability": "nonpayable",
      "type": "constructor"
    },
    {
      "inputs": [
        {
          "internalType": "uint256",
          "name": "",
          "type": "uint256"
        },
        {
          "internalType": "uint256",
          "name": "",
          "type": "uint256"
        }
      ],
      "name": "candidates",
      "outputs": [
        {
          "internalType": "string",
          "name": "name",
          "type": "string"
        },
        {
          "internalType": "uint16",
          "name": "votes",
          "type": "uint16"
        }
      ],
      "stateMutability": "view",
      "type": "function"
    },
    {
      "inputs": [
        {
          "internalType": "uint8",
          "name": "position",
          "type": "uint8"
        },
        {
          "internalType": "uint8",
          "name": "preference",
          "type": "uint8"
        },
        {
          "internalType": "uint8",
          "name": "candidate",
          "type": "uint8"
        }
      ],
      "name": "castVote",
      "outputs": [],
      "stateMutability": "nonpayable",
      "type": "function"
    },
    {
      "inputs": [],
      "name": "endElection",
      "outputs": [],
      "stateMutability": "nonpayable",
      "type": "function"
    },
    {
      "inputs": [],
      "name": "ended",
      "outputs": [
        {
          "internalType": "bool",
          "name": "",
          "type": "bool"
        }
      ],
      "stateMutability": "view",
      "type": "function"
    },
    {
      "inputs": [],
      "name": "leader",
      "outputs": [
        {
          "internalType": "address",
          "name": "",
          "type": "address"
        }
      ],
      "stateMutability": "view",
      "type": "function"
    },
    {
      "inputs": [
        {
          "internalType": "address",
          "name": "voter",
          "type": "address"
        }
      ],
      "name": "registerVoter",
      "outputs": [],
      "stateMutability": "nonpayable",
      "type": "function"
    },
    {
      "inputs": [
        {
          "internalType": "address",
          "name": "",
          "type": "address"
        }
      ],
      "name": "voters",
      "outputs": [
        {
          "internalType": "bool",
          "name": "registered",
          "type": "bool"
        }
      ],
      "stateMutability": "view",
      "type": "function"
    },
    {
      "inputs": [],
      "name": "winningCandidate",
      "outputs": [
        {
          "internalType": "uint8[5]",
          "name": "winningCandidates_",
          "type": "uint8[5]"
        }
      ],
      "stateMutability": "view",
      "type": "function"
    },
    {
      "inputs": [],
      "name": "winningCandidatesName",
      "outputs": [
        {
          "internalType": "string[5]",
          "name": "winnersName_",
          "type": "string[5]"
        }
      ],
      "stateMutability": "view",
      "type": "function"
    }
  ],
  "bytecode": "0x608060405260008060006101000a81548160ff0219169083151502179055506040518060600160405280600560ff168152602001600360ff168152602001600160ff168152506001906003620000579291906200032a565b503480156200006557600080fd5b50604051620022f6380380620022f683398181016040528101906200008b91906200065b565b33600260006101000a81548173ffffffffffffffffffffffffffffffffffffffff021916908373ffffffffffffffffffffffffffffffffffffffff160217905550600160036000600260009054906101000a900473ffffffffffffffffffffffffffffffffffffffff1673ffffffffffffffffffffffffffffffffffffffff1673ffffffffffffffffffffffffffffffffffffffff16815260200190815260200160002060000160006101000a81548160ff02191690831515021790555060005b60058160ff161015620003225760005b828260ff166005811062000199577f4e487b7100000000000000000000000000000000000000000000000000000000600052603260045260246000fd5b6020020151518160ff1610156200030b5760048260ff1660058110620001e8577f4e487b7100000000000000000000000000000000000000000000000000000000600052603260045260246000fd5b016040518060400160405280858560ff166005811062000231577f4e487b7100000000000000000000000000000000000000000000000000000000600052603260045260246000fd5b60200201518460ff168151811062000272577f4e487b7100000000000000000000000000000000000000000000000000000000600052603260045260246000fd5b60200260200101518152602001600061ffff1681525090806001815401808255809150506001900390600052602060002090600202016000909190919091506000820151816000019080519060200190620002cf929190620003cb565b5060208201518160010160006101000a81548161ffff021916908361ffff16021790555050508080620003029062000806565b9150506200015c565b508080620003199062000806565b9150506200014c565b5050620008d3565b826003601f01602090048101928215620003b85791602002820160005b838211156200038757835183826101000a81548160ff021916908360ff160217905550926020019260010160208160000104928301926001030262000347565b8015620003b65782816101000a81549060ff021916905560010160208160000104928301926001030262000387565b505b509050620003c791906200045c565b5090565b828054620003d9906200079a565b90600052602060002090601f016020900481019282620003fd576000855562000449565b82601f106200041857805160ff191683800117855562000449565b8280016001018555821562000449579182015b82811115620004485782518255916020019190600101906200042b565b5b5090506200045891906200045c565b5090565b5b80821115620004775760008160009055506001016200045d565b5090565b6000620004926200048c84620006c9565b620006a0565b90508082856020860282011115620004a957600080fd5b60005b85811015620004f857815167ffffffffffffffff811115620004cd57600080fd5b808601620004dc898262000601565b85526020850194506020840193505050600181019050620004ac565b5050509392505050565b6000620005196200051384620006f2565b620006a0565b905080838252602082019050828560208602820111156200053957600080fd5b60005b858110156200058857815167ffffffffffffffff8111156200055d57600080fd5b8086016200056c89826200062e565b855260208501945060208401935050506001810190506200053c565b5050509392505050565b6000620005a9620005a38462000721565b620006a0565b905082815260208101848484011115620005c257600080fd5b620005cf84828562000764565b509392505050565b600082601f830112620005e957600080fd5b6005620005f88482856200047b565b91505092915050565b600082601f8301126200061357600080fd5b81516200062584826020860162000502565b91505092915050565b600082601f8301126200064057600080fd5b81516200065284826020860162000592565b91505092915050565b6000602082840312156200066e57600080fd5b600082015167ffffffffffffffff8111156200068957600080fd5b6200069784828501620005d7565b91505092915050565b6000620006ac620006bf565b9050620006ba8282620007d0565b919050565b6000604051905090565b600067ffffffffffffffff821115620006e757620006e662000893565b5b602082029050919050565b600067ffffffffffffffff82111562000710576200070f62000893565b5b602082029050602081019050919050565b600067ffffffffffffffff8211156200073f576200073e62000893565b5b6200074a82620008c2565b9050602081019050919050565b600060ff82169050919050565b60005b838110156200078457808201518184015260208101905062000767565b8381111562000794576000848401525b50505050565b60006002820490506001821680620007b357607f821691505b60208210811415620007ca57620007c962000864565b5b50919050565b620007db82620008c2565b810181811067ffffffffffffffff82111715620007fd57620007fc62000893565b5b80604052505050565b6000620008138262000757565b915060ff8214156200082a576200082962000835565b5b600182019050919050565b7f4e487b7100000000000000000000000000000000000000000000000000000000600052601160045260246000fd5b7f4e487b7100000000000000000000000000000000000000000000000000000000600052602260045260246000fd5b7f4e487b7100000000000000000000000000000000000000000000000000000000600052604160045260246000fd5b6000601f19601f8301169050919050565b611a1380620008e36000396000f3fe608060405234801561001057600080fd5b50600436106100935760003560e01c806359f784681161006657806359f784681461010e5780637de1424214610118578063a3ec138d14610149578063c6953d6214610179578063d28178d71461019557610093565b806312fa6feb1461009857806338db6dd3146100b657806340eedabb146100d2578063510d9645146100f0575b600080fd5b6100a06101b3565b6040516100ad919061144d565b60405180910390f35b6100d060048036038101906100cb9190611083565b6101c4565b005b6100da610390565b6040516100e791906113f5565b60405180910390f35b6100f86103b6565b6040516101059190611410565b60405180910390f35b610116610588565b005b610132600480360381019061012d91906110ac565b610634565b604051610140929190611468565b60405180910390f35b610163600480360381019061015e9190611083565b61070e565b604051610170919061144d565b60405180910390f35b610193600480360381019061018e91906110e8565b610739565b005b61019d610dca565b6040516101aa9190611432565b60405180910390f35b60008054906101000a900460ff1681565b60008054906101000a900460ff1615610212576040517f08c379a000000000000000000000000000000000000000000000000000000000815260040161020990611518565b60405180910390fd5b600260009054906101000a900473ffffffffffffffffffffffffffffffffffffffff1673ffffffffffffffffffffffffffffffffffffffff163373ffffffffffffffffffffffffffffffffffffffff16146102a2576040517f08c379a0000000000000000000000000000000000000000000000000000000008152600401610299906114f8565b60405180910390fd5b600360008273ffffffffffffffffffffffffffffffffffffffff1673ffffffffffffffffffffffffffffffffffffffff16815260200190815260200160002060000160009054906101000a900460ff1615610332576040517f08c379a000000000000000000000000000000000000000000000000000000000815260040161032990611538565b60405180910390fd5b6001600360008373ffffffffffffffffffffffffffffffffffffffff1673ffffffffffffffffffffffffffffffffffffffff16815260200190815260200160002060000160006101000a81548160ff02191690831515021790555050565b600260009054906101000a900473ffffffffffffffffffffffffffffffffffffffff1681565b6103be610ffb565b60006103c8610dca565b905060005b60058160ff1610156105835760048160ff1660058110610416577f4e487b7100000000000000000000000000000000000000000000000000000000600052603260045260246000fd5b01828260ff1660058110610453577f4e487b7100000000000000000000000000000000000000000000000000000000600052603260045260246000fd5b602002015160ff1681548110610492577f4e487b7100000000000000000000000000000000000000000000000000000000600052603260045260246000fd5b906000526020600020906002020160000180546104ae906116ed565b80601f01602080910402602001604051908101604052809291908181526020018280546104da906116ed565b80156105275780601f106104fc57610100808354040283529160200191610527565b820191906000526020600020905b81548152906001019060200180831161050a57829003601f168201915b5050505050838260ff1660058110610568577f4e487b7100000000000000000000000000000000000000000000000000000000600052603260045260246000fd5b6020020181905250808061057b9061171f565b9150506103cd565b505090565b600260009054906101000a900473ffffffffffffffffffffffffffffffffffffffff1673ffffffffffffffffffffffffffffffffffffffff163373ffffffffffffffffffffffffffffffffffffffff1614610618576040517f08c379a000000000000000000000000000000000000000000000000000000000815260040161060f90611558565b60405180910390fd5b60016000806101000a81548160ff021916908315150217905550565b6004826005811061064457600080fd5b01818154811061065357600080fd5b906000526020600020906002020160009150915050806000018054610677906116ed565b80601f01602080910402602001604051908101604052809291908181526020018280546106a3906116ed565b80156106f05780601f106106c5576101008083540402835291602001916106f0565b820191906000526020600020905b8154815290600101906020018083116106d357829003601f168201915b5050505050908060010160009054906101000a900461ffff16905082565b60036020528060005260406000206000915090508060000160009054906101000a900460ff16905081565b60008054906101000a900460ff1615610787576040517f08c379a000000000000000000000000000000000000000000000000000000000815260040161077e90611518565b60405180910390fd5b600360003373ffffffffffffffffffffffffffffffffffffffff1673ffffffffffffffffffffffffffffffffffffffff16815260200190815260200160002060000160009054906101000a900460ff16610816576040517f08c379a000000000000000000000000000000000000000000000000000000000815260040161080d906114b8565b60405180910390fd5b600360003373ffffffffffffffffffffffffffffffffffffffff1673ffffffffffffffffffffffffffffffffffffffff1681526020019081526020016000206001018360ff1660058110610893577f4e487b7100000000000000000000000000000000000000000000000000000000600052603260045260246000fd5b018260ff16600381106108cf577f4e487b7100000000000000000000000000000000000000000000000000000000600052603260045260246000fd5b602091828204019190069054906101000a900460ff1615610925576040517f08c379a000000000000000000000000000000000000000000000000000000000815260040161091c90611498565b60405180910390fd5b60048360ff1660058110610962577f4e487b7100000000000000000000000000000000000000000000000000000000600052603260045260246000fd5b01805490508160ff16106109ab576040517f08c379a00000000000000000000000000000000000000000000000000000000081526004016109a290611578565b60405180910390fd5b60006001905060005b8360ff168160ff161015610ab95760001515600360003373ffffffffffffffffffffffffffffffffffffffff1673ffffffffffffffffffffffffffffffffffffffff1681526020019081526020016000206001018660ff1660058110610a43577f4e487b7100000000000000000000000000000000000000000000000000000000600052603260045260246000fd5b018260ff1660038110610a7f577f4e487b7100000000000000000000000000000000000000000000000000000000600052603260045260246000fd5b602091828204019190069054906101000a900460ff1615151415610aa65760009150610ab9565b8080610ab19061171f565b9150506109b4565b5080610afa576040517f08c379a0000000000000000000000000000000000000000000000000000000008152600401610af1906114d8565b60405180910390fd5b6001600360003373ffffffffffffffffffffffffffffffffffffffff1673ffffffffffffffffffffffffffffffffffffffff1681526020019081526020016000206001018560ff1660058110610b79577f4e487b7100000000000000000000000000000000000000000000000000000000600052603260045260246000fd5b018460ff1660038110610bb5577f4e487b7100000000000000000000000000000000000000000000000000000000600052603260045260246000fd5b602091828204019190066101000a81548160ff02191690831515021790555081600360003373ffffffffffffffffffffffffffffffffffffffff1673ffffffffffffffffffffffffffffffffffffffff1681526020019081526020016000206006018560ff1660058110610c52577f4e487b7100000000000000000000000000000000000000000000000000000000600052603260045260246000fd5b018460ff1660038110610c8e577f4e487b7100000000000000000000000000000000000000000000000000000000600052603260045260246000fd5b602091828204019190066101000a81548160ff021916908360ff16021790555060018360ff1660038110610ceb577f4e487b7100000000000000000000000000000000000000000000000000000000600052603260045260246000fd5b602091828204019190069054906101000a900460ff1660ff1660048560ff1660058110610d41577f4e487b7100000000000000000000000000000000000000000000000000000000600052603260045260246000fd5b018360ff1681548110610d7d577f4e487b7100000000000000000000000000000000000000000000000000000000600052603260045260246000fd5b906000526020600020906002020160010160008282829054906101000a900461ffff16610daa919061161f565b92506101000a81548161ffff021916908361ffff16021790555050505050565b610dd2611022565b610dda611022565b60005b60058160ff161015610ff3576000805b60048360ff1660058110610e2a577f4e487b7100000000000000000000000000000000000000000000000000000000600052603260045260246000fd5b01805490508160ff161015610fde578161ffff1660048460ff1660058110610e7b577f4e487b7100000000000000000000000000000000000000000000000000000000600052603260045260246000fd5b018260ff1681548110610eb7577f4e487b7100000000000000000000000000000000000000000000000000000000600052603260045260246000fd5b906000526020600020906002020160010160009054906101000a900461ffff1661ffff161115610fcb5760048360ff1660058110610f1e577f4e487b7100000000000000000000000000000000000000000000000000000000600052603260045260246000fd5b018160ff1681548110610f5a577f4e487b7100000000000000000000000000000000000000000000000000000000600052603260045260246000fd5b906000526020600020906002020160010160009054906101000a900461ffff16915080848460ff1660058110610fb9577f4e487b7100000000000000000000000000000000000000000000000000000000600052603260045260246000fd5b602002019060ff16908160ff16815250505b8080610fd69061171f565b915050610ded565b50508080610feb9061171f565b915050610ddd565b508091505090565b6040518060a001604052806005905b606081526020019060019003908161100a5790505090565b6040518060a00160405280600590602082028036833780820191505090505090565b60008135905061105381611998565b92915050565b600081359050611068816119af565b92915050565b60008135905061107d816119c6565b92915050565b60006020828403121561109557600080fd5b60006110a384828501611044565b91505092915050565b600080604083850312156110bf57600080fd5b60006110cd85828601611059565b92505060206110de85828601611059565b9150509250929050565b6000806000606084860312156110fd57600080fd5b600061110b8682870161106e565b935050602061111c8682870161106e565b925050604061112d8682870161106e565b9150509250925092565b6000611143838361124d565b905092915050565b600061115783836113e6565b60208301905092915050565b61116c81611657565b82525050565b600061117d826115ac565b61118781856115e7565b93508360208202850161119985611598565b8060005b858110156111d557848403895281516111b68582611137565b94506111c1836115cd565b925060208a0199505060018101905061119d565b50829750879550505050505092915050565b6111f0816115b7565b6111fa81846115f2565b9250611205826115a2565b8060005b8381101561123657815161121d878261114b565b9650611228836115da565b925050600181019050611209565b505050505050565b61124781611669565b82525050565b6000611258826115c2565b61126281856115fd565b93506112728185602086016116ba565b61127b816117a7565b840191505092915050565b6000611291826115c2565b61129b818561160e565b93506112ab8185602086016116ba565b6112b4816117a7565b840191505092915050565b60006112cc60388361160e565b91506112d7826117b8565b604082019050919050565b60006112ef60208361160e565b91506112fa82611807565b602082019050919050565b600061131260328361160e565b915061131d82611830565b604082019050919050565b600061133560318361160e565b91506113408261187f565b604082019050919050565b600061135860138361160e565b9150611363826118ce565b602082019050919050565b600061137b601c8361160e565b9150611386826118f7565b602082019050919050565b600061139e602e8361160e565b91506113a982611920565b604082019050919050565b60006113c160198361160e565b91506113cc8261196f565b602082019050919050565b6113e081611675565b82525050565b6113ef816116ad565b82525050565b600060208201905061140a6000830184611163565b92915050565b6000602082019050818103600083015261142a8184611172565b905092915050565b600060a08201905061144760008301846111e7565b92915050565b6000602082019050611462600083018461123e565b92915050565b600060408201905081810360008301526114828185611286565b905061149160208301846113d7565b9392505050565b600060208201905081810360008301526114b1816112bf565b9050919050565b600060208201905081810360008301526114d1816112e2565b9050919050565b600060208201905081810360008301526114f181611305565b9050919050565b6000602082019050818103600083015261151181611328565b9050919050565b600060208201905081810360008301526115318161134b565b9050919050565b600060208201905081810360008301526115518161136e565b9050919050565b6000602082019050818103600083015261157181611391565b9050919050565b60006020820190508181036000830152611591816113b4565b9050919050565b6000819050919050565b6000819050919050565b600060059050919050565b600060059050919050565b600081519050919050565b6000602082019050919050565b6000602082019050919050565b600081905092915050565b600081905092915050565b600082825260208201905092915050565b600082825260208201905092915050565b600061162a82611675565b915061163583611675565b92508261ffff0382111561164c5761164b611749565b5b828201905092915050565b600061166282611683565b9050919050565b60008115159050919050565b600061ffff82169050919050565b600073ffffffffffffffffffffffffffffffffffffffff82169050919050565b6000819050919050565b600060ff82169050919050565b60005b838110156116d85780820151818401526020810190506116bd565b838111156116e7576000848401525b50505050565b6000600282049050600182168061170557607f821691505b6020821081141561171957611718611778565b5b50919050565b600061172a826116ad565b915060ff82141561173e5761173d611749565b5b600182019050919050565b7f4e487b7100000000000000000000000000000000000000000000000000000000600052601160045260246000fd5b7f4e487b7100000000000000000000000000000000000000000000000000000000600052602260045260246000fd5b6000601f19601f8301169050919050565b7f596f75206861766520616c726561647920766f74656420666f7220746869732060008201527f706f736974696f6e20616e6420707265666572656e63652e0000000000000000602082015250565b7f4f6e6c79207265676973746572656420766f746572732063616e20766f74652e600082015250565b7f596f752068617665206e6f7420766f74656420666f722074686520707265766960008201527f6f757320707265666572656e63652873292e0000000000000000000000000000602082015250565b7f4f6e6c792074686520656c656374696f6e206c65616465722063616e2067726160008201527f6e7420766f74696e67207269676874732e000000000000000000000000000000602082015250565b7f456c656374696f6e2068617320656e6465642e00000000000000000000000000600082015250565b7f566f74657220697320616c726561647920726567697374657265642e00000000600082015250565b7f4f6e6c792074686520656c656374696f6e206c65616465722063616e20656e6460008201527f2074686520656c656374696f6e2e000000000000000000000000000000000000602082015250565b7f43616e64696461746520646f6573206e6f742065786973742e00000000000000600082015250565b6119a181611657565b81146119ac57600080fd5b50565b6119b8816116a3565b81146119c357600080fd5b50565b6119cf816116ad565b81146119da57600080fd5b5056fea26469706673582212200acf66ba36e76495f9e194d50ea94f8116973ca69c9321ac9351764ac7a98dd664736f6c63430008040033",
  "linkReferences": {},
  "deployedLinkReferences": {}
}